{
  "contractName": "SaleLoveLock",
  "abi": [
    {
      "inputs": [],
      "stateMutability": "nonpayable",
      "type": "constructor"
    },
    {
      "inputs": [],
      "name": "ceoAddress",
      "outputs": [
        {
          "internalType": "address",
          "name": "",
          "type": "address"
        }
      ],
      "stateMutability": "view",
      "type": "function",
      "constant": true
    },
    {
      "inputs": [],
      "name": "cooAddress",
      "outputs": [
        {
          "internalType": "address",
          "name": "",
          "type": "address"
        }
      ],
      "stateMutability": "view",
      "type": "function",
      "constant": true
    },
    {
      "inputs": [],
      "name": "nonFungibleContract",
      "outputs": [
        {
          "internalType": "contract ERC721",
          "name": "",
          "type": "address"
        }
      ],
      "stateMutability": "view",
      "type": "function",
      "constant": true
    },
    {
      "inputs": [
        {
          "internalType": "address",
          "name": "_newCEO",
          "type": "address"
        }
      ],
      "name": "setCEO",
      "outputs": [],
      "stateMutability": "nonpayable",
      "type": "function"
    },
    {
      "inputs": [
        {
          "internalType": "address",
          "name": "_newCOO",
          "type": "address"
        }
      ],
      "name": "setCOO",
      "outputs": [],
      "stateMutability": "nonpayable",
      "type": "function"
    },
    {
      "inputs": [
        {
          "internalType": "uint256",
          "name": "",
          "type": "uint256"
        }
      ],
      "name": "tokenToSaleLocks",
      "outputs": [
        {
          "internalType": "address",
          "name": "owner",
          "type": "address"
        },
        {
          "internalType": "uint256",
          "name": "price",
          "type": "uint256"
        }
      ],
      "stateMutability": "view",
      "type": "function",
      "constant": true
    },
    {
      "inputs": [
        {
          "internalType": "address",
          "name": "_nftAddress",
          "type": "address"
        }
      ],
      "name": "setNonFungibleContract",
      "outputs": [],
      "stateMutability": "nonpayable",
      "type": "function"
    },
    {
      "inputs": [
        {
          "internalType": "uint256",
          "name": "tokenId",
          "type": "uint256"
        }
      ],
      "name": "buyLock",
      "outputs": [],
      "stateMutability": "payable",
      "type": "function",
      "payable": true
    },
    {
      "inputs": [
        {
          "internalType": "uint256",
          "name": "tokenId",
          "type": "uint256"
        },
        {
          "internalType": "uint256",
          "name": "price",
          "type": "uint256"
        },
        {
          "internalType": "address",
          "name": "owner",
          "type": "address"
        }
      ],
      "name": "createSale",
      "outputs": [],
      "stateMutability": "nonpayable",
      "type": "function"
    },
    {
      "inputs": [],
      "name": "getToSellLength",
      "outputs": [
        {
          "internalType": "uint256",
          "name": "",
          "type": "uint256"
        }
      ],
      "stateMutability": "view",
      "type": "function",
      "constant": true
    },
    {
      "inputs": [
        {
          "internalType": "uint256",
          "name": "index",
          "type": "uint256"
        }
      ],
      "name": "getSaleLock",
      "outputs": [
        {
          "internalType": "uint256",
          "name": "",
          "type": "uint256"
        }
      ],
      "stateMutability": "view",
      "type": "function",
      "constant": true
    },
    {
      "inputs": [],
      "name": "getContractAddress",
      "outputs": [
        {
          "internalType": "address",
          "name": "",
          "type": "address"
        }
      ],
      "stateMutability": "view",
      "type": "function",
      "constant": true
    }
  ],
  "bytecode": "0x608060405234801561001057600080fd5b50336000806101000a81548173ffffffffffffffffffffffffffffffffffffffff021916908373ffffffffffffffffffffffffffffffffffffffff16021790555061117d806100606000396000f3fe6080604052600436106100a75760003560e01c80636fff32c9116100645780636fff32c914610255578063995cd653146102a4578063ae14dbc914610309578063b047fb501461038b578063b174f10d146103e2578063dd1b7a0f14610433576100a7565b80630a0f8168146100ac57806327d7874c146101035780632ba73c151461015457806332a2c5d0146101a55780634de9ab1e146101fc57806366e2f8691461022a575b600080fd5b3480156100b857600080fd5b506100c161048a565b604051808273ffffffffffffffffffffffffffffffffffffffff1673ffffffffffffffffffffffffffffffffffffffff16815260200191505060405180910390f35b34801561010f57600080fd5b506101526004803603602081101561012657600080fd5b81019080803573ffffffffffffffffffffffffffffffffffffffff1690602001909291905050506104af565b005b34801561016057600080fd5b506101a36004803603602081101561017757600080fd5b81019080803573ffffffffffffffffffffffffffffffffffffffff169060200190929190505050610657565b005b3480156101b157600080fd5b506101ba610800565b604051808273ffffffffffffffffffffffffffffffffffffffff1673ffffffffffffffffffffffffffffffffffffffff16815260200191505060405180910390f35b6102286004803603602081101561021257600080fd5b8101908080359060200190929190505050610808565b005b34801561023657600080fd5b5061023f610ad8565b6040518082815260200191505060405180910390f35b34801561026157600080fd5b5061028e6004803603602081101561027857600080fd5b8101908080359060200190929190505050610ae9565b6040518082815260200191505060405180910390f35b3480156102b057600080fd5b50610307600480360360608110156102c757600080fd5b810190808035906020019092919080359060200190929190803573ffffffffffffffffffffffffffffffffffffffff169060200190929190505050610b06565b005b34801561031557600080fd5b506103426004803603602081101561032c57600080fd5b8101908080359060200190929190505050610cc1565b604051808373ffffffffffffffffffffffffffffffffffffffff1673ffffffffffffffffffffffffffffffffffffffff1681526020018281526020019250505060405180910390f35b34801561039757600080fd5b506103a0610d05565b604051808273ffffffffffffffffffffffffffffffffffffffff1673ffffffffffffffffffffffffffffffffffffffff16815260200191505060405180910390f35b3480156103ee57600080fd5b506104316004803603602081101561040557600080fd5b81019080803573ffffffffffffffffffffffffffffffffffffffff169060200190929190505050610d2b565b005b34801561043f57600080fd5b50610448610e37565b604051808273ffffffffffffffffffffffffffffffffffffffff1673ffffffffffffffffffffffffffffffffffffffff16815260200191505060405180910390f35b6000809054906101000a900473ffffffffffffffffffffffffffffffffffffffff1681565b6000809054906101000a900473ffffffffffffffffffffffffffffffffffffffff1673ffffffffffffffffffffffffffffffffffffffff163373ffffffffffffffffffffffffffffffffffffffff1614610571576040517f08c379a00000000000000000000000000000000000000000000000000000000081526004018080602001828103825260168152602001807f736f7272792c20796f7520617265206e6f742063656f0000000000000000000081525060200191505060405180910390fd5b600073ffffffffffffffffffffffffffffffffffffffff168173ffffffffffffffffffffffffffffffffffffffff161415610614576040517f08c379a00000000000000000000000000000000000000000000000000000000081526004018080602001828103825260168152602001807f736f7272792c20796f7520617265206e6f742063656f0000000000000000000081525060200191505060405180910390fd5b806000806101000a81548173ffffffffffffffffffffffffffffffffffffffff021916908373ffffffffffffffffffffffffffffffffffffffff16021790555050565b6000809054906101000a900473ffffffffffffffffffffffffffffffffffffffff1673ffffffffffffffffffffffffffffffffffffffff163373ffffffffffffffffffffffffffffffffffffffff1614610719576040517f08c379a00000000000000000000000000000000000000000000000000000000081526004018080602001828103825260168152602001807f736f7272792c20796f7520617265206e6f742063656f0000000000000000000081525060200191505060405180910390fd5b600073ffffffffffffffffffffffffffffffffffffffff168173ffffffffffffffffffffffffffffffffffffffff1614156107bc576040517f08c379a00000000000000000000000000000000000000000000000000000000081526004018080602001828103825260168152602001807f736f7272792c20796f7520617265206e6f742063656f0000000000000000000081525060200191505060405180910390fd5b80600160006101000a81548173ffffffffffffffffffffffffffffffffffffffff021916908373ffffffffffffffffffffffffffffffffffffffff16021790555050565b600030905090565b600073ffffffffffffffffffffffffffffffffffffffff166002600083815260200190815260200160002060000160009054906101000a900473ffffffffffffffffffffffffffffffffffffffff1673ffffffffffffffffffffffffffffffffffffffff1614156108e1576040517f08c379a00000000000000000000000000000000000000000000000000000000081526004018080602001828103825260168152602001807f74686520746f6b656e206973206e6f742074686572650000000000000000000081525060200191505060405180910390fd5b6002600082815260200190815260200160002060010154341015610950576040517f08c379a000000000000000000000000000000000000000000000000000000000815260040180806020018281038252602a81526020018061111e602a913960400191505060405180910390fd5b600560009054906101000a900473ffffffffffffffffffffffffffffffffffffffff1673ffffffffffffffffffffffffffffffffffffffff166342842e0e6002600084815260200190815260200160002060000160009054906101000a900473ffffffffffffffffffffffffffffffffffffffff1633846040518463ffffffff1660e01b8152600401808473ffffffffffffffffffffffffffffffffffffffff1673ffffffffffffffffffffffffffffffffffffffff1681526020018373ffffffffffffffffffffffffffffffffffffffff1673ffffffffffffffffffffffffffffffffffffffff1681526020018281526020019350505050600060405180830381600087803b158015610a6357600080fd5b505af1158015610a77573d6000803e3d6000fd5b5050505060026000828152602001908152602001600020600080820160006101000a81549073ffffffffffffffffffffffffffffffffffffffff021916905560018201600090555050610ad4816003610e5d90919063ffffffff16565b5050565b6000610ae46003610e77565b905090565b6000610aff826003610e8c90919063ffffffff16565b9050919050565b3073ffffffffffffffffffffffffffffffffffffffff16600560009054906101000a900473ffffffffffffffffffffffffffffffffffffffff1673ffffffffffffffffffffffffffffffffffffffff1663081812fc856040518263ffffffff1660e01b81526004018082815260200191505060206040518083038186803b158015610b9057600080fd5b505afa158015610ba4573d6000803e3d6000fd5b505050506040513d6020811015610bba57600080fd5b810190808051906020019092919050505073ffffffffffffffffffffffffffffffffffffffff1614610c37576040517f08c379a000000000000000000000000000000000000000000000000000000000815260040180806020018281038252602c8152602001806110f2602c913960400191505060405180910390fd5b806002600085815260200190815260200160002060000160006101000a81548173ffffffffffffffffffffffffffffffffffffffff021916908373ffffffffffffffffffffffffffffffffffffffff160217905550816002600085815260200190815260200160002060010181905550610cbb836003610ea690919063ffffffff16565b50505050565b60026020528060005260406000206000915090508060000160009054906101000a900473ffffffffffffffffffffffffffffffffffffffff16908060010154905082565b600160009054906101000a900473ffffffffffffffffffffffffffffffffffffffff1681565b6000809054906101000a900473ffffffffffffffffffffffffffffffffffffffff1673ffffffffffffffffffffffffffffffffffffffff163373ffffffffffffffffffffffffffffffffffffffff1614610ded576040517f08c379a00000000000000000000000000000000000000000000000000000000081526004018080602001828103825260168152602001807f736f7272792c20796f7520617265206e6f742063656f0000000000000000000081525060200191505060405180910390fd5b600081905080600560006101000a81548173ffffffffffffffffffffffffffffffffffffffff021916908373ffffffffffffffffffffffffffffffffffffffff1602179055505050565b600560009054906101000a900473ffffffffffffffffffffffffffffffffffffffff1681565b6000610e6f836000018360001b610ec0565b905092915050565b6000610e8582600001610fa8565b9050919050565b6000610e9b8360000183610fb9565b60001c905092915050565b6000610eb8836000018360001b61103c565b905092915050565b60008083600101600084815260200190815260200160002054905060008114610f9c5760006001820390506000600186600001805490500390506000866000018281548110610f0b57fe5b9060005260206000200154905080876000018481548110610f2857fe5b9060005260206000200181905550600183018760010160008381526020019081526020016000208190555086600001805480610f6057fe5b60019003818190600052602060002001600090559055866001016000878152602001908152602001600020600090556001945050505050610fa2565b60009150505b92915050565b600081600001805490509050919050565b60008183600001805490501161101a576040517f08c379a00000000000000000000000000000000000000000000000000000000081526004018080602001828103825260228152602001806110d06022913960400191505060405180910390fd5b82600001828154811061102957fe5b9060005260206000200154905092915050565b600061104883836110ac565b6110a15782600001829080600181540180825580915050600190039060005260206000200160009091909190915055826000018054905083600101600084815260200190815260200160002081905550600190506110a6565b600090505b92915050565b60008083600101600084815260200190815260200160002054141590509291505056fe456e756d657261626c655365743a20696e646578206f7574206f6620626f756e6473796f75206469646e277420617070726f766520796f7572206c6f636b20746f2074686520636f6e7472616374796f7520646f6e27742070617920656e6f75676820707269636520746f2062757920746865206c6f636ba264697066735822122092e3b64c51450dc8c8e056e7b8d8df6d86f23f7b70cb3ba0cca91a6ccf40932264736f6c63430006080033",
  "immutableReferences": {},
  "source": "pragma solidity ^0.6.0;\r\nimport \"@openzeppelin/contracts/utils/EnumerableSet.sol\";\r\nimport \"@openzeppelin/contracts/token/ERC721/ERC721.sol\";\r\nimport \"./LoveLockAccessControl.sol\";\r\n\r\ncontract SaleLoveLock is LoveLockAccessControl {\r\n    using EnumerableSet for EnumerableSet.UintSet;\r\n    constructor() public {\r\n        ceoAddress = msg.sender;\r\n    }\r\n    mapping(uint256 => SaleLock) public tokenToSaleLocks;\r\n    // maintain the tokenId\r\n    EnumerableSet.UintSet toSellTokens;\r\n\r\n    struct SaleLock {\r\n        address owner;\r\n        uint price;\r\n    }\r\n\r\n    ERC721 public nonFungibleContract;\r\n\r\n    function setNonFungibleContract(address _nftAddress) public onlyCEO {\r\n        ERC721 candidateContract = ERC721(_nftAddress);\r\n        nonFungibleContract = candidateContract;\r\n    }\r\n\r\n    // user can buy Locks from the 'toSellTokens'\r\n    function buyLock(uint256 tokenId) payable public {\r\n        require(tokenToSaleLocks[tokenId].owner != 0x0000000000000000000000000000000000000000, \"the token is not there\");\r\n        // the price  offered by the user must be greater than {{lockPrice}}\r\n        require(msg.value >= tokenToSaleLocks[tokenId].price, \"you don't pay enough price to buy the lock\");\r\n        // deal! call the function transfer in the nonFungibleContract, since I have the approval, this won't be failed\r\n        nonFungibleContract.safeTransferFrom(tokenToSaleLocks[tokenId].owner, msg.sender, tokenId);\r\n        //delete it from the list and map\r\n        delete tokenToSaleLocks[tokenId];\r\n        toSellTokens.remove(tokenId);\r\n    }\r\n    // user or the other contract must do the approval of this contract firstly\r\n    function createSale(uint tokenId, uint price, address owner) public {\r\n        require(nonFungibleContract.getApproved(tokenId) == address(this), \"you didn't approve your lock to the contract\");\r\n        tokenToSaleLocks[tokenId].owner = owner;\r\n        tokenToSaleLocks[tokenId].price = price;\r\n        toSellTokens.add(tokenId);\r\n    }\r\n    // how many locks to sell\r\n    function getToSellLength() public view returns (uint){\r\n        return toSellTokens.length();\r\n    }\r\n    // get the saleLock information(price, owner)\r\n    function getSaleLock(uint index) public view returns (uint){\r\n        return toSellTokens.at(index);\r\n    }\r\n\r\n    function getContractAddress() public view returns (address) {\r\n        return address(this);\r\n    }\r\n}",
  "sourcePath": "D:\\blockchain\\blockChianSeminar\\solidity\\contracts\\SaleLoveLock.sol",
  "compiler": {
    "name": "solc",
    "version": "0.6.8+commit.0bbfe453.Emscripten.clang"
  },
  "schemaVersion": "3.1.0",
  "updatedAt": "2020-05-18T22:29:50.446Z",
  "networkType": "ethereum",
  "devdoc": {
    "methods": {}
  },
  "userdoc": {
    "methods": {}
  }
}