{
  "contractName": "SaleLoveLock",
  "abi": [
    {
      "inputs": [],
      "stateMutability": "nonpayable",
      "type": "constructor"
    },
    {
      "inputs": [],
      "name": "ceoAddress",
      "outputs": [
        {
          "internalType": "address",
          "name": "",
          "type": "address"
        }
      ],
      "stateMutability": "view",
      "type": "function"
    },
    {
      "inputs": [],
      "name": "cooAddress",
      "outputs": [
        {
          "internalType": "address",
          "name": "",
          "type": "address"
        }
      ],
      "stateMutability": "view",
      "type": "function"
    },
    {
      "inputs": [],
      "name": "nonFungibleContract",
      "outputs": [
        {
          "internalType": "contract ERC721",
          "name": "",
          "type": "address"
        }
      ],
      "stateMutability": "view",
      "type": "function"
    },
    {
      "inputs": [
        {
          "internalType": "address",
          "name": "_newCEO",
          "type": "address"
        }
      ],
      "name": "setCEO",
      "outputs": [],
      "stateMutability": "nonpayable",
      "type": "function"
    },
    {
      "inputs": [
        {
          "internalType": "address",
          "name": "_newCOO",
          "type": "address"
        }
      ],
      "name": "setCOO",
      "outputs": [],
      "stateMutability": "nonpayable",
      "type": "function"
    },
    {
      "inputs": [
        {
          "internalType": "uint256",
          "name": "",
          "type": "uint256"
        }
      ],
      "name": "toSellTokens",
      "outputs": [
        {
          "internalType": "uint256",
          "name": "",
          "type": "uint256"
        }
      ],
      "stateMutability": "view",
      "type": "function"
    },
    {
      "inputs": [
        {
          "internalType": "address",
          "name": "_nftAddress",
          "type": "address"
        }
      ],
      "name": "setNonFungibleContract",
      "outputs": [],
      "stateMutability": "nonpayable",
      "type": "function"
    },
    {
      "inputs": [
        {
          "internalType": "uint256",
          "name": "tokenId",
          "type": "uint256"
        }
      ],
      "name": "buyLock",
      "outputs": [],
      "stateMutability": "payable",
      "type": "function"
    },
    {
      "inputs": [
        {
          "internalType": "uint256",
          "name": "tokenId",
          "type": "uint256"
        },
        {
          "internalType": "uint256",
          "name": "price",
          "type": "uint256"
        },
        {
          "internalType": "address",
          "name": "owner",
          "type": "address"
        }
      ],
      "name": "createSale",
      "outputs": [],
      "stateMutability": "nonpayable",
      "type": "function"
    },
    {
      "inputs": [],
      "name": "getToSellLength",
      "outputs": [
        {
          "internalType": "uint256",
          "name": "",
          "type": "uint256"
        }
      ],
      "stateMutability": "view",
      "type": "function"
    }
  ],
  "bytecode": "0x608060405234801561001057600080fd5b50336000806101000a81548173ffffffffffffffffffffffffffffffffffffffff021916908373ffffffffffffffffffffffffffffffffffffffff160217905550610d68806100606000396000f3fe6080604052600436106100915760003560e01c8063780c8a8211610059578063780c8a82146101e8578063995cd65314610237578063b047fb501461029c578063b174f10d146102f3578063dd1b7a0f1461034457610091565b80630a0f81681461009657806327d7874c146100ed5780632ba73c151461013e5780634de9ab1e1461018f57806366e2f869146101bd575b600080fd5b3480156100a257600080fd5b506100ab61039b565b604051808273ffffffffffffffffffffffffffffffffffffffff1673ffffffffffffffffffffffffffffffffffffffff16815260200191505060405180910390f35b3480156100f957600080fd5b5061013c6004803603602081101561011057600080fd5b81019080803573ffffffffffffffffffffffffffffffffffffffff1690602001909291905050506103c0565b005b34801561014a57600080fd5b5061018d6004803603602081101561016157600080fd5b81019080803573ffffffffffffffffffffffffffffffffffffffff169060200190929190505050610568565b005b6101bb600480360360208110156101a557600080fd5b8101908080359060200190929190505050610711565b005b3480156101c957600080fd5b506101d2610987565b6040518082815260200191505060405180910390f35b3480156101f457600080fd5b506102216004803603602081101561020b57600080fd5b8101908080359060200190929190505050610994565b6040518082815260200191505060405180910390f35b34801561024357600080fd5b5061029a6004803603606081101561025a57600080fd5b810190808035906020019092919080359060200190929190803573ffffffffffffffffffffffffffffffffffffffff1690602001909291905050506109b5565b005b3480156102a857600080fd5b506102b1610b84565b604051808273ffffffffffffffffffffffffffffffffffffffff1673ffffffffffffffffffffffffffffffffffffffff16815260200191505060405180910390f35b3480156102ff57600080fd5b506103426004803603602081101561031657600080fd5b81019080803573ffffffffffffffffffffffffffffffffffffffff169060200190929190505050610baa565b005b34801561035057600080fd5b50610359610cb6565b604051808273ffffffffffffffffffffffffffffffffffffffff1673ffffffffffffffffffffffffffffffffffffffff16815260200191505060405180910390f35b6000809054906101000a900473ffffffffffffffffffffffffffffffffffffffff1681565b6000809054906101000a900473ffffffffffffffffffffffffffffffffffffffff1673ffffffffffffffffffffffffffffffffffffffff163373ffffffffffffffffffffffffffffffffffffffff1614610482576040517f08c379a00000000000000000000000000000000000000000000000000000000081526004018080602001828103825260168152602001807f736f7272792c20796f7520617265206e6f742063656f0000000000000000000081525060200191505060405180910390fd5b600073ffffffffffffffffffffffffffffffffffffffff168173ffffffffffffffffffffffffffffffffffffffff161415610525576040517f08c379a00000000000000000000000000000000000000000000000000000000081526004018080602001828103825260168152602001807f736f7272792c20796f7520617265206e6f742063656f0000000000000000000081525060200191505060405180910390fd5b806000806101000a81548173ffffffffffffffffffffffffffffffffffffffff021916908373ffffffffffffffffffffffffffffffffffffffff16021790555050565b6000809054906101000a900473ffffffffffffffffffffffffffffffffffffffff1673ffffffffffffffffffffffffffffffffffffffff163373ffffffffffffffffffffffffffffffffffffffff161461062a576040517f08c379a00000000000000000000000000000000000000000000000000000000081526004018080602001828103825260168152602001807f736f7272792c20796f7520617265206e6f742063656f0000000000000000000081525060200191505060405180910390fd5b600073ffffffffffffffffffffffffffffffffffffffff168173ffffffffffffffffffffffffffffffffffffffff1614156106cd576040517f08c379a00000000000000000000000000000000000000000000000000000000081526004018080602001828103825260168152602001807f736f7272792c20796f7520617265206e6f742063656f0000000000000000000081525060200191505060405180910390fd5b80600160006101000a81548173ffffffffffffffffffffffffffffffffffffffff021916908373ffffffffffffffffffffffffffffffffffffffff16021790555050565b600073ffffffffffffffffffffffffffffffffffffffff166003600083815260200190815260200160002060000160009054906101000a900473ffffffffffffffffffffffffffffffffffffffff1673ffffffffffffffffffffffffffffffffffffffff1614156107ea576040517f08c379a00000000000000000000000000000000000000000000000000000000081526004018080602001828103825260168152602001807f74686520746f6b656e206973206e6f742074686572650000000000000000000081525060200191505060405180910390fd5b6003600082815260200190815260200160002060010154341015610859576040517f08c379a000000000000000000000000000000000000000000000000000000000815260040180806020018281038252602a815260200180610d09602a913960400191505060405180910390fd5b600460009054906101000a900473ffffffffffffffffffffffffffffffffffffffff1673ffffffffffffffffffffffffffffffffffffffff166342842e0e6003600084815260200190815260200160002060000160009054906101000a900473ffffffffffffffffffffffffffffffffffffffff1633846040518463ffffffff1660e01b8152600401808473ffffffffffffffffffffffffffffffffffffffff1673ffffffffffffffffffffffffffffffffffffffff1681526020018373ffffffffffffffffffffffffffffffffffffffff1673ffffffffffffffffffffffffffffffffffffffff1681526020018281526020019350505050600060405180830381600087803b15801561096c57600080fd5b505af1158015610980573d6000803e3d6000fd5b5050505050565b6000600280549050905090565b600281815481106109a157fe5b906000526020600020016000915090505481565b3073ffffffffffffffffffffffffffffffffffffffff16600460009054906101000a900473ffffffffffffffffffffffffffffffffffffffff1673ffffffffffffffffffffffffffffffffffffffff1663081812fc856040518263ffffffff1660e01b81526004018082815260200191505060206040518083038186803b158015610a3f57600080fd5b505afa158015610a53573d6000803e3d6000fd5b505050506040513d6020811015610a6957600080fd5b810190808051906020019092919050505073ffffffffffffffffffffffffffffffffffffffff1614610ae6576040517f08c379a000000000000000000000000000000000000000000000000000000000815260040180806020018281038252602c815260200180610cdd602c913960400191505060405180910390fd5b806003600085815260200190815260200160002060000160006101000a81548173ffffffffffffffffffffffffffffffffffffffff021916908373ffffffffffffffffffffffffffffffffffffffff1602179055508160036000858152602001908152602001600020600101819055506002839080600181540180825580915050600190039060005260206000200160009091909190915055505050565b600160009054906101000a900473ffffffffffffffffffffffffffffffffffffffff1681565b6000809054906101000a900473ffffffffffffffffffffffffffffffffffffffff1673ffffffffffffffffffffffffffffffffffffffff163373ffffffffffffffffffffffffffffffffffffffff1614610c6c576040517f08c379a00000000000000000000000000000000000000000000000000000000081526004018080602001828103825260168152602001807f736f7272792c20796f7520617265206e6f742063656f0000000000000000000081525060200191505060405180910390fd5b600081905080600460006101000a81548173ffffffffffffffffffffffffffffffffffffffff021916908373ffffffffffffffffffffffffffffffffffffffff1602179055505050565b600460009054906101000a900473ffffffffffffffffffffffffffffffffffffffff168156fe796f75206469646e277420617070726f766520796f7572206c6f636b20746f2074686520636f6e7472616374796f7520646f6e27742070617920656e6f75676820707269636520746f2062757920746865206c6f636ba2646970667358221220fd83a1135ac47c93992054fbdbff69d2312a849ca049fba47262b1e86b6546da64736f6c63430006080033",
  "immutableReferences": {},
  "source": "pragma solidity ^0.6.0;\r\n\r\nimport \"./LoveLockAccessControl.sol\";\r\nimport \"@openzeppelin/contracts/token/ERC721/ERC721.sol\";\r\n\r\ncontract LoveLockBase is LoveLockAccessControl, ERC721 {\r\n    /*** DEFINE THE STRUCT OF LOVELOCK ***/\r\n    constructor() ERC721(\"Love Lock\", \"LL\") public {\r\n        ceoAddress = msg.sender;\r\n        _setBaseURI(\"https://sstshenshutao.github.io/\");\r\n        // the defaultCreationPrice\r\n        defaultPrice = 1 finney;\r\n    }\r\n    struct LoveLock {\r\n        string title;\r\n        string[] notes;\r\n        uint32 currentLength;\r\n        uint32 notesLimit;\r\n        uint32 styleId;\r\n        int128 slotPos; //-1 for not hung\r\n    }\r\n\r\n    //    struct Couple {\r\n    //        address me;\r\n    //        address lover;\r\n    //    }\r\n\r\n    /*** STORAGE ***/\r\n\r\n    // save all of the LLs\r\n    mapping(uint256 => LoveLock) public loveLocks;\r\n    uint256 public numLoveLocks; // An integer storing the total number of LLs, use for create the LLs(together with mapping)\r\n    //     the mapper that maintain the usedSlot   (slot:true/false)\r\n    mapping(int128 => bool) public usedSlot;\r\n    //     the mapper that maintain the   (slot:tokenID), for quick retrieval\r\n    mapping(int128 => uint256) slotToToken;\r\n    // LLs => address(owner)\r\n    // replaced by ownerOf:   mapping(uint256 => address) public loveLockIndexToOwner;\r\n    //the count of LLs this address has.\r\n    // replaced by balanceOf:   mapping(address => uint256) ownershipTokenCount;\r\n    // the Lock can be transferred from one of the couple.\r\n    //    mapping(uint256 => Couple) public lockIndexToApproved;\r\n    /*** modifier ***/\r\n\r\n    /*** FUNCTIONS ***/\r\n    // todo: expose the public functions based on the internal functions\r\n    // todo: the convenient methods(form LoveLock.sol need to integrate here)\r\n    /*** those functions have no requirement, need to be implemented in the layer -- finished, they are public and safe***/\r\n    function deleteLock(uint256 tokenId) public {\r\n        require(_isApprovedOrOwner(_msgSender(), tokenId), \"you are not the owner or approver\");\r\n        _burn(tokenId);\r\n        delete loveLocks[tokenId];\r\n    }\r\n    //  add note to a love lock\r\n    function addNote(uint256 tokenId, string memory note) public {\r\n        require(_isApprovedOrOwner(_msgSender(), tokenId), \"you are not the owner or approver\");\r\n        require(loveLocks[tokenId].currentLength < loveLocks[tokenId].notesLimit, \"you are not the owner or approver\");\r\n        loveLocks[tokenId].notes.push(note);\r\n        loveLocks[tokenId].currentLength++;\r\n    }\r\n    //  getNote of the ll\r\n    function getNote(uint tokenId, uint index) public view returns (string memory) {\r\n        return loveLocks[tokenId].notes[index];\r\n    }\r\n    //  hang LL, -1 for pull down\r\n    function hangLL(uint tokenId, int128 slotId) public {\r\n        require(_isApprovedOrOwner(_msgSender(), tokenId), \"you are not the owner or approver\");\r\n        // this slot must not be taken by other users\r\n        require(!usedSlot[slotId], \"this is already taken by others\");\r\n        // remove the previous used slot, if exists\r\n        require(slotId >= - 1, \"slotID must >= -1\");\r\n        int128 slotIndex = loveLocks[tokenId].slotPos;\r\n        if (slotIndex > - 1) {\r\n            usedSlot[slotIndex] = false;\r\n        }\r\n        // add a new slot\r\n        if (slotId != - 1) {\r\n            usedSlot[slotId] = true;\r\n            loveLocks[tokenId].slotPos = slotId;\r\n            slotToToken[slotId] = tokenId;\r\n        }\r\n    }\r\n    // must use getMethod usedSlot first, and then getLockOnSlot(slotID)\r\n    function getLockOnSlot(int128 slotId) public view returns (uint) {\r\n        require(usedSlot[slotId], \"this slot is not used\");\r\n        return slotToToken[slotId];\r\n    }\r\n    /*** sale method***/\r\n    // ------------------sale storage --------------\r\n    // the smart contract of selling the LLs\r\n    SaleLoveLock public saleContract;\r\n    // the defaultCreationPrice\r\n    uint256 public defaultPrice;\r\n\r\n    function setSaleContractAddress(address _address) public onlyCEO {\r\n        SaleLoveLock newSaleContract = SaleLoveLock(_address);\r\n        // Set the new contract address\r\n        saleContract = newSaleContract;\r\n    }\r\n    // the smart contract creates LLs for sell\r\n    function createLLtoSell(uint32 styleId, uint32 notesLimit) payable public onlyCLevel {\r\n        require(msg.value >= defaultPrice, \"Hi, ceo/coo, you must give 1 finney to start the creation of the LL\");\r\n        // save the LoveLock temporally in CLevel account\r\n        uint newTokenID = createLL(styleId, notesLimit, _msgSender());\r\n        // give the approval to the saleContract, so that the saleContract can transfer it\r\n        approve(address(saleContract), newTokenID);\r\n        // let saleContract sell the tokens\r\n        saleContract.createSale(newTokenID, 2 ether, _msgSender());\r\n    }\r\n\r\n    // create love lock, return the new ID of token LL, use for generate ll, or directly give ll to one user.\r\n    function createLL(uint32 styleId, uint32 notesLimit, address owner) public onlyCLevel returns (uint){\r\n        // to ensure our data structures are always valid.\r\n        require(styleId == uint256(uint32(styleId)));\r\n        require(notesLimit == uint256(uint32(notesLimit)));\r\n        //create process:\r\n        //create token\r\n        uint256 newLoveLockID = numLoveLocks;\r\n        require(newLoveLockID == uint256(uint32(newLoveLockID)));\r\n        //here !! call transfer from address(0) to _owner, which means creation of token\r\n        _safeMint(owner, newLoveLockID);\r\n        //create LL\r\n        LoveLock storage _loveLock = loveLocks[numLoveLocks];\r\n        _loveLock.notesLimit = notesLimit;\r\n        _loveLock.styleId = styleId;\r\n        _loveLock.slotPos = 0 - 1;\r\n        numLoveLocks++;\r\n        // emit our Create event to show we mint a LoveLock(different with token transfer event above!!!)\r\n        emit Create(owner, newLoveLockID);\r\n        return newLoveLockID;\r\n    }\r\n\r\n    /*** EVENTS ***/\r\n    event Create(address owner, uint256 tokenId);\r\n}\r\n\r\ncontract SaleLoveLock is LoveLockAccessControl {\r\n    constructor() public {\r\n        ceoAddress = msg.sender;\r\n    }\r\n    uint256[] public toSellTokens;\r\n    mapping(uint256 => SaleLock) tokenToSaleLocks;\r\n\r\n    struct SaleLock {\r\n        address owner;\r\n        uint price;\r\n    }\r\n\r\n    ERC721 public nonFungibleContract;\r\n\r\n    function setNonFungibleContract(address _nftAddress) public onlyCEO {\r\n        ERC721 candidateContract = ERC721(_nftAddress);\r\n        nonFungibleContract = candidateContract;\r\n    }\r\n\r\n    // user can buy Locks from the 'toSellTokens'\r\n    function buyLock(uint256 tokenId) payable public {\r\n        require(tokenToSaleLocks[tokenId].owner != 0x0000000000000000000000000000000000000000, \"the token is not there\");\r\n        // the price  offered by the user must be greater than {{lockPrice}}\r\n        require(msg.value >= tokenToSaleLocks[tokenId].price, \"you don't pay enough price to buy the lock\");\r\n        // deal! call the function transfer in the nonFungibleContract, since I have the approval, this won't be failed\r\n        nonFungibleContract.safeTransferFrom(tokenToSaleLocks[tokenId].owner, msg.sender, tokenId);\r\n    }\r\n    // user or the other contract must do the approval of this contract firstly\r\n    function createSale(uint tokenId, uint price, address owner) public {\r\n        require(nonFungibleContract.getApproved(tokenId) == address(this), \"you didn't approve your lock to the contract\");\r\n        tokenToSaleLocks[tokenId].owner = owner;\r\n        tokenToSaleLocks[tokenId].price = price;\r\n        toSellTokens.push(tokenId);\r\n    }\r\n    // how many locks to sell\r\n    function getToSellLength() public view returns (uint){\r\n        return toSellTokens.length;\r\n    }\r\n}",
  "sourcePath": "D:\\blockchain\\blockChianSeminar\\solidity\\contracts\\LoveLockBase.sol",
  "compiler": {
    "name": "solc",
    "version": "0.6.8+commit.0bbfe453.Emscripten.clang"
  },
  "schemaVersion": "3.1.0",
  "updatedAt": "2020-05-17T20:16:25.904Z",
  "devdoc": {
    "methods": {}
  },
  "userdoc": {
    "methods": {}
  }
}