{
  "contractName": "LoveLockBase",
  "abi": [
    {
      "inputs": [],
      "stateMutability": "nonpayable",
      "type": "constructor"
    },
    {
      "anonymous": false,
      "inputs": [
        {
          "indexed": true,
          "internalType": "address",
          "name": "owner",
          "type": "address"
        },
        {
          "indexed": true,
          "internalType": "address",
          "name": "approved",
          "type": "address"
        },
        {
          "indexed": true,
          "internalType": "uint256",
          "name": "tokenId",
          "type": "uint256"
        }
      ],
      "name": "Approval",
      "type": "event"
    },
    {
      "anonymous": false,
      "inputs": [
        {
          "indexed": true,
          "internalType": "address",
          "name": "owner",
          "type": "address"
        },
        {
          "indexed": true,
          "internalType": "address",
          "name": "operator",
          "type": "address"
        },
        {
          "indexed": false,
          "internalType": "bool",
          "name": "approved",
          "type": "bool"
        }
      ],
      "name": "ApprovalForAll",
      "type": "event"
    },
    {
      "anonymous": false,
      "inputs": [
        {
          "indexed": false,
          "internalType": "address",
          "name": "owner",
          "type": "address"
        },
        {
          "indexed": false,
          "internalType": "uint256",
          "name": "tokenId",
          "type": "uint256"
        }
      ],
      "name": "Create",
      "type": "event"
    },
    {
      "anonymous": false,
      "inputs": [
        {
          "indexed": true,
          "internalType": "address",
          "name": "from",
          "type": "address"
        },
        {
          "indexed": true,
          "internalType": "address",
          "name": "to",
          "type": "address"
        },
        {
          "indexed": true,
          "internalType": "uint256",
          "name": "tokenId",
          "type": "uint256"
        }
      ],
      "name": "Transfer",
      "type": "event"
    },
    {
      "inputs": [
        {
          "internalType": "address",
          "name": "to",
          "type": "address"
        },
        {
          "internalType": "uint256",
          "name": "tokenId",
          "type": "uint256"
        }
      ],
      "name": "approve",
      "outputs": [],
      "stateMutability": "nonpayable",
      "type": "function"
    },
    {
      "inputs": [
        {
          "internalType": "address",
          "name": "owner",
          "type": "address"
        }
      ],
      "name": "balanceOf",
      "outputs": [
        {
          "internalType": "uint256",
          "name": "",
          "type": "uint256"
        }
      ],
      "stateMutability": "view",
      "type": "function",
      "constant": true
    },
    {
      "inputs": [],
      "name": "baseURI",
      "outputs": [
        {
          "internalType": "string",
          "name": "",
          "type": "string"
        }
      ],
      "stateMutability": "view",
      "type": "function",
      "constant": true
    },
    {
      "inputs": [],
      "name": "ceoAddress",
      "outputs": [
        {
          "internalType": "address",
          "name": "",
          "type": "address"
        }
      ],
      "stateMutability": "view",
      "type": "function",
      "constant": true
    },
    {
      "inputs": [],
      "name": "cooAddress",
      "outputs": [
        {
          "internalType": "address",
          "name": "",
          "type": "address"
        }
      ],
      "stateMutability": "view",
      "type": "function",
      "constant": true
    },
    {
      "inputs": [],
      "name": "defaultPrice",
      "outputs": [
        {
          "internalType": "uint256",
          "name": "",
          "type": "uint256"
        }
      ],
      "stateMutability": "view",
      "type": "function",
      "constant": true
    },
    {
      "inputs": [
        {
          "internalType": "uint256",
          "name": "tokenId",
          "type": "uint256"
        }
      ],
      "name": "getApproved",
      "outputs": [
        {
          "internalType": "address",
          "name": "",
          "type": "address"
        }
      ],
      "stateMutability": "view",
      "type": "function",
      "constant": true
    },
    {
      "inputs": [
        {
          "internalType": "address",
          "name": "owner",
          "type": "address"
        },
        {
          "internalType": "address",
          "name": "operator",
          "type": "address"
        }
      ],
      "name": "isApprovedForAll",
      "outputs": [
        {
          "internalType": "bool",
          "name": "",
          "type": "bool"
        }
      ],
      "stateMutability": "view",
      "type": "function",
      "constant": true
    },
    {
      "inputs": [
        {
          "internalType": "uint256",
          "name": "",
          "type": "uint256"
        }
      ],
      "name": "loveLocks",
      "outputs": [
        {
          "internalType": "string",
          "name": "title",
          "type": "string"
        },
        {
          "internalType": "uint32",
          "name": "currentLength",
          "type": "uint32"
        },
        {
          "internalType": "uint32",
          "name": "notesLimit",
          "type": "uint32"
        },
        {
          "internalType": "uint32",
          "name": "styleId",
          "type": "uint32"
        },
        {
          "internalType": "uint256",
          "name": "slotPos",
          "type": "uint256"
        }
      ],
      "stateMutability": "view",
      "type": "function",
      "constant": true
    },
    {
      "inputs": [],
      "name": "name",
      "outputs": [
        {
          "internalType": "string",
          "name": "",
          "type": "string"
        }
      ],
      "stateMutability": "view",
      "type": "function",
      "constant": true
    },
    {
      "inputs": [],
      "name": "numLoveLocks",
      "outputs": [
        {
          "internalType": "uint256",
          "name": "",
          "type": "uint256"
        }
      ],
      "stateMutability": "view",
      "type": "function",
      "constant": true
    },
    {
      "inputs": [
        {
          "internalType": "uint256",
          "name": "tokenId",
          "type": "uint256"
        }
      ],
      "name": "ownerOf",
      "outputs": [
        {
          "internalType": "address",
          "name": "",
          "type": "address"
        }
      ],
      "stateMutability": "view",
      "type": "function",
      "constant": true
    },
    {
      "inputs": [
        {
          "internalType": "address",
          "name": "from",
          "type": "address"
        },
        {
          "internalType": "address",
          "name": "to",
          "type": "address"
        },
        {
          "internalType": "uint256",
          "name": "tokenId",
          "type": "uint256"
        }
      ],
      "name": "safeTransferFrom",
      "outputs": [],
      "stateMutability": "nonpayable",
      "type": "function"
    },
    {
      "inputs": [
        {
          "internalType": "address",
          "name": "from",
          "type": "address"
        },
        {
          "internalType": "address",
          "name": "to",
          "type": "address"
        },
        {
          "internalType": "uint256",
          "name": "tokenId",
          "type": "uint256"
        },
        {
          "internalType": "bytes",
          "name": "_data",
          "type": "bytes"
        }
      ],
      "name": "safeTransferFrom",
      "outputs": [],
      "stateMutability": "nonpayable",
      "type": "function"
    },
    {
      "inputs": [],
      "name": "saleContract",
      "outputs": [
        {
          "internalType": "contract SaleLoveLock",
          "name": "",
          "type": "address"
        }
      ],
      "stateMutability": "view",
      "type": "function",
      "constant": true
    },
    {
      "inputs": [
        {
          "internalType": "address",
          "name": "operator",
          "type": "address"
        },
        {
          "internalType": "bool",
          "name": "approved",
          "type": "bool"
        }
      ],
      "name": "setApprovalForAll",
      "outputs": [],
      "stateMutability": "nonpayable",
      "type": "function"
    },
    {
      "inputs": [
        {
          "internalType": "address",
          "name": "_newCEO",
          "type": "address"
        }
      ],
      "name": "setCEO",
      "outputs": [],
      "stateMutability": "nonpayable",
      "type": "function"
    },
    {
      "inputs": [
        {
          "internalType": "address",
          "name": "_newCOO",
          "type": "address"
        }
      ],
      "name": "setCOO",
      "outputs": [],
      "stateMutability": "nonpayable",
      "type": "function"
    },
    {
      "inputs": [
        {
          "internalType": "bytes4",
          "name": "interfaceId",
          "type": "bytes4"
        }
      ],
      "name": "supportsInterface",
      "outputs": [
        {
          "internalType": "bool",
          "name": "",
          "type": "bool"
        }
      ],
      "stateMutability": "view",
      "type": "function",
      "constant": true
    },
    {
      "inputs": [],
      "name": "symbol",
      "outputs": [
        {
          "internalType": "string",
          "name": "",
          "type": "string"
        }
      ],
      "stateMutability": "view",
      "type": "function",
      "constant": true
    },
    {
      "inputs": [
        {
          "internalType": "uint256",
          "name": "index",
          "type": "uint256"
        }
      ],
      "name": "tokenByIndex",
      "outputs": [
        {
          "internalType": "uint256",
          "name": "",
          "type": "uint256"
        }
      ],
      "stateMutability": "view",
      "type": "function",
      "constant": true
    },
    {
      "inputs": [
        {
          "internalType": "address",
          "name": "owner",
          "type": "address"
        },
        {
          "internalType": "uint256",
          "name": "index",
          "type": "uint256"
        }
      ],
      "name": "tokenOfOwnerByIndex",
      "outputs": [
        {
          "internalType": "uint256",
          "name": "",
          "type": "uint256"
        }
      ],
      "stateMutability": "view",
      "type": "function",
      "constant": true
    },
    {
      "inputs": [
        {
          "internalType": "uint256",
          "name": "tokenId",
          "type": "uint256"
        }
      ],
      "name": "tokenURI",
      "outputs": [
        {
          "internalType": "string",
          "name": "",
          "type": "string"
        }
      ],
      "stateMutability": "view",
      "type": "function",
      "constant": true
    },
    {
      "inputs": [],
      "name": "totalSupply",
      "outputs": [
        {
          "internalType": "uint256",
          "name": "",
          "type": "uint256"
        }
      ],
      "stateMutability": "view",
      "type": "function",
      "constant": true
    },
    {
      "inputs": [
        {
          "internalType": "address",
          "name": "from",
          "type": "address"
        },
        {
          "internalType": "address",
          "name": "to",
          "type": "address"
        },
        {
          "internalType": "uint256",
          "name": "tokenId",
          "type": "uint256"
        }
      ],
      "name": "transferFrom",
      "outputs": [],
      "stateMutability": "nonpayable",
      "type": "function"
    },
    {
      "inputs": [],
      "name": "getContractAddress",
      "outputs": [
        {
          "internalType": "address",
          "name": "",
          "type": "address"
        }
      ],
      "stateMutability": "view",
      "type": "function",
      "constant": true
    },
    {
      "inputs": [
        {
          "internalType": "uint256",
          "name": "tokenId",
          "type": "uint256"
        }
      ],
      "name": "deleteLock",
      "outputs": [],
      "stateMutability": "nonpayable",
      "type": "function"
    },
    {
      "inputs": [
        {
          "internalType": "uint256",
          "name": "tokenId",
          "type": "uint256"
        },
        {
          "internalType": "string",
          "name": "note",
          "type": "string"
        }
      ],
      "name": "addNote",
      "outputs": [],
      "stateMutability": "nonpayable",
      "type": "function"
    },
    {
      "inputs": [
        {
          "internalType": "uint256",
          "name": "tokenId",
          "type": "uint256"
        },
        {
          "internalType": "uint256",
          "name": "index",
          "type": "uint256"
        }
      ],
      "name": "getNote",
      "outputs": [
        {
          "internalType": "string",
          "name": "",
          "type": "string"
        }
      ],
      "stateMutability": "view",
      "type": "function",
      "constant": true
    },
    {
      "inputs": [
        {
          "internalType": "uint256",
          "name": "tokenId",
          "type": "uint256"
        },
        {
          "internalType": "uint256",
          "name": "slotId",
          "type": "uint256"
        }
      ],
      "name": "hangLL",
      "outputs": [],
      "stateMutability": "nonpayable",
      "type": "function"
    },
    {
      "inputs": [],
      "name": "getUsedSlotLength",
      "outputs": [
        {
          "internalType": "uint256",
          "name": "",
          "type": "uint256"
        }
      ],
      "stateMutability": "view",
      "type": "function",
      "constant": true
    },
    {
      "inputs": [
        {
          "internalType": "uint256",
          "name": "nth",
          "type": "uint256"
        }
      ],
      "name": "getUsedSlot",
      "outputs": [
        {
          "internalType": "uint256",
          "name": "",
          "type": "uint256"
        }
      ],
      "stateMutability": "view",
      "type": "function",
      "constant": true
    },
    {
      "inputs": [
        {
          "internalType": "uint256",
          "name": "slotId",
          "type": "uint256"
        }
      ],
      "name": "getLockOnSlot",
      "outputs": [
        {
          "internalType": "uint256",
          "name": "",
          "type": "uint256"
        }
      ],
      "stateMutability": "view",
      "type": "function",
      "constant": true
    },
    {
      "inputs": [
        {
          "internalType": "address",
          "name": "_address",
          "type": "address"
        }
      ],
      "name": "setSaleContractAddress",
      "outputs": [],
      "stateMutability": "nonpayable",
      "type": "function"
    },
    {
      "inputs": [
        {
          "internalType": "uint32",
          "name": "styleId",
          "type": "uint32"
        },
        {
          "internalType": "uint32",
          "name": "notesLimit",
          "type": "uint32"
        }
      ],
      "name": "createLLtoSell",
      "outputs": [],
      "stateMutability": "payable",
      "type": "function",
      "payable": true
    },
    {
      "inputs": [
        {
          "internalType": "uint32",
          "name": "styleId",
          "type": "uint32"
        },
        {
          "internalType": "uint32",
          "name": "notesLimit",
          "type": "uint32"
        },
        {
          "internalType": "address",
          "name": "owner",
          "type": "address"
        }
      ],
      "name": "createLL",
      "outputs": [
        {
          "internalType": "uint256",
          "name": "",
          "type": "uint256"
        }
      ],
      "stateMutability": "nonpayable",
      "type": "function"
    }
  ],
  "bytecode": "0x60806040523480156200001157600080fd5b506040518060400160405280600981526020017f4c6f7665204c6f636b00000000000000000000000000000000000000000000008152506040518060400160405280600281526020017f4c4c000000000000000000000000000000000000000000000000000000000000815250620000966301ffc9a760e01b620001ac60201b60201c565b8160089080519060200190620000ae929190620002d2565b508060099080519060200190620000c7929190620002d2565b50620000e06380ac58cd60e01b620001ac60201b60201c565b620000f8635b5e139f60e01b620001ac60201b60201c565b6200011063780e9d6360e01b620001ac60201b60201c565b5050336000806101000a81548173ffffffffffffffffffffffffffffffffffffffff021916908373ffffffffffffffffffffffffffffffffffffffff160217905550620001986040518060400160405280602081526020017f68747470733a2f2f7373747368656e73687574616f2e6769746875622e696f2f815250620002b660201b60201c565b66038d7ea4c6800060128190555062000381565b63ffffffff60e01b817bffffffffffffffffffffffffffffffffffffffffffffffffffffffff1916141562000249576040517f08c379a000000000000000000000000000000000000000000000000000000000815260040180806020018281038252601c8152602001807f4552433136353a20696e76616c696420696e746572666163652069640000000081525060200191505060405180910390fd5b600160026000837bffffffffffffffffffffffffffffffffffffffffffffffffffffffff19167bffffffffffffffffffffffffffffffffffffffffffffffffffffffff1916815260200190815260200160002060006101000a81548160ff02191690831515021790555050565b80600b9080519060200190620002ce929190620002d2565b5050565b828054600181600116156101000203166002900490600052602060002090601f016020900481019282601f106200031557805160ff191683800117855562000346565b8280016001018555821562000346579182015b828111156200034557825182559160200191906001019062000328565b5b50905062000355919062000359565b5090565b6200037e91905b808211156200037a57600081600090555060010162000360565b5090565b90565b61471380620003916000396000f3fe60806040526004361061020f5760003560e01c80636fc6c81911610118578063c82a808a116100a0578063ddc2be0f1161006f578063ddc2be0f14611040578063e69e04b314611084578063e985e9c5146110af578063ec4cbb2014611138578063f23e9a02146111635761020f565b8063c82a808a14610e26578063c87b56dd14610e77578063daf6ca3014610f2b578063db491e8014610f825761020f565b80639d51d88a116100e75780639d51d88a14610b09578063a22cb46514610b8e578063b047fb5014610beb578063b88d4fde14610c42578063bc4da87914610d545761020f565b80636fc6c8191461099a57806370a08231146109c55780637940e03314610a2a57806395d89b4114610a795761020f565b80632f745c591161019b5780634f6ccce71161016a5780634f6ccce7146107075780636352211e14610756578063641f2fb2146107d15780636c0360eb146108c55780636fb9b12e146109555761020f565b80632f745c591461058b57806332a2c5d0146105fa57806333790ba31461065157806342842e0e1461068c5761020f565b80630a0f8168116101e25780630a0f8168146103ec57806318160ddd1461044357806323b872dd1461046e57806327d7874c146104e95780632ba73c151461053a5761020f565b806301ffc9a71461021457806306fdde0314610286578063081812fc14610316578063095ea7b314610391575b600080fd5b34801561022057600080fd5b5061026c6004803603602081101561023757600080fd5b8101908080357bffffffffffffffffffffffffffffffffffffffffffffffffffffffff191690602001909291905050506111b2565b604051808215151515815260200191505060405180910390f35b34801561029257600080fd5b5061029b61121a565b6040518080602001828103825283818151815260200191508051906020019080838360005b838110156102db5780820151818401526020810190506102c0565b50505050905090810190601f1680156103085780820380516001836020036101000a031916815260200191505b509250505060405180910390f35b34801561032257600080fd5b5061034f6004803603602081101561033957600080fd5b81019080803590602001909291905050506112bc565b604051808273ffffffffffffffffffffffffffffffffffffffff1673ffffffffffffffffffffffffffffffffffffffff16815260200191505060405180910390f35b34801561039d57600080fd5b506103ea600480360360408110156103b457600080fd5b81019080803573ffffffffffffffffffffffffffffffffffffffff16906020019092919080359060200190929190505050611357565b005b3480156103f857600080fd5b5061040161149b565b604051808273ffffffffffffffffffffffffffffffffffffffff1673ffffffffffffffffffffffffffffffffffffffff16815260200191505060405180910390f35b34801561044f57600080fd5b506104586114c0565b6040518082815260200191505060405180910390f35b34801561047a57600080fd5b506104e76004803603606081101561049157600080fd5b81019080803573ffffffffffffffffffffffffffffffffffffffff169060200190929190803573ffffffffffffffffffffffffffffffffffffffff169060200190929190803590602001909291905050506114d1565b005b3480156104f557600080fd5b506105386004803603602081101561050c57600080fd5b81019080803573ffffffffffffffffffffffffffffffffffffffff169060200190929190505050611547565b005b34801561054657600080fd5b506105896004803603602081101561055d57600080fd5b81019080803573ffffffffffffffffffffffffffffffffffffffff1690602001909291905050506116ef565b005b34801561059757600080fd5b506105e4600480360360408110156105ae57600080fd5b81019080803573ffffffffffffffffffffffffffffffffffffffff16906020019092919080359060200190929190505050611898565b6040518082815260200191505060405180910390f35b34801561060657600080fd5b5061060f6118f3565b604051808273ffffffffffffffffffffffffffffffffffffffff1673ffffffffffffffffffffffffffffffffffffffff16815260200191505060405180910390f35b34801561065d57600080fd5b5061068a6004803603602081101561067457600080fd5b81019080803590602001909291905050506118fb565b005b34801561069857600080fd5b50610705600480360360608110156106af57600080fd5b81019080803573ffffffffffffffffffffffffffffffffffffffff169060200190929190803573ffffffffffffffffffffffffffffffffffffffff169060200190929190803590602001909291905050506119f0565b005b34801561071357600080fd5b506107406004803603602081101561072a57600080fd5b8101908080359060200190929190505050611a10565b6040518082815260200191505060405180910390f35b34801561076257600080fd5b5061078f6004803603602081101561077957600080fd5b8101908080359060200190929190505050611a33565b604051808273ffffffffffffffffffffffffffffffffffffffff1673ffffffffffffffffffffffffffffffffffffffff16815260200191505060405180910390f35b3480156107dd57600080fd5b5061080a600480360360208110156107f457600080fd5b8101908080359060200190929190505050611a6a565b60405180806020018663ffffffff1663ffffffff1681526020018563ffffffff1663ffffffff1681526020018463ffffffff1663ffffffff168152602001838152602001828103825287818151815260200191508051906020019080838360005b8381101561088657808201518184015260208101905061086b565b50505050905090810190601f1680156108b35780820380516001836020036101000a031916815260200191505b50965050505050505060405180910390f35b3480156108d157600080fd5b506108da611b68565b6040518080602001828103825283818151815260200191508051906020019080838360005b8381101561091a5780820151818401526020810190506108ff565b50505050905090810190601f1680156109475780820380516001836020036101000a031916815260200191505b509250505060405180910390f35b34801561096157600080fd5b506109986004803603604081101561097857600080fd5b810190808035906020019092919080359060200190929190505050611c0a565b005b3480156109a657600080fd5b506109af611e14565b6040518082815260200191505060405180910390f35b3480156109d157600080fd5b50610a14600480360360208110156109e857600080fd5b81019080803573ffffffffffffffffffffffffffffffffffffffff169060200190929190505050611e25565b6040518082815260200191505060405180910390f35b348015610a3657600080fd5b50610a6360048036036020811015610a4d57600080fd5b8101908080359060200190929190505050611efa565b6040518082815260200191505060405180910390f35b348015610a8557600080fd5b50610a8e611f17565b6040518080602001828103825283818151815260200191508051906020019080838360005b83811015610ace578082015181840152602081019050610ab3565b50505050905090810190601f168015610afb5780820380516001836020036101000a031916815260200191505b509250505060405180910390f35b348015610b1557600080fd5b50610b7860048036036060811015610b2c57600080fd5b81019080803563ffffffff169060200190929190803563ffffffff169060200190929190803573ffffffffffffffffffffffffffffffffffffffff169060200190929190505050611fb9565b6040518082815260200191505060405180910390f35b348015610b9a57600080fd5b50610be960048036036040811015610bb157600080fd5b81019080803573ffffffffffffffffffffffffffffffffffffffff169060200190929190803515159060200190929190505050612210565b005b348015610bf757600080fd5b50610c006123c8565b604051808273ffffffffffffffffffffffffffffffffffffffff1673ffffffffffffffffffffffffffffffffffffffff16815260200191505060405180910390f35b348015610c4e57600080fd5b50610d5260048036036080811015610c6557600080fd5b81019080803573ffffffffffffffffffffffffffffffffffffffff169060200190929190803573ffffffffffffffffffffffffffffffffffffffff1690602001909291908035906020019092919080359060200190640100000000811115610ccc57600080fd5b820183602082011115610cde57600080fd5b80359060200191846001830284011164010000000083111715610d0057600080fd5b91908080601f016020809104026020016040519081016040528093929190818152602001838380828437600081840152601f19601f8201169050808301925050505050505091929192905050506123ee565b005b348015610d6057600080fd5b50610e2460048036036040811015610d7757600080fd5b810190808035906020019092919080359060200190640100000000811115610d9e57600080fd5b820183602082011115610db057600080fd5b80359060200191846001830284011164010000000083111715610dd257600080fd5b91908080601f016020809104026020016040519081016040528093929190818152602001838380828437600081840152601f19601f820116905080830192505050505050509192919290505050612466565b005b348015610e3257600080fd5b50610e7560048036036020811015610e4957600080fd5b81019080803573ffffffffffffffffffffffffffffffffffffffff16906020019092919050505061261f565b005b348015610e8357600080fd5b50610eb060048036036020811015610e9a57600080fd5b810190808035906020019092919050505061272b565b6040518080602001828103825283818151815260200191508051906020019080838360005b83811015610ef0578082015181840152602081019050610ed5565b50505050905090810190601f168015610f1d5780820380516001836020036101000a031916815260200191505b509250505060405180910390f35b348015610f3757600080fd5b50610f40612a14565b604051808273ffffffffffffffffffffffffffffffffffffffff1673ffffffffffffffffffffffffffffffffffffffff16815260200191505060405180910390f35b348015610f8e57600080fd5b50610fc560048036036040811015610fa557600080fd5b810190808035906020019092919080359060200190929190505050612a3a565b6040518080602001828103825283818151815260200191508051906020019080838360005b83811015611005578082015181840152602081019050610fea565b50505050905090810190601f1680156110325780820380516001836020036101000a031916815260200191505b509250505060405180910390f35b6110826004803603604081101561105657600080fd5b81019080803563ffffffff169060200190929190803563ffffffff169060200190929190505050612b08565b005b34801561109057600080fd5b50611099612d9c565b6040518082815260200191505060405180910390f35b3480156110bb57600080fd5b5061111e600480360360408110156110d257600080fd5b81019080803573ffffffffffffffffffffffffffffffffffffffff169060200190929190803573ffffffffffffffffffffffffffffffffffffffff169060200190929190505050612da2565b604051808215151515815260200191505060405180910390f35b34801561114457600080fd5b5061114d612e36565b6040518082815260200191505060405180910390f35b34801561116f57600080fd5b5061119c6004803603602081101561118657600080fd5b8101908080359060200190929190505050612e3c565b6040518082815260200191505060405180910390f35b600060026000837bffffffffffffffffffffffffffffffffffffffffffffffffffffffff19167bffffffffffffffffffffffffffffffffffffffffffffffffffffffff1916815260200190815260200160002060009054906101000a900460ff169050919050565b606060088054600181600116156101000203166002900480601f0160208091040260200160405190810160405280929190818152602001828054600181600116156101000203166002900480156112b25780601f10611287576101008083540402835291602001916112b2565b820191906000526020600020905b81548152906001019060200180831161129557829003601f168201915b5050505050905090565b60006112c782612edf565b61131c576040517f08c379a000000000000000000000000000000000000000000000000000000000815260040180806020018281038252602c815260200180614608602c913960400191505060405180910390fd5b6006600083815260200190815260200160002060009054906101000a900473ffffffffffffffffffffffffffffffffffffffff169050919050565b600061136282611a33565b90508073ffffffffffffffffffffffffffffffffffffffff168373ffffffffffffffffffffffffffffffffffffffff1614156113e9576040517f08c379a000000000000000000000000000000000000000000000000000000000815260040180806020018281038252602181526020018061468c6021913960400191505060405180910390fd5b8073ffffffffffffffffffffffffffffffffffffffff16611408612efc565b73ffffffffffffffffffffffffffffffffffffffff161480611437575061143681611431612efc565b612da2565b5b61148c576040517f08c379a000000000000000000000000000000000000000000000000000000000815260040180806020018281038252603881526020018061455b6038913960400191505060405180910390fd5b6114968383612f04565b505050565b6000809054906101000a900473ffffffffffffffffffffffffffffffffffffffff1681565b60006114cc6004612fbd565b905090565b6114e26114dc612efc565b82612fd2565b611537576040517f08c379a00000000000000000000000000000000000000000000000000000000081526004018080602001828103825260318152602001806146ad6031913960400191505060405180910390fd5b6115428383836130c6565b505050565b6000809054906101000a900473ffffffffffffffffffffffffffffffffffffffff1673ffffffffffffffffffffffffffffffffffffffff163373ffffffffffffffffffffffffffffffffffffffff1614611609576040517f08c379a00000000000000000000000000000000000000000000000000000000081526004018080602001828103825260168152602001807f736f7272792c20796f7520617265206e6f742063656f0000000000000000000081525060200191505060405180910390fd5b600073ffffffffffffffffffffffffffffffffffffffff168173ffffffffffffffffffffffffffffffffffffffff1614156116ac576040517f08c379a00000000000000000000000000000000000000000000000000000000081526004018080602001828103825260168152602001807f736f7272792c20796f7520617265206e6f742063656f0000000000000000000081525060200191505060405180910390fd5b806000806101000a81548173ffffffffffffffffffffffffffffffffffffffff021916908373ffffffffffffffffffffffffffffffffffffffff16021790555050565b6000809054906101000a900473ffffffffffffffffffffffffffffffffffffffff1673ffffffffffffffffffffffffffffffffffffffff163373ffffffffffffffffffffffffffffffffffffffff16146117b1576040517f08c379a00000000000000000000000000000000000000000000000000000000081526004018080602001828103825260168152602001807f736f7272792c20796f7520617265206e6f742063656f0000000000000000000081525060200191505060405180910390fd5b600073ffffffffffffffffffffffffffffffffffffffff168173ffffffffffffffffffffffffffffffffffffffff161415611854576040517f08c379a00000000000000000000000000000000000000000000000000000000081526004018080602001828103825260168152602001807f736f7272792c20796f7520617265206e6f742063656f0000000000000000000081525060200191505060405180910390fd5b80600160006101000a81548173ffffffffffffffffffffffffffffffffffffffff021916908373ffffffffffffffffffffffffffffffffffffffff16021790555050565b60006118eb82600360008673ffffffffffffffffffffffffffffffffffffffff1673ffffffffffffffffffffffffffffffffffffffff16815260200190815260200160002061330990919063ffffffff16565b905092915050565b600030905090565b61190c611906612efc565b82612fd2565b611961576040517f08c379a00000000000000000000000000000000000000000000000000000000081526004018080602001828103825260218152602001806144286021913960400191505060405180910390fd5b61196a81613323565b600c60008281526020019081526020016000206000808201600061198e91906142ed565b60018201600061199e9190614335565b6002820160006101000a81549063ffffffff02191690556002820160046101000a81549063ffffffff02191690556002820160086101000a81549063ffffffff02191690556003820160009055505050565b611a0b838383604051806020016040528060008152506123ee565b505050565b600080611a2783600461345d90919063ffffffff16565b50905080915050919050565b6000611a63826040518060600160405280602981526020016145bd60299139600461348c9092919063ffffffff16565b9050919050565b600c602052806000526040600020600091509050806000018054600181600116156101000203166002900480601f016020809104026020016040519081016040528092919081815260200182805460018160011615610100020316600290048015611b165780601f10611aeb57610100808354040283529160200191611b16565b820191906000526020600020905b815481529060010190602001808311611af957829003601f168201915b5050505050908060020160009054906101000a900463ffffffff16908060020160049054906101000a900463ffffffff16908060020160089054906101000a900463ffffffff16908060030154905085565b6060600b8054600181600116156101000203166002900480601f016020809104026020016040519081016040528092919081815260200182805460018160011615610100020316600290048015611c005780601f10611bd557610100808354040283529160200191611c00565b820191906000526020600020905b815481529060010190602001808311611be357829003601f168201915b5050505050905090565b611c1b611c15612efc565b83612fd2565b611c70576040517f08c379a00000000000000000000000000000000000000000000000000000000081526004018080602001828103825260218152602001806144286021913960400191505060405180910390fd5b611c8481600e6134ab90919063ffffffff16565b15611cf7576040517f08c379a000000000000000000000000000000000000000000000000000000000815260040180806020018281038252601f8152602001807f7468697320697320616c72656164792074616b656e206279206f74686572730081525060200191505060405180910390fd5b6000811015611d51576040517f08c379a000000000000000000000000000000000000000000000000000000000815260040180806020018281038252602b81526020018061446b602b913960400191505060405180910390fd5b6000600c60008481526020019081526020016000206003015490506000811115611dbe57611d8981600e6134c590919063ffffffff16565b5060106000828152602001908152602001600020600090556000600c6000858152602001908152602001600020600301819055505b60008214611e0f57611dda82600e6134df90919063ffffffff16565b5081600c6000858152602001908152602001600020600301819055508260106000848152602001908152602001600020819055505b505050565b6000611e20600e6134f9565b905090565b60008073ffffffffffffffffffffffffffffffffffffffff168273ffffffffffffffffffffffffffffffffffffffff161415611eac576040517f08c379a000000000000000000000000000000000000000000000000000000000815260040180806020018281038252602a815260200180614593602a913960400191505060405180910390fd5b611ef3600360008473ffffffffffffffffffffffffffffffffffffffff1673ffffffffffffffffffffffffffffffffffffffff1681526020019081526020016000206134f9565b9050919050565b6000611f1082600e61330990919063ffffffff16565b9050919050565b606060098054600181600116156101000203166002900480601f016020809104026020016040519081016040528092919081815260200182805460018160011615610100020316600290048015611faf5780601f10611f8457610100808354040283529160200191611faf565b820191906000526020600020905b815481529060010190602001808311611f9257829003601f168201915b5050505050905090565b6000600160009054906101000a900473ffffffffffffffffffffffffffffffffffffffff1673ffffffffffffffffffffffffffffffffffffffff163373ffffffffffffffffffffffffffffffffffffffff16148061206357506000809054906101000a900473ffffffffffffffffffffffffffffffffffffffff1673ffffffffffffffffffffffffffffffffffffffff163373ffffffffffffffffffffffffffffffffffffffff16145b6120d5576040517f08c379a000000000000000000000000000000000000000000000000000000000815260040180806020018281038252601d8152602001807f736f7272792c20796f7520617265206e6f742063656f206f7220636f6f00000081525060200191505060405180910390fd5b8363ffffffff168463ffffffff16146120ed57600080fd5b8263ffffffff168363ffffffff161461210557600080fd5b6000600d5490508063ffffffff16811461211e57600080fd5b612128838261350e565b6000600c6000600d5481526020019081526020016000209050848160020160046101000a81548163ffffffff021916908363ffffffff160217905550858160020160086101000a81548163ffffffff021916908363ffffffff160217905550600d600081548092919060010191905055507fcc9018de05b5f497ee7618d8830568d8ac2d45d0671b73d8f71c67e824122ec78483604051808373ffffffffffffffffffffffffffffffffffffffff1673ffffffffffffffffffffffffffffffffffffffff1681526020018281526020019250505060405180910390a181925050509392505050565b612218612efc565b73ffffffffffffffffffffffffffffffffffffffff168273ffffffffffffffffffffffffffffffffffffffff1614156122b9576040517f08c379a00000000000000000000000000000000000000000000000000000000081526004018080602001828103825260198152602001807f4552433732313a20617070726f766520746f2063616c6c65720000000000000081525060200191505060405180910390fd5b80600760006122c6612efc565b73ffffffffffffffffffffffffffffffffffffffff1673ffffffffffffffffffffffffffffffffffffffff16815260200190815260200160002060008473ffffffffffffffffffffffffffffffffffffffff1673ffffffffffffffffffffffffffffffffffffffff16815260200190815260200160002060006101000a81548160ff0219169083151502179055508173ffffffffffffffffffffffffffffffffffffffff16612373612efc565b73ffffffffffffffffffffffffffffffffffffffff167f17307eab39ab6107e8899845ad3d59bd9653f200f220920489ca2b5937696c3183604051808215151515815260200191505060405180910390a35050565b600160009054906101000a900473ffffffffffffffffffffffffffffffffffffffff1681565b6123ff6123f9612efc565b83612fd2565b612454576040517f08c379a00000000000000000000000000000000000000000000000000000000081526004018080602001828103825260318152602001806146ad6031913960400191505060405180910390fd5b6124608484848461352c565b50505050565b612477612471612efc565b83612fd2565b6124cc576040517f08c379a00000000000000000000000000000000000000000000000000000000081526004018080602001828103825260218152602001806144286021913960400191505060405180910390fd5b600c600083815260200190815260200160002060020160049054906101000a900463ffffffff1663ffffffff16600c600084815260200190815260200160002060020160009054906101000a900463ffffffff1663ffffffff161061257c576040517f08c379a00000000000000000000000000000000000000000000000000000000081526004018080602001828103825260218152602001806144286021913960400191505060405180910390fd5b600c6000838152602001908152602001600020600101819080600181540180825580915050600190039060005260206000200160009091909190915090805190602001906125cb929190614356565b50600c6000838152602001908152602001600020600201600081819054906101000a900463ffffffff168092919060010191906101000a81548163ffffffff021916908363ffffffff160217905550505050565b6000809054906101000a900473ffffffffffffffffffffffffffffffffffffffff1673ffffffffffffffffffffffffffffffffffffffff163373ffffffffffffffffffffffffffffffffffffffff16146126e1576040517f08c379a00000000000000000000000000000000000000000000000000000000081526004018080602001828103825260168152602001807f736f7272792c20796f7520617265206e6f742063656f0000000000000000000081525060200191505060405180910390fd5b600081905080601160006101000a81548173ffffffffffffffffffffffffffffffffffffffff021916908373ffffffffffffffffffffffffffffffffffffffff1602179055505050565b606061273682612edf565b61278b576040517f08c379a000000000000000000000000000000000000000000000000000000000815260040180806020018281038252602f81526020018061465d602f913960400191505060405180910390fd5b6060600a60008481526020019081526020016000208054600181600116156101000203166002900480601f0160208091040260200160405190810160405280929190818152602001828054600181600116156101000203166002900480156128345780601f1061280957610100808354040283529160200191612834565b820191906000526020600020905b81548152906001019060200180831161281757829003601f168201915b505050505090506000600b80546001816001161561010002031660029004905014156128635780915050612a0f565b60008151111561293c57600b8160405160200180838054600181600116156101000203166002900480156128ce5780601f106128ac5761010080835404028352918201916128ce565b820191906000526020600020905b8154815290600101906020018083116128ba575b505082805190602001908083835b602083106128ff57805182526020820191506020810190506020830392506128dc565b6001836020036101000a03801982511681845116808217855250505050505090500192505050604051602081830303815290604052915050612a0f565b600b6129478461359e565b60405160200180838054600181600116156101000203166002900480156129a55780601f106129835761010080835404028352918201916129a5565b820191906000526020600020905b815481529060010190602001808311612991575b505082805190602001908083835b602083106129d657805182526020820191506020810190506020830392506129b3565b6001836020036101000a038019825116818451168082178552505050505050905001925050506040516020818303038152906040529150505b919050565b601160009054906101000a900473ffffffffffffffffffffffffffffffffffffffff1681565b6060600c60008481526020019081526020016000206001018281548110612a5d57fe5b906000526020600020018054600181600116156101000203166002900480601f016020809104026020016040519081016040528092919081815260200182805460018160011615610100020316600290048015612afb5780601f10612ad057610100808354040283529160200191612afb565b820191906000526020600020905b815481529060010190602001808311612ade57829003601f168201915b5050505050905092915050565b600160009054906101000a900473ffffffffffffffffffffffffffffffffffffffff1673ffffffffffffffffffffffffffffffffffffffff163373ffffffffffffffffffffffffffffffffffffffff161480612bb057506000809054906101000a900473ffffffffffffffffffffffffffffffffffffffff1673ffffffffffffffffffffffffffffffffffffffff163373ffffffffffffffffffffffffffffffffffffffff16145b612c22576040517f08c379a000000000000000000000000000000000000000000000000000000000815260040180806020018281038252601d8152602001807f736f7272792c20796f7520617265206e6f742063656f206f7220636f6f00000081525060200191505060405180910390fd5b601254341015612c7d576040517f08c379a00000000000000000000000000000000000000000000000000000000081526004018080602001828103825260438152602001806144ec6043913960600191505060405180910390fd5b6000612c918383612c8c612efc565b611fb9565b9050612cbf601160009054906101000a900473ffffffffffffffffffffffffffffffffffffffff1682611357565b601160009054906101000a900473ffffffffffffffffffffffffffffffffffffffff1673ffffffffffffffffffffffffffffffffffffffff1663995cd65382671bc16d674ec80000612d0f612efc565b6040518463ffffffff1660e01b8152600401808481526020018381526020018273ffffffffffffffffffffffffffffffffffffffff1673ffffffffffffffffffffffffffffffffffffffff1681526020019350505050600060405180830381600087803b158015612d7f57600080fd5b505af1158015612d93573d6000803e3d6000fd5b50505050505050565b60125481565b6000600760008473ffffffffffffffffffffffffffffffffffffffff1673ffffffffffffffffffffffffffffffffffffffff16815260200190815260200160002060008373ffffffffffffffffffffffffffffffffffffffff1673ffffffffffffffffffffffffffffffffffffffff16815260200190815260200160002060009054906101000a900460ff16905092915050565b600d5481565b6000612e5282600e6134ab90919063ffffffff16565b612ec4576040517f08c379a00000000000000000000000000000000000000000000000000000000081526004018080602001828103825260158152602001807f7468697320736c6f74206973206e6f742075736564000000000000000000000081525060200191505060405180910390fd5b60106000838152602001908152602001600020549050919050565b6000612ef58260046136e590919063ffffffff16565b9050919050565b600033905090565b816006600083815260200190815260200160002060006101000a81548173ffffffffffffffffffffffffffffffffffffffff021916908373ffffffffffffffffffffffffffffffffffffffff160217905550808273ffffffffffffffffffffffffffffffffffffffff16612f7783611a33565b73ffffffffffffffffffffffffffffffffffffffff167f8c5be1e5ebec7d5bd14f71427d1e84f3dd0314c0f7b2291e5b200ac8c7c3b92560405160405180910390a45050565b6000612fcb826000016136ff565b9050919050565b6000612fdd82612edf565b613032576040517f08c379a000000000000000000000000000000000000000000000000000000000815260040180806020018281038252602c81526020018061452f602c913960400191505060405180910390fd5b600061303d83611a33565b90508073ffffffffffffffffffffffffffffffffffffffff168473ffffffffffffffffffffffffffffffffffffffff1614806130ac57508373ffffffffffffffffffffffffffffffffffffffff16613094846112bc565b73ffffffffffffffffffffffffffffffffffffffff16145b806130bd57506130bc8185612da2565b5b91505092915050565b8273ffffffffffffffffffffffffffffffffffffffff166130e682611a33565b73ffffffffffffffffffffffffffffffffffffffff1614613152576040517f08c379a00000000000000000000000000000000000000000000000000000000081526004018080602001828103825260298152602001806146346029913960400191505060405180910390fd5b600073ffffffffffffffffffffffffffffffffffffffff168273ffffffffffffffffffffffffffffffffffffffff1614156131d8576040517f08c379a00000000000000000000000000000000000000000000000000000000081526004018080602001828103825260248152602001806144c86024913960400191505060405180910390fd5b6131e3838383613710565b6131ee600082612f04565b61323f81600360008673ffffffffffffffffffffffffffffffffffffffff1673ffffffffffffffffffffffffffffffffffffffff1681526020019081526020016000206134c590919063ffffffff16565b5061329181600360008573ffffffffffffffffffffffffffffffffffffffff1673ffffffffffffffffffffffffffffffffffffffff1681526020019081526020016000206134df90919063ffffffff16565b506132a8818360046137159092919063ffffffff16565b50808273ffffffffffffffffffffffffffffffffffffffff168473ffffffffffffffffffffffffffffffffffffffff167fddf252ad1be2c89b69c2b068fc378daa952ba7f163c4a11628f55a4df523b3ef60405160405180910390a4505050565b6000613318836000018361374a565b60001c905092915050565b600061332e82611a33565b905061333c81600084613710565b613347600083612f04565b6000600a60008481526020019081526020016000208054600181600116156101000203166002900490501461339657600a6000838152602001908152602001600020600061339591906142ed565b5b6133e782600360008473ffffffffffffffffffffffffffffffffffffffff1673ffffffffffffffffffffffffffffffffffffffff1681526020019081526020016000206134c590919063ffffffff16565b506133fc8260046137cd90919063ffffffff16565b5081600073ffffffffffffffffffffffffffffffffffffffff168273ffffffffffffffffffffffffffffffffffffffff167fddf252ad1be2c89b69c2b068fc378daa952ba7f163c4a11628f55a4df523b3ef60405160405180910390a45050565b60008060008061347086600001866137e7565b915091508160001c8160001c8090509350935050509250929050565b600061349f846000018460001b84613880565b60001c90509392505050565b60006134bd836000018360001b613976565b905092915050565b60006134d7836000018360001b613999565b905092915050565b60006134f1836000018360001b613a81565b905092915050565b600061350782600001613af1565b9050919050565b613528828260405180602001604052806000815250613b02565b5050565b6135378484846130c6565b61354384848484613b73565b613598576040517f08c379a00000000000000000000000000000000000000000000000000000000081526004018080602001828103825260328152602001806144966032913960400191505060405180910390fd5b50505050565b606060008214156135e6576040518060400160405280600181526020017f300000000000000000000000000000000000000000000000000000000000000081525090506136e0565b600082905060005b60008214613610578080600101915050600a828161360857fe5b0491506135ee565b60608167ffffffffffffffff8111801561362957600080fd5b506040519080825280601f01601f19166020018201604052801561365c5781602001600182028036833780820191505090505b50905060006001830390508593505b600084146136d857600a848161367d57fe5b0660300160f81b8282806001900393508151811061369757fe5b60200101907effffffffffffffffffffffffffffffffffffffffffffffffffffffffffffff1916908160001a905350600a84816136d057fe5b04935061366b565b819450505050505b919050565b60006136f7836000018360001b613e96565b905092915050565b600081600001805490509050919050565b505050565b6000613741846000018460001b8473ffffffffffffffffffffffffffffffffffffffff1660001b613eb9565b90509392505050565b6000818360000180549050116137ab576040517f08c379a00000000000000000000000000000000000000000000000000000000081526004018080602001828103825260228152602001806144496022913960400191505060405180910390fd5b8260000182815481106137ba57fe5b9060005260206000200154905092915050565b60006137df836000018360001b613f95565b905092915050565b60008082846000018054905011613849576040517f08c379a00000000000000000000000000000000000000000000000000000000081526004018080602001828103825260228152602001806145e66022913960400191505060405180910390fd5b600084600001848154811061385a57fe5b906000526020600020906002020190508060000154816001015492509250509250929050565b60008084600101600085815260200190815260200160002054905060008114158390613947576040517f08c379a00000000000000000000000000000000000000000000000000000000081526004018080602001828103825283818151815260200191508051906020019080838360005b8381101561390c5780820151818401526020810190506138f1565b50505050905090810190601f1680156139395780820380516001836020036101000a031916815260200191505b509250505060405180910390fd5b5084600001600182038154811061395a57fe5b9060005260206000209060020201600101549150509392505050565b600080836001016000848152602001908152602001600020541415905092915050565b60008083600101600084815260200190815260200160002054905060008114613a7557600060018203905060006001866000018054905003905060008660000182815481106139e457fe5b9060005260206000200154905080876000018481548110613a0157fe5b9060005260206000200181905550600183018760010160008381526020019081526020016000208190555086600001805480613a3957fe5b60019003818190600052602060002001600090559055866001016000878152602001908152602001600020600090556001945050505050613a7b565b60009150505b92915050565b6000613a8d8383613976565b613ae6578260000182908060018154018082558091505060019003906000526020600020016000909190919091505582600001805490508360010160008481526020019081526020016000208190555060019050613aeb565b600090505b92915050565b600081600001805490509050919050565b613b0c83836140ae565b613b196000848484613b73565b613b6e576040517f08c379a00000000000000000000000000000000000000000000000000000000081526004018080602001828103825260328152602001806144966032913960400191505060405180910390fd5b505050565b6000613b948473ffffffffffffffffffffffffffffffffffffffff166142a2565b613ba15760019050613e8e565b600060608573ffffffffffffffffffffffffffffffffffffffff1663150b7a0260e01b613bcc612efc565b898888604051602401808573ffffffffffffffffffffffffffffffffffffffff1673ffffffffffffffffffffffffffffffffffffffff1681526020018473ffffffffffffffffffffffffffffffffffffffff1673ffffffffffffffffffffffffffffffffffffffff16815260200183815260200180602001828103825283818151815260200191508051906020019080838360005b83811015613c7c578082015181840152602081019050613c61565b50505050905090810190601f168015613ca95780820380516001836020036101000a031916815260200191505b5095505050505050604051602081830303815290604052907bffffffffffffffffffffffffffffffffffffffffffffffffffffffff19166020820180517bffffffffffffffffffffffffffffffffffffffffffffffffffffffff83818316178352505050506040518082805190602001908083835b60208310613d415780518252602082019150602081019050602083039250613d1e565b6001836020036101000a0380198251168184511680821785525050505050509050019150506000604051808303816000865af19150503d8060008114613da3576040519150601f19603f3d011682016040523d82523d6000602084013e613da8565b606091505b509150915081613e1657600081511115613dc55780518082602001fd5b6040517f08c379a00000000000000000000000000000000000000000000000000000000081526004018080602001828103825260328152602001806144966032913960400191505060405180910390fd5b6000818060200190516020811015613e2d57600080fd5b8101908080519060200190929190505050905063150b7a0260e01b7bffffffffffffffffffffffffffffffffffffffffffffffffffffffff1916817bffffffffffffffffffffffffffffffffffffffffffffffffffffffff19161493505050505b949350505050565b600080836001016000848152602001908152602001600020541415905092915050565b6000808460010160008581526020019081526020016000205490506000811415613f6057846000016040518060400160405280868152602001858152509080600181540180825580915050600190039060005260206000209060020201600090919091909150600082015181600001556020820151816001015550508460000180549050856001016000868152602001908152602001600020819055506001915050613f8e565b82856000016001830381548110613f7357fe5b90600052602060002090600202016001018190555060009150505b9392505050565b600080836001016000848152602001908152602001600020549050600081146140a25760006001820390506000600186600001805490500390506000866000018281548110613fe057fe5b906000526020600020906002020190508087600001848154811061400057fe5b906000526020600020906002020160008201548160000155600182015481600101559050506001830187600101600083600001548152602001908152602001600020819055508660000180548061405357fe5b60019003818190600052602060002090600202016000808201600090556001820160009055505090558660010160008781526020019081526020016000206000905560019450505050506140a8565b60009150505b92915050565b600073ffffffffffffffffffffffffffffffffffffffff168273ffffffffffffffffffffffffffffffffffffffff161415614151576040517f08c379a00000000000000000000000000000000000000000000000000000000081526004018080602001828103825260208152602001807f4552433732313a206d696e7420746f20746865207a65726f206164647265737381525060200191505060405180910390fd5b61415a81612edf565b156141cd576040517f08c379a000000000000000000000000000000000000000000000000000000000815260040180806020018281038252601c8152602001807f4552433732313a20746f6b656e20616c7265616479206d696e7465640000000081525060200191505060405180910390fd5b6141d960008383613710565b61422a81600360008573ffffffffffffffffffffffffffffffffffffffff1673ffffffffffffffffffffffffffffffffffffffff1681526020019081526020016000206134df90919063ffffffff16565b50614241818360046137159092919063ffffffff16565b50808273ffffffffffffffffffffffffffffffffffffffff16600073ffffffffffffffffffffffffffffffffffffffff167fddf252ad1be2c89b69c2b068fc378daa952ba7f163c4a11628f55a4df523b3ef60405160405180910390a45050565b60008060007fc5d2460186f7233c927e7db2dcc703c0e500b653ca82273b7bfad8045d85a47060001b9050833f91508082141580156142e457506000801b8214155b92505050919050565b50805460018160011615610100020316600290046000825580601f106143135750614332565b601f01602090049060005260206000209081019061433191906143d6565b5b50565b508054600082559060005260206000209081019061435391906143fb565b50565b828054600181600116156101000203166002900490600052602060002090601f016020900481019282601f1061439757805160ff19168380011785556143c5565b828001600101855582156143c5579182015b828111156143c45782518255916020019190600101906143a9565b5b5090506143d291906143d6565b5090565b6143f891905b808211156143f45760008160009055506001016143dc565b5090565b90565b61442491905b80821115614420576000818161441791906142ed565b50600101614401565b5090565b9056fe796f7520617265206e6f7420746865206f776e6572206f7220617070726f766572456e756d657261626c655365743a20696e646578206f7574206f6620626f756e6473736c6f744944206d757374203e3d20302c206e6f726d616c20736c6f74207374617274732066726f6d20314552433732313a207472616e7366657220746f206e6f6e20455243373231526563656976657220696d706c656d656e7465724552433732313a207472616e7366657220746f20746865207a65726f206164647265737348692c2063656f2f636f6f2c20796f75206d757374206769766520312066696e6e657920746f20737461727420746865206372656174696f6e206f6620746865204c4c4552433732313a206f70657261746f7220717565727920666f72206e6f6e6578697374656e7420746f6b656e4552433732313a20617070726f76652063616c6c6572206973206e6f74206f776e6572206e6f7220617070726f76656420666f7220616c6c4552433732313a2062616c616e636520717565727920666f7220746865207a65726f20616464726573734552433732313a206f776e657220717565727920666f72206e6f6e6578697374656e7420746f6b656e456e756d657261626c654d61703a20696e646578206f7574206f6620626f756e64734552433732313a20617070726f76656420717565727920666f72206e6f6e6578697374656e7420746f6b656e4552433732313a207472616e73666572206f6620746f6b656e2074686174206973206e6f74206f776e4552433732314d657461646174613a2055524920717565727920666f72206e6f6e6578697374656e7420746f6b656e4552433732313a20617070726f76616c20746f2063757272656e74206f776e65724552433732313a207472616e736665722063616c6c6572206973206e6f74206f776e6572206e6f7220617070726f766564a264697066735822122094bdce2be3cf2aa1b16812799d2972e4d09b4e95081858407062dad35060dc6164736f6c63430006080033",
  "immutableReferences": {},
  "source": "pragma solidity ^0.6.0;\r\n\r\nimport \"./LoveLockAccessControl.sol\";\r\nimport \"@openzeppelin/contracts/token/ERC721/ERC721.sol\";\r\nimport \"@openzeppelin/contracts/utils/EnumerableSet.sol\";\r\nimport \"./SaleLoveLock.sol\";\r\n\r\ncontract LoveLockBase is LoveLockAccessControl, ERC721 {\r\n    using EnumerableSet for EnumerableSet.UintSet;\r\n    /*** DEFINE THE STRUCT OF LOVELOCK ***/\r\n    constructor() ERC721(\"Love Lock\", \"LL\") public {\r\n        ceoAddress = msg.sender;\r\n        _setBaseURI(\"https://sstshenshutao.github.io/\");\r\n        // the defaultCreationPrice\r\n        defaultPrice = 1 finney;\r\n    }\r\n    struct LoveLock {\r\n        string title;\r\n        string[] notes;\r\n        uint32 currentLength;\r\n        uint32 notesLimit;\r\n        uint32 styleId;\r\n        uint256 slotPos; //0 for not hung, slot index start from 1\r\n    }\r\n\r\n    //    struct Couple {\r\n    //        address me;\r\n    //        address lover;\r\n    //    }\r\n\r\n    /*** STORAGE ***/\r\n\r\n    // save all of the LLs\r\n    mapping(uint256 => LoveLock) public loveLocks;\r\n    uint256 public numLoveLocks; // An integer storing the total number of LLs, use for create the LLs(together with mapping)\r\n    //     the mapper that maintain the usedSlot   (slot:true/false)\r\n    //    mapping(int128 => bool) public usedSlot;\r\n    // slot index start from 1 , eg: [1,3,5,7,....]\r\n    EnumerableSet.UintSet usedSlot;\r\n    //     the mapper that maintain the   (slot:tokenID), for quick retrieval\r\n    mapping(uint256 => uint256) slotToToken;\r\n    // LLs => address(owner)\r\n    // replaced by ownerOf:   mapping(uint256 => address) public loveLockIndexToOwner;\r\n    //the count of LLs this address has.\r\n    // replaced by balanceOf:   mapping(address => uint256) ownershipTokenCount;\r\n    // the Lock can be transferred from one of the couple.\r\n    //    mapping(uint256 => Couple) public lockIndexToApproved;\r\n    /*** modifier ***/\r\n\r\n    /*** FUNCTIONS ***/\r\n    // todo: expose the public functions based on the internal functions\r\n    // todo: the convenient methods(form LoveLock.sol need to integrate here)\r\n    /*** those functions have no requirement, need to be implemented in the layer -- finished, they are public and safe***/\r\n    function getContractAddress() public view returns (address) {\r\n        return address(this);\r\n    }\r\n\r\n    function deleteLock(uint256 tokenId) public {\r\n        require(_isApprovedOrOwner(_msgSender(), tokenId), \"you are not the owner or approver\");\r\n        _burn(tokenId);\r\n        delete loveLocks[tokenId];\r\n    }\r\n    //  add note to a love lock\r\n    function addNote(uint256 tokenId, string memory note) public {\r\n        require(_isApprovedOrOwner(_msgSender(), tokenId), \"you are not the owner or approver\");\r\n        require(loveLocks[tokenId].currentLength < loveLocks[tokenId].notesLimit, \"you are not the owner or approver\");\r\n        loveLocks[tokenId].notes.push(note);\r\n        loveLocks[tokenId].currentLength++;\r\n    }\r\n    //  getNote of the ll\r\n    function getNote(uint tokenId, uint index) public view returns (string memory) {\r\n        return loveLocks[tokenId].notes[index];\r\n    }\r\n    //  hang LL, 0 for pull down\r\n    function hangLL(uint tokenId, uint256 slotId) public {\r\n        require(_isApprovedOrOwner(_msgSender(), tokenId), \"you are not the owner or approver\");\r\n        // this slot must not be taken by other users\r\n        require(!usedSlot.contains(slotId), \"this is already taken by others\");\r\n        // remove the previous used slot, if exists\r\n        require(slotId >= 0, \"slotID must >= 0, normal slot starts from 1\");\r\n        uint256 previousSlot = loveLocks[tokenId].slotPos;\r\n        // if the previousSlot exists\r\n        if (previousSlot > 0) {\r\n            usedSlot.remove(previousSlot);\r\n            delete slotToToken[previousSlot];\r\n            loveLocks[tokenId].slotPos = 0;\r\n        }\r\n        // add a new slot\r\n        if (slotId != 0) {\r\n            usedSlot.add(slotId);\r\n            loveLocks[tokenId].slotPos = slotId;\r\n            slotToToken[slotId] = tokenId;\r\n        }\r\n    }\r\n\r\n    function getUsedSlotLength() public view returns (uint) {\r\n        return usedSlot.length();\r\n    }\r\n    // return the n-th used slot\r\n    function getUsedSlot(uint nth) public view returns (uint) {\r\n        return usedSlot.at(nth);\r\n    }\r\n    // get the lock on a specific slot\r\n    function getLockOnSlot(uint slotId) public view returns (uint) {\r\n        require(usedSlot.contains(slotId), \"this slot is not used\");\r\n        return slotToToken[slotId];\r\n    }\r\n    /*** sale method***/\r\n    // ------------------sale storage --------------\r\n    // the smart contract of selling the LLs\r\n    SaleLoveLock public saleContract;\r\n    // the defaultCreationPrice\r\n    uint256 public defaultPrice;\r\n\r\n    function setSaleContractAddress(address _address) public onlyCEO {\r\n        SaleLoveLock newSaleContract = SaleLoveLock(_address);\r\n        // Set the new contract address\r\n        saleContract = newSaleContract;\r\n    }\r\n    // the smart contract creates LLs for sell\r\n    function createLLtoSell(uint32 styleId, uint32 notesLimit) payable public onlyCLevel {\r\n        require(msg.value >= defaultPrice, \"Hi, ceo/coo, you must give 1 finney to start the creation of the LL\");\r\n        // save the LoveLock temporally in CLevel account\r\n        uint newTokenID = createLL(styleId, notesLimit, _msgSender());\r\n        // give the approval to the saleContract, so that the saleContract can transfer it\r\n        approve(address(saleContract), newTokenID);\r\n        // let saleContract sell the tokens\r\n        saleContract.createSale(newTokenID, 2 ether, _msgSender());\r\n    }\r\n\r\n    // create love lock, return the new ID of token LL, use for generate ll, or directly give ll to one user.\r\n    function createLL(uint32 styleId, uint32 notesLimit, address owner) public onlyCLevel returns (uint){\r\n        // to ensure our data structures are always valid.\r\n        require(styleId == uint256(uint32(styleId)));\r\n        require(notesLimit == uint256(uint32(notesLimit)));\r\n        //create process:\r\n        //create token\r\n        uint256 newLoveLockID = numLoveLocks;\r\n        require(newLoveLockID == uint256(uint32(newLoveLockID)));\r\n        //here !! call transfer from address(0) to _owner, which means creation of token\r\n        _safeMint(owner, newLoveLockID);\r\n        //create LL\r\n        LoveLock storage _loveLock = loveLocks[numLoveLocks];\r\n        _loveLock.notesLimit = notesLimit;\r\n        _loveLock.styleId = styleId;\r\n        numLoveLocks++;\r\n        // emit our Create event to show we mint a LoveLock(different with token transfer event above!!!)\r\n        emit Create(owner, newLoveLockID);\r\n        return newLoveLockID;\r\n    }\r\n\r\n    /*** EVENTS ***/\r\n    event Create(address owner, uint256 tokenId);\r\n}\r\n",
  "sourcePath": "D:\\blockchain\\blockChianSeminar\\solidity\\contracts\\LoveLockBase.sol",
  "compiler": {
    "name": "solc",
    "version": "0.6.8+commit.0bbfe453.Emscripten.clang"
  },
  "schemaVersion": "3.1.0",
  "updatedAt": "2020-05-18T22:29:49.972Z",
  "networkType": "ethereum",
  "devdoc": {
    "methods": {
      "approve(address,uint256)": {
        "details": "Approves another address to transfer the given token ID The zero address indicates there is no approved address. There can only be one approved address per token at a given time. Can only be called by the token owner or an approved operator.",
        "params": {
          "to": "address to be approved for the given token ID",
          "tokenId": "uint256 ID of the token to be approved"
        }
      },
      "balanceOf(address)": {
        "details": "Gets the balance of the specified address.",
        "params": {
          "owner": "address to query the balance of"
        },
        "returns": {
          "_0": "uint256 representing the amount owned by the passed address"
        }
      },
      "baseURI()": {
        "details": "Returns the base URI set via {_setBaseURI}. This will be automatically added as a prefix in {tokenURI} to each token's URI, or to the token ID if no specific URI is set for that token ID."
      },
      "getApproved(uint256)": {
        "details": "Gets the approved address for a token ID, or zero if no address set Reverts if the token ID does not exist.",
        "params": {
          "tokenId": "uint256 ID of the token to query the approval of"
        },
        "returns": {
          "_0": "address currently approved for the given token ID"
        }
      },
      "isApprovedForAll(address,address)": {
        "details": "Tells whether an operator is approved by a given owner.",
        "params": {
          "operator": "operator address which you want to query the approval of",
          "owner": "owner address which you want to query the approval of"
        },
        "returns": {
          "_0": "bool whether the given operator is approved by the given owner"
        }
      },
      "name()": {
        "details": "Gets the token name.",
        "returns": {
          "_0": "string representing the token name"
        }
      },
      "ownerOf(uint256)": {
        "details": "Gets the owner of the specified token ID.",
        "params": {
          "tokenId": "uint256 ID of the token to query the owner of"
        },
        "returns": {
          "_0": "address currently marked as the owner of the given token ID"
        }
      },
      "safeTransferFrom(address,address,uint256)": {
        "details": "Safely transfers the ownership of a given token ID to another address If the target address is a contract, it must implement {IERC721Receiver-onERC721Received}, which is called upon a safe transfer, and return the magic value `bytes4(keccak256(\"onERC721Received(address,address,uint256,bytes)\"))`; otherwise, the transfer is reverted. Requires the msg.sender to be the owner, approved, or operator",
        "params": {
          "from": "current owner of the token",
          "to": "address to receive the ownership of the given token ID",
          "tokenId": "uint256 ID of the token to be transferred"
        }
      },
      "safeTransferFrom(address,address,uint256,bytes)": {
        "details": "Safely transfers the ownership of a given token ID to another address If the target address is a contract, it must implement {IERC721Receiver-onERC721Received}, which is called upon a safe transfer, and return the magic value `bytes4(keccak256(\"onERC721Received(address,address,uint256,bytes)\"))`; otherwise, the transfer is reverted. Requires the _msgSender() to be the owner, approved, or operator",
        "params": {
          "_data": "bytes data to send along with a safe transfer check",
          "from": "current owner of the token",
          "to": "address to receive the ownership of the given token ID",
          "tokenId": "uint256 ID of the token to be transferred"
        }
      },
      "setApprovalForAll(address,bool)": {
        "details": "Sets or unsets the approval of a given operator An operator is allowed to transfer all tokens of the sender on their behalf.",
        "params": {
          "approved": "representing the status of the approval to be set",
          "operator": "operator address to set the approval"
        }
      },
      "supportsInterface(bytes4)": {
        "details": "See {IERC165-supportsInterface}.     * Time complexity O(1), guaranteed to always use less than 30 000 gas."
      },
      "symbol()": {
        "details": "Gets the token symbol.",
        "returns": {
          "_0": "string representing the token symbol"
        }
      },
      "tokenByIndex(uint256)": {
        "details": "Gets the token ID at a given index of all the tokens in this contract Reverts if the index is greater or equal to the total number of tokens.",
        "params": {
          "index": "uint256 representing the index to be accessed of the tokens list"
        },
        "returns": {
          "_0": "uint256 token ID at the given index of the tokens list"
        }
      },
      "tokenOfOwnerByIndex(address,uint256)": {
        "details": "Gets the token ID at a given index of the tokens list of the requested owner.",
        "params": {
          "index": "uint256 representing the index to be accessed of the requested tokens list",
          "owner": "address owning the tokens list to be accessed"
        },
        "returns": {
          "_0": "uint256 token ID at the given index of the tokens list owned by the requested address"
        }
      },
      "tokenURI(uint256)": {
        "details": "Returns the URI for a given token ID. May return an empty string.     * If a base URI is set (via {_setBaseURI}), it is added as a prefix to the token's own URI (via {_setTokenURI}).     * If there is a base URI but no token URI, the token's ID will be used as its URI when appending it to the base URI. This pattern for autogenerated token URIs can lead to large gas savings.     * .Examples |=== |`_setBaseURI()` |`_setTokenURI()` |`tokenURI()` | \"\" | \"\" | \"\" | \"\" | \"token.uri/123\" | \"token.uri/123\" | \"token.uri/\" | \"123\" | \"token.uri/123\" | \"token.uri/\" | \"\" | \"token.uri/<tokenId>\" |===     * Requirements:     * - `tokenId` must exist."
      },
      "totalSupply()": {
        "details": "Gets the total amount of tokens stored by the contract.",
        "returns": {
          "_0": "uint256 representing the total amount of tokens"
        }
      },
      "transferFrom(address,address,uint256)": {
        "details": "Transfers the ownership of a given token ID to another address. Usage of this method is discouraged, use {safeTransferFrom} whenever possible. Requires the msg.sender to be the owner, approved, or operator.",
        "params": {
          "from": "current owner of the token",
          "to": "address to receive the ownership of the given token ID",
          "tokenId": "uint256 ID of the token to be transferred"
        }
      }
    }
  },
  "userdoc": {
    "methods": {
      "constructor": "* DEFINE THE STRUCT OF LOVELOCK **",
      "getContractAddress()": {
        "notice": "* those functions have no requirement, need to be implemented in the layer -- finished, they are public and safe**"
      }
    }
  }
}