{
  "contractName": "LoveLockBase",
  "abi": [
    {
      "inputs": [],
      "stateMutability": "nonpayable",
      "type": "constructor"
    },
    {
      "anonymous": false,
      "inputs": [
        {
          "indexed": true,
          "internalType": "address",
          "name": "owner",
          "type": "address"
        },
        {
          "indexed": true,
          "internalType": "address",
          "name": "approved",
          "type": "address"
        },
        {
          "indexed": true,
          "internalType": "uint256",
          "name": "tokenId",
          "type": "uint256"
        }
      ],
      "name": "Approval",
      "type": "event"
    },
    {
      "anonymous": false,
      "inputs": [
        {
          "indexed": true,
          "internalType": "address",
          "name": "owner",
          "type": "address"
        },
        {
          "indexed": true,
          "internalType": "address",
          "name": "operator",
          "type": "address"
        },
        {
          "indexed": false,
          "internalType": "bool",
          "name": "approved",
          "type": "bool"
        }
      ],
      "name": "ApprovalForAll",
      "type": "event"
    },
    {
      "anonymous": false,
      "inputs": [
        {
          "indexed": false,
          "internalType": "address",
          "name": "owner",
          "type": "address"
        },
        {
          "indexed": false,
          "internalType": "uint256",
          "name": "tokenId",
          "type": "uint256"
        }
      ],
      "name": "Create",
      "type": "event"
    },
    {
      "anonymous": false,
      "inputs": [
        {
          "indexed": true,
          "internalType": "address",
          "name": "from",
          "type": "address"
        },
        {
          "indexed": true,
          "internalType": "address",
          "name": "to",
          "type": "address"
        },
        {
          "indexed": true,
          "internalType": "uint256",
          "name": "tokenId",
          "type": "uint256"
        }
      ],
      "name": "Transfer",
      "type": "event"
    },
    {
      "inputs": [
        {
          "internalType": "address",
          "name": "to",
          "type": "address"
        },
        {
          "internalType": "uint256",
          "name": "tokenId",
          "type": "uint256"
        }
      ],
      "name": "approve",
      "outputs": [],
      "stateMutability": "nonpayable",
      "type": "function"
    },
    {
      "inputs": [
        {
          "internalType": "address",
          "name": "owner",
          "type": "address"
        }
      ],
      "name": "balanceOf",
      "outputs": [
        {
          "internalType": "uint256",
          "name": "",
          "type": "uint256"
        }
      ],
      "stateMutability": "view",
      "type": "function",
      "constant": true
    },
    {
      "inputs": [],
      "name": "baseURI",
      "outputs": [
        {
          "internalType": "string",
          "name": "",
          "type": "string"
        }
      ],
      "stateMutability": "view",
      "type": "function",
      "constant": true
    },
    {
      "inputs": [],
      "name": "ceoAddress",
      "outputs": [
        {
          "internalType": "address",
          "name": "",
          "type": "address"
        }
      ],
      "stateMutability": "view",
      "type": "function",
      "constant": true
    },
    {
      "inputs": [],
      "name": "cooAddress",
      "outputs": [
        {
          "internalType": "address",
          "name": "",
          "type": "address"
        }
      ],
      "stateMutability": "view",
      "type": "function",
      "constant": true
    },
    {
      "inputs": [],
      "name": "defaultPrice",
      "outputs": [
        {
          "internalType": "uint256",
          "name": "",
          "type": "uint256"
        }
      ],
      "stateMutability": "view",
      "type": "function",
      "constant": true
    },
    {
      "inputs": [
        {
          "internalType": "uint256",
          "name": "tokenId",
          "type": "uint256"
        }
      ],
      "name": "getApproved",
      "outputs": [
        {
          "internalType": "address",
          "name": "",
          "type": "address"
        }
      ],
      "stateMutability": "view",
      "type": "function",
      "constant": true
    },
    {
      "inputs": [
        {
          "internalType": "address",
          "name": "owner",
          "type": "address"
        },
        {
          "internalType": "address",
          "name": "operator",
          "type": "address"
        }
      ],
      "name": "isApprovedForAll",
      "outputs": [
        {
          "internalType": "bool",
          "name": "",
          "type": "bool"
        }
      ],
      "stateMutability": "view",
      "type": "function",
      "constant": true
    },
    {
      "inputs": [
        {
          "internalType": "uint256",
          "name": "",
          "type": "uint256"
        }
      ],
      "name": "loveLocks",
      "outputs": [
        {
          "internalType": "string",
          "name": "title",
          "type": "string"
        },
        {
          "internalType": "uint32",
          "name": "currentLength",
          "type": "uint32"
        },
        {
          "internalType": "uint32",
          "name": "notesLimit",
          "type": "uint32"
        },
        {
          "internalType": "uint32",
          "name": "styleId",
          "type": "uint32"
        },
        {
          "internalType": "int128",
          "name": "slotPos",
          "type": "int128"
        }
      ],
      "stateMutability": "view",
      "type": "function",
      "constant": true
    },
    {
      "inputs": [],
      "name": "name",
      "outputs": [
        {
          "internalType": "string",
          "name": "",
          "type": "string"
        }
      ],
      "stateMutability": "view",
      "type": "function",
      "constant": true
    },
    {
      "inputs": [],
      "name": "numLoveLocks",
      "outputs": [
        {
          "internalType": "uint256",
          "name": "",
          "type": "uint256"
        }
      ],
      "stateMutability": "view",
      "type": "function",
      "constant": true
    },
    {
      "inputs": [
        {
          "internalType": "uint256",
          "name": "tokenId",
          "type": "uint256"
        }
      ],
      "name": "ownerOf",
      "outputs": [
        {
          "internalType": "address",
          "name": "",
          "type": "address"
        }
      ],
      "stateMutability": "view",
      "type": "function",
      "constant": true
    },
    {
      "inputs": [
        {
          "internalType": "address",
          "name": "from",
          "type": "address"
        },
        {
          "internalType": "address",
          "name": "to",
          "type": "address"
        },
        {
          "internalType": "uint256",
          "name": "tokenId",
          "type": "uint256"
        }
      ],
      "name": "safeTransferFrom",
      "outputs": [],
      "stateMutability": "nonpayable",
      "type": "function"
    },
    {
      "inputs": [
        {
          "internalType": "address",
          "name": "from",
          "type": "address"
        },
        {
          "internalType": "address",
          "name": "to",
          "type": "address"
        },
        {
          "internalType": "uint256",
          "name": "tokenId",
          "type": "uint256"
        },
        {
          "internalType": "bytes",
          "name": "_data",
          "type": "bytes"
        }
      ],
      "name": "safeTransferFrom",
      "outputs": [],
      "stateMutability": "nonpayable",
      "type": "function"
    },
    {
      "inputs": [],
      "name": "saleContract",
      "outputs": [
        {
          "internalType": "contract SaleLoveLock",
          "name": "",
          "type": "address"
        }
      ],
      "stateMutability": "view",
      "type": "function",
      "constant": true
    },
    {
      "inputs": [
        {
          "internalType": "address",
          "name": "operator",
          "type": "address"
        },
        {
          "internalType": "bool",
          "name": "approved",
          "type": "bool"
        }
      ],
      "name": "setApprovalForAll",
      "outputs": [],
      "stateMutability": "nonpayable",
      "type": "function"
    },
    {
      "inputs": [
        {
          "internalType": "address",
          "name": "_newCEO",
          "type": "address"
        }
      ],
      "name": "setCEO",
      "outputs": [],
      "stateMutability": "nonpayable",
      "type": "function"
    },
    {
      "inputs": [
        {
          "internalType": "address",
          "name": "_newCOO",
          "type": "address"
        }
      ],
      "name": "setCOO",
      "outputs": [],
      "stateMutability": "nonpayable",
      "type": "function"
    },
    {
      "inputs": [
        {
          "internalType": "bytes4",
          "name": "interfaceId",
          "type": "bytes4"
        }
      ],
      "name": "supportsInterface",
      "outputs": [
        {
          "internalType": "bool",
          "name": "",
          "type": "bool"
        }
      ],
      "stateMutability": "view",
      "type": "function",
      "constant": true
    },
    {
      "inputs": [],
      "name": "symbol",
      "outputs": [
        {
          "internalType": "string",
          "name": "",
          "type": "string"
        }
      ],
      "stateMutability": "view",
      "type": "function",
      "constant": true
    },
    {
      "inputs": [
        {
          "internalType": "uint256",
          "name": "index",
          "type": "uint256"
        }
      ],
      "name": "tokenByIndex",
      "outputs": [
        {
          "internalType": "uint256",
          "name": "",
          "type": "uint256"
        }
      ],
      "stateMutability": "view",
      "type": "function",
      "constant": true
    },
    {
      "inputs": [
        {
          "internalType": "address",
          "name": "owner",
          "type": "address"
        },
        {
          "internalType": "uint256",
          "name": "index",
          "type": "uint256"
        }
      ],
      "name": "tokenOfOwnerByIndex",
      "outputs": [
        {
          "internalType": "uint256",
          "name": "",
          "type": "uint256"
        }
      ],
      "stateMutability": "view",
      "type": "function",
      "constant": true
    },
    {
      "inputs": [
        {
          "internalType": "uint256",
          "name": "tokenId",
          "type": "uint256"
        }
      ],
      "name": "tokenURI",
      "outputs": [
        {
          "internalType": "string",
          "name": "",
          "type": "string"
        }
      ],
      "stateMutability": "view",
      "type": "function",
      "constant": true
    },
    {
      "inputs": [],
      "name": "totalSupply",
      "outputs": [
        {
          "internalType": "uint256",
          "name": "",
          "type": "uint256"
        }
      ],
      "stateMutability": "view",
      "type": "function",
      "constant": true
    },
    {
      "inputs": [
        {
          "internalType": "address",
          "name": "from",
          "type": "address"
        },
        {
          "internalType": "address",
          "name": "to",
          "type": "address"
        },
        {
          "internalType": "uint256",
          "name": "tokenId",
          "type": "uint256"
        }
      ],
      "name": "transferFrom",
      "outputs": [],
      "stateMutability": "nonpayable",
      "type": "function"
    },
    {
      "inputs": [
        {
          "internalType": "int128",
          "name": "",
          "type": "int128"
        }
      ],
      "name": "usedSlot",
      "outputs": [
        {
          "internalType": "bool",
          "name": "",
          "type": "bool"
        }
      ],
      "stateMutability": "view",
      "type": "function",
      "constant": true
    },
    {
      "inputs": [
        {
          "internalType": "uint256",
          "name": "tokenId",
          "type": "uint256"
        }
      ],
      "name": "deleteLock",
      "outputs": [],
      "stateMutability": "nonpayable",
      "type": "function"
    },
    {
      "inputs": [
        {
          "internalType": "uint256",
          "name": "tokenId",
          "type": "uint256"
        },
        {
          "internalType": "string",
          "name": "note",
          "type": "string"
        }
      ],
      "name": "addNote",
      "outputs": [],
      "stateMutability": "nonpayable",
      "type": "function"
    },
    {
      "inputs": [
        {
          "internalType": "uint256",
          "name": "tokenId",
          "type": "uint256"
        },
        {
          "internalType": "uint256",
          "name": "index",
          "type": "uint256"
        }
      ],
      "name": "getNote",
      "outputs": [
        {
          "internalType": "string",
          "name": "",
          "type": "string"
        }
      ],
      "stateMutability": "view",
      "type": "function",
      "constant": true
    },
    {
      "inputs": [
        {
          "internalType": "uint256",
          "name": "tokenId",
          "type": "uint256"
        },
        {
          "internalType": "int128",
          "name": "slotId",
          "type": "int128"
        }
      ],
      "name": "hangLL",
      "outputs": [],
      "stateMutability": "nonpayable",
      "type": "function"
    },
    {
      "inputs": [
        {
          "internalType": "int128",
          "name": "slotId",
          "type": "int128"
        }
      ],
      "name": "getLockOnSlot",
      "outputs": [
        {
          "internalType": "uint256",
          "name": "",
          "type": "uint256"
        }
      ],
      "stateMutability": "view",
      "type": "function",
      "constant": true
    },
    {
      "inputs": [
        {
          "internalType": "address",
          "name": "_address",
          "type": "address"
        }
      ],
      "name": "setSaleContractAddress",
      "outputs": [],
      "stateMutability": "nonpayable",
      "type": "function"
    },
    {
      "inputs": [
        {
          "internalType": "uint32",
          "name": "styleId",
          "type": "uint32"
        },
        {
          "internalType": "uint32",
          "name": "notesLimit",
          "type": "uint32"
        }
      ],
      "name": "createLLtoSell",
      "outputs": [],
      "stateMutability": "payable",
      "type": "function",
      "payable": true
    },
    {
      "inputs": [
        {
          "internalType": "uint32",
          "name": "styleId",
          "type": "uint32"
        },
        {
          "internalType": "uint32",
          "name": "notesLimit",
          "type": "uint32"
        },
        {
          "internalType": "address",
          "name": "owner",
          "type": "address"
        }
      ],
      "name": "createLL",
      "outputs": [
        {
          "internalType": "uint256",
          "name": "",
          "type": "uint256"
        }
      ],
      "stateMutability": "nonpayable",
      "type": "function"
    }
  ],
  "bytecode": "0x60806040523480156200001157600080fd5b506040518060400160405280600981526020017f4c6f7665204c6f636b00000000000000000000000000000000000000000000008152506040518060400160405280600281526020017f4c4c000000000000000000000000000000000000000000000000000000000000815250620000966301ffc9a760e01b620001ac60201b60201c565b8160089080519060200190620000ae929190620002d2565b508060099080519060200190620000c7929190620002d2565b50620000e06380ac58cd60e01b620001ac60201b60201c565b620000f8635b5e139f60e01b620001ac60201b60201c565b6200011063780e9d6360e01b620001ac60201b60201c565b5050336000806101000a81548173ffffffffffffffffffffffffffffffffffffffff021916908373ffffffffffffffffffffffffffffffffffffffff160217905550620001986040518060400160405280602081526020017f68747470733a2f2f7373747368656e73687574616f2e6769746875622e696f2f815250620002b660201b60201c565b66038d7ea4c6800060118190555062000381565b63ffffffff60e01b817bffffffffffffffffffffffffffffffffffffffffffffffffffffffff1916141562000249576040517f08c379a000000000000000000000000000000000000000000000000000000000815260040180806020018281038252601c8152602001807f4552433136353a20696e76616c696420696e746572666163652069640000000081525060200191505060405180910390fd5b600160026000837bffffffffffffffffffffffffffffffffffffffffffffffffffffffff19167bffffffffffffffffffffffffffffffffffffffffffffffffffffffff1916815260200190815260200160002060006101000a81548160ff02191690831515021790555050565b80600b9080519060200190620002ce929190620002d2565b5050565b828054600181600116156101000203166002900490600052602060002090601f016020900481019282601f106200031557805160ff191683800117855562000346565b8280016001018555821562000346579182015b828111156200034557825182559160200191906001019062000328565b5b50905062000355919062000359565b5090565b6200037e91905b808211156200037a57600081600090555060010162000360565b5090565b90565b6147b780620003916000396000f3fe6080604052600436106101f95760003560e01c806370a082311161010d578063bc4da879116100a0578063db491e801161006f578063db491e8014610f4c578063ddc2be0f1461100a578063e69e04b31461104e578063e985e9c514611079578063ec4cbb2014611102576101f9565b8063bc4da87914610d1e578063c82a808a14610df0578063c87b56dd14610e41578063daf6ca3014610ef5576101f9565b8063a22cb465116100dc578063a22cb46514610b10578063b047fb5014610b6d578063b5193e8014610bc4578063b88d4fde14610c0c576101f9565b806370a082311461094057806377057b3a146109a557806395d89b41146109fb5780639d51d88a14610a8b576101f9565b806327d7874c1161019057806342842e0e1161015f57806342842e0e146106715780634f6ccce7146106ec5780636352211e1461073b578063641f2fb2146107b65780636c0360eb146108b0576101f9565b806327d7874c146105255780632ba73c15146105765780632f745c59146105c757806333790ba314610636576101f9565b80630a0f8168116101cc5780630a0f8168146103d6578063134dbd541461042d57806318160ddd1461047f57806323b872dd146104aa576101f9565b806301ffc9a7146101fe57806306fdde0314610270578063081812fc14610300578063095ea7b31461037b575b600080fd5b34801561020a57600080fd5b506102566004803603602081101561022157600080fd5b8101908080357bffffffffffffffffffffffffffffffffffffffffffffffffffffffff1916906020019092919050505061112d565b604051808215151515815260200191505060405180910390f35b34801561027c57600080fd5b50610285611195565b6040518080602001828103825283818151815260200191508051906020019080838360005b838110156102c55780820151818401526020810190506102aa565b50505050905090810190601f1680156102f25780820380516001836020036101000a031916815260200191505b509250505060405180910390f35b34801561030c57600080fd5b506103396004803603602081101561032357600080fd5b8101908080359060200190929190505050611237565b604051808273ffffffffffffffffffffffffffffffffffffffff1673ffffffffffffffffffffffffffffffffffffffff16815260200191505060405180910390f35b34801561038757600080fd5b506103d46004803603604081101561039e57600080fd5b81019080803573ffffffffffffffffffffffffffffffffffffffff169060200190929190803590602001909291905050506112d2565b005b3480156103e257600080fd5b506103eb611416565b604051808273ffffffffffffffffffffffffffffffffffffffff1673ffffffffffffffffffffffffffffffffffffffff16815260200191505060405180910390f35b34801561043957600080fd5b506104696004803603602081101561045057600080fd5b810190808035600f0b906020019092919050505061143b565b6040518082815260200191505060405180910390f35b34801561048b57600080fd5b506104946114f7565b6040518082815260200191505060405180910390f35b3480156104b657600080fd5b50610523600480360360608110156104cd57600080fd5b81019080803573ffffffffffffffffffffffffffffffffffffffff169060200190929190803573ffffffffffffffffffffffffffffffffffffffff16906020019092919080359060200190929190505050611508565b005b34801561053157600080fd5b506105746004803603602081101561054857600080fd5b81019080803573ffffffffffffffffffffffffffffffffffffffff16906020019092919050505061157e565b005b34801561058257600080fd5b506105c56004803603602081101561059957600080fd5b81019080803573ffffffffffffffffffffffffffffffffffffffff169060200190929190505050611726565b005b3480156105d357600080fd5b50610620600480360360408110156105ea57600080fd5b81019080803573ffffffffffffffffffffffffffffffffffffffff169060200190929190803590602001909291905050506118cf565b6040518082815260200191505060405180910390f35b34801561064257600080fd5b5061066f6004803603602081101561065957600080fd5b810190808035906020019092919050505061192a565b005b34801561067d57600080fd5b506106ea6004803603606081101561069457600080fd5b81019080803573ffffffffffffffffffffffffffffffffffffffff169060200190929190803573ffffffffffffffffffffffffffffffffffffffff16906020019092919080359060200190929190505050611a3a565b005b3480156106f857600080fd5b506107256004803603602081101561070f57600080fd5b8101908080359060200190929190505050611a5a565b6040518082815260200191505060405180910390f35b34801561074757600080fd5b506107746004803603602081101561075e57600080fd5b8101908080359060200190929190505050611a7d565b604051808273ffffffffffffffffffffffffffffffffffffffff1673ffffffffffffffffffffffffffffffffffffffff16815260200191505060405180910390f35b3480156107c257600080fd5b506107ef600480360360208110156107d957600080fd5b8101908080359060200190929190505050611ab4565b60405180806020018663ffffffff1663ffffffff1681526020018563ffffffff1663ffffffff1681526020018463ffffffff1663ffffffff16815260200183600f0b600f0b8152602001828103825287818151815260200191508051906020019080838360005b83811015610871578082015181840152602081019050610856565b50505050905090810190601f16801561089e5780820380516001836020036101000a031916815260200191505b50965050505050505060405180910390f35b3480156108bc57600080fd5b506108c5611bbf565b6040518080602001828103825283818151815260200191508051906020019080838360005b838110156109055780820151818401526020810190506108ea565b50505050905090810190601f1680156109325780820380516001836020036101000a031916815260200191505b509250505060405180910390f35b34801561094c57600080fd5b5061098f6004803603602081101561096357600080fd5b81019080803573ffffffffffffffffffffffffffffffffffffffff169060200190929190505050611c61565b6040518082815260200191505060405180910390f35b3480156109b157600080fd5b506109e1600480360360208110156109c857600080fd5b810190808035600f0b9060200190929190505050611d36565b604051808215151515815260200191505060405180910390f35b348015610a0757600080fd5b50610a10611d56565b6040518080602001828103825283818151815260200191508051906020019080838360005b83811015610a50578082015181840152602081019050610a35565b50505050905090810190601f168015610a7d5780820380516001836020036101000a031916815260200191505b509250505060405180910390f35b348015610a9757600080fd5b50610afa60048036036060811015610aae57600080fd5b81019080803563ffffffff169060200190929190803563ffffffff169060200190929190803573ffffffffffffffffffffffffffffffffffffffff169060200190929190505050611df8565b6040518082815260200191505060405180910390f35b348015610b1c57600080fd5b50610b6b60048036036040811015610b3357600080fd5b81019080803573ffffffffffffffffffffffffffffffffffffffff1690602001909291908035151590602001909291905050506120ad565b005b348015610b7957600080fd5b50610b82612265565b604051808273ffffffffffffffffffffffffffffffffffffffff1673ffffffffffffffffffffffffffffffffffffffff16815260200191505060405180910390f35b348015610bd057600080fd5b50610c0a60048036036040811015610be757600080fd5b81019080803590602001909291908035600f0b906020019092919050505061228b565b005b348015610c1857600080fd5b50610d1c60048036036080811015610c2f57600080fd5b81019080803573ffffffffffffffffffffffffffffffffffffffff169060200190929190803573ffffffffffffffffffffffffffffffffffffffff1690602001909291908035906020019092919080359060200190640100000000811115610c9657600080fd5b820183602082011115610ca857600080fd5b80359060200191846001830284011164010000000083111715610cca57600080fd5b91908080601f016020809104026020016040519081016040528093929190818152602001838380828437600081840152601f19601f82011690508083019250505050505050919291929050505061257a565b005b348015610d2a57600080fd5b50610dee60048036036040811015610d4157600080fd5b810190808035906020019092919080359060200190640100000000811115610d6857600080fd5b820183602082011115610d7a57600080fd5b80359060200191846001830284011164010000000083111715610d9c57600080fd5b91908080601f016020809104026020016040519081016040528093929190818152602001838380828437600081840152601f19601f8201169050808301925050505050505091929192905050506125f2565b005b348015610dfc57600080fd5b50610e3f60048036036020811015610e1357600080fd5b81019080803573ffffffffffffffffffffffffffffffffffffffff1690602001909291905050506127ab565b005b348015610e4d57600080fd5b50610e7a60048036036020811015610e6457600080fd5b81019080803590602001909291905050506128b7565b6040518080602001828103825283818151815260200191508051906020019080838360005b83811015610eba578082015181840152602081019050610e9f565b50505050905090810190601f168015610ee75780820380516001836020036101000a031916815260200191505b509250505060405180910390f35b348015610f0157600080fd5b50610f0a612ba0565b604051808273ffffffffffffffffffffffffffffffffffffffff1673ffffffffffffffffffffffffffffffffffffffff16815260200191505060405180910390f35b348015610f5857600080fd5b50610f8f60048036036040811015610f6f57600080fd5b810190808035906020019092919080359060200190929190505050612bc6565b6040518080602001828103825283818151815260200191508051906020019080838360005b83811015610fcf578082015181840152602081019050610fb4565b50505050905090810190601f168015610ffc5780820380516001836020036101000a031916815260200191505b509250505060405180910390f35b61104c6004803603604081101561102057600080fd5b81019080803563ffffffff169060200190929190803563ffffffff169060200190929190505050612c94565b005b34801561105a57600080fd5b50611063612f28565b6040518082815260200191505060405180910390f35b34801561108557600080fd5b506110e86004803603604081101561109c57600080fd5b81019080803573ffffffffffffffffffffffffffffffffffffffff169060200190929190803573ffffffffffffffffffffffffffffffffffffffff169060200190929190505050612f2e565b604051808215151515815260200191505060405180910390f35b34801561110e57600080fd5b50611117612fc2565b6040518082815260200191505060405180910390f35b600060026000837bffffffffffffffffffffffffffffffffffffffffffffffffffffffff19167bffffffffffffffffffffffffffffffffffffffffffffffffffffffff1916815260200190815260200160002060009054906101000a900460ff169050919050565b606060088054600181600116156101000203166002900480601f01602080910402602001604051908101604052809291908181526020018280546001816001161561010002031660029004801561122d5780601f106112025761010080835404028352916020019161122d565b820191906000526020600020905b81548152906001019060200180831161121057829003601f168201915b5050505050905090565b600061124282612fc8565b611297576040517f08c379a000000000000000000000000000000000000000000000000000000000815260040180806020018281038252602c8152602001806146ac602c913960400191505060405180910390fd5b6006600083815260200190815260200160002060009054906101000a900473ffffffffffffffffffffffffffffffffffffffff169050919050565b60006112dd82611a7d565b90508073ffffffffffffffffffffffffffffffffffffffff168373ffffffffffffffffffffffffffffffffffffffff161415611364576040517f08c379a00000000000000000000000000000000000000000000000000000000081526004018080602001828103825260218152602001806147306021913960400191505060405180910390fd5b8073ffffffffffffffffffffffffffffffffffffffff16611383612fe5565b73ffffffffffffffffffffffffffffffffffffffff1614806113b257506113b1816113ac612fe5565b612f2e565b5b611407576040517f08c379a00000000000000000000000000000000000000000000000000000000081526004018080602001828103825260388152602001806145ff6038913960400191505060405180910390fd5b6114118383612fed565b505050565b6000809054906101000a900473ffffffffffffffffffffffffffffffffffffffff1681565b6000600e600083600f0b600f0b815260200190815260200160002060009054906101000a900460ff166114d6576040517f08c379a00000000000000000000000000000000000000000000000000000000081526004018080602001828103825260158152602001807f7468697320736c6f74206973206e6f742075736564000000000000000000000081525060200191505060405180910390fd5b600f600083600f0b600f0b8152602001908152602001600020549050919050565b600061150360046130a6565b905090565b611519611513612fe5565b826130bb565b61156e576040517f08c379a00000000000000000000000000000000000000000000000000000000081526004018080602001828103825260318152602001806147516031913960400191505060405180910390fd5b6115798383836131af565b505050565b6000809054906101000a900473ffffffffffffffffffffffffffffffffffffffff1673ffffffffffffffffffffffffffffffffffffffff163373ffffffffffffffffffffffffffffffffffffffff1614611640576040517f08c379a00000000000000000000000000000000000000000000000000000000081526004018080602001828103825260168152602001807f736f7272792c20796f7520617265206e6f742063656f0000000000000000000081525060200191505060405180910390fd5b600073ffffffffffffffffffffffffffffffffffffffff168173ffffffffffffffffffffffffffffffffffffffff1614156116e3576040517f08c379a00000000000000000000000000000000000000000000000000000000081526004018080602001828103825260168152602001807f736f7272792c20796f7520617265206e6f742063656f0000000000000000000081525060200191505060405180910390fd5b806000806101000a81548173ffffffffffffffffffffffffffffffffffffffff021916908373ffffffffffffffffffffffffffffffffffffffff16021790555050565b6000809054906101000a900473ffffffffffffffffffffffffffffffffffffffff1673ffffffffffffffffffffffffffffffffffffffff163373ffffffffffffffffffffffffffffffffffffffff16146117e8576040517f08c379a00000000000000000000000000000000000000000000000000000000081526004018080602001828103825260168152602001807f736f7272792c20796f7520617265206e6f742063656f0000000000000000000081525060200191505060405180910390fd5b600073ffffffffffffffffffffffffffffffffffffffff168173ffffffffffffffffffffffffffffffffffffffff16141561188b576040517f08c379a00000000000000000000000000000000000000000000000000000000081526004018080602001828103825260168152602001807f736f7272792c20796f7520617265206e6f742063656f0000000000000000000081525060200191505060405180910390fd5b80600160006101000a81548173ffffffffffffffffffffffffffffffffffffffff021916908373ffffffffffffffffffffffffffffffffffffffff16021790555050565b600061192282600360008673ffffffffffffffffffffffffffffffffffffffff1673ffffffffffffffffffffffffffffffffffffffff1681526020019081526020016000206133f290919063ffffffff16565b905092915050565b61193b611935612fe5565b826130bb565b611990576040517f08c379a00000000000000000000000000000000000000000000000000000000081526004018080602001828103825260218152602001806144f76021913960400191505060405180910390fd5b6119998161340c565b600c6000828152602001908152602001600020600080820160006119bd91906143bc565b6001820160006119cd9190614404565b6002820160006101000a81549063ffffffff02191690556002820160046101000a81549063ffffffff02191690556002820160086101000a81549063ffffffff021916905560028201600c6101000a8154906fffffffffffffffffffffffffffffffff0219169055505050565b611a558383836040518060200160405280600081525061257a565b505050565b600080611a7183600461354690919063ffffffff16565b50905080915050919050565b6000611aad826040518060600160405280602981526020016146616029913960046135759092919063ffffffff16565b9050919050565b600c602052806000526040600020600091509050806000018054600181600116156101000203166002900480601f016020809104026020016040519081016040528092919081815260200182805460018160011615610100020316600290048015611b605780601f10611b3557610100808354040283529160200191611b60565b820191906000526020600020905b815481529060010190602001808311611b4357829003601f168201915b5050505050908060020160009054906101000a900463ffffffff16908060020160049054906101000a900463ffffffff16908060020160089054906101000a900463ffffffff169080600201600c9054906101000a9004600f0b905085565b6060600b8054600181600116156101000203166002900480601f016020809104026020016040519081016040528092919081815260200182805460018160011615610100020316600290048015611c575780601f10611c2c57610100808354040283529160200191611c57565b820191906000526020600020905b815481529060010190602001808311611c3a57829003601f168201915b5050505050905090565b60008073ffffffffffffffffffffffffffffffffffffffff168273ffffffffffffffffffffffffffffffffffffffff161415611ce8576040517f08c379a000000000000000000000000000000000000000000000000000000000815260040180806020018281038252602a815260200180614637602a913960400191505060405180910390fd5b611d2f600360008473ffffffffffffffffffffffffffffffffffffffff1673ffffffffffffffffffffffffffffffffffffffff168152602001908152602001600020613594565b9050919050565b600e6020528060005260406000206000915054906101000a900460ff1681565b606060098054600181600116156101000203166002900480601f016020809104026020016040519081016040528092919081815260200182805460018160011615610100020316600290048015611dee5780601f10611dc357610100808354040283529160200191611dee565b820191906000526020600020905b815481529060010190602001808311611dd157829003601f168201915b5050505050905090565b6000600160009054906101000a900473ffffffffffffffffffffffffffffffffffffffff1673ffffffffffffffffffffffffffffffffffffffff163373ffffffffffffffffffffffffffffffffffffffff161480611ea257506000809054906101000a900473ffffffffffffffffffffffffffffffffffffffff1673ffffffffffffffffffffffffffffffffffffffff163373ffffffffffffffffffffffffffffffffffffffff16145b611f14576040517f08c379a000000000000000000000000000000000000000000000000000000000815260040180806020018281038252601d8152602001807f736f7272792c20796f7520617265206e6f742063656f206f7220636f6f00000081525060200191505060405180910390fd5b8363ffffffff168463ffffffff1614611f2c57600080fd5b8263ffffffff168363ffffffff1614611f4457600080fd5b6000600d5490508063ffffffff168114611f5d57600080fd5b611f6783826135a9565b6000600c6000600d5481526020019081526020016000209050848160020160046101000a81548163ffffffff021916908363ffffffff160217905550858160020160086101000a81548163ffffffff021916908363ffffffff1602179055507fffffffffffffffffffffffffffffffffffffffffffffffffffffffffffffffff81600201600c6101000a8154816fffffffffffffffffffffffffffffffff0219169083600f0b6fffffffffffffffffffffffffffffffff160217905550600d600081548092919060010191905055507fcc9018de05b5f497ee7618d8830568d8ac2d45d0671b73d8f71c67e824122ec78483604051808373ffffffffffffffffffffffffffffffffffffffff1673ffffffffffffffffffffffffffffffffffffffff1681526020018281526020019250505060405180910390a181925050509392505050565b6120b5612fe5565b73ffffffffffffffffffffffffffffffffffffffff168273ffffffffffffffffffffffffffffffffffffffff161415612156576040517f08c379a00000000000000000000000000000000000000000000000000000000081526004018080602001828103825260198152602001807f4552433732313a20617070726f766520746f2063616c6c65720000000000000081525060200191505060405180910390fd5b8060076000612163612fe5565b73ffffffffffffffffffffffffffffffffffffffff1673ffffffffffffffffffffffffffffffffffffffff16815260200190815260200160002060008473ffffffffffffffffffffffffffffffffffffffff1673ffffffffffffffffffffffffffffffffffffffff16815260200190815260200160002060006101000a81548160ff0219169083151502179055508173ffffffffffffffffffffffffffffffffffffffff16612210612fe5565b73ffffffffffffffffffffffffffffffffffffffff167f17307eab39ab6107e8899845ad3d59bd9653f200f220920489ca2b5937696c3183604051808215151515815260200191505060405180910390a35050565b600160009054906101000a900473ffffffffffffffffffffffffffffffffffffffff1681565b61229c612296612fe5565b836130bb565b6122f1576040517f08c379a00000000000000000000000000000000000000000000000000000000081526004018080602001828103825260218152602001806144f76021913960400191505060405180910390fd5b600e600082600f0b600f0b815260200190815260200160002060009054906101000a900460ff161561238b576040517f08c379a000000000000000000000000000000000000000000000000000000000815260040180806020018281038252601f8152602001807f7468697320697320616c72656164792074616b656e206279206f74686572730081525060200191505060405180910390fd5b7fffffffffffffffffffffffffffffffffffffffffffffffffffffffffffffffff81600f0b1215612424576040517f08c379a00000000000000000000000000000000000000000000000000000000081526004018080602001828103825260118152602001807f736c6f744944206d757374203e3d202d3100000000000000000000000000000081525060200191505060405180910390fd5b6000600c6000848152602001908152602001600020600201600c9054906101000a9004600f0b90507fffffffffffffffffffffffffffffffffffffffffffffffffffffffffffffffff81600f0b13156124aa576000600e600083600f0b600f0b815260200190815260200160002060006101000a81548160ff0219169083151502179055505b7fffffffffffffffffffffffffffffffffffffffffffffffffffffffffffffffff82600f0b14612575576001600e600084600f0b600f0b815260200190815260200160002060006101000a81548160ff02191690831515021790555081600c6000858152602001908152602001600020600201600c6101000a8154816fffffffffffffffffffffffffffffffff0219169083600f0b6fffffffffffffffffffffffffffffffff16021790555082600f600084600f0b600f0b8152602001908152602001600020819055505b505050565b61258b612585612fe5565b836130bb565b6125e0576040517f08c379a00000000000000000000000000000000000000000000000000000000081526004018080602001828103825260318152602001806147516031913960400191505060405180910390fd5b6125ec848484846135c7565b50505050565b6126036125fd612fe5565b836130bb565b612658576040517f08c379a00000000000000000000000000000000000000000000000000000000081526004018080602001828103825260218152602001806144f76021913960400191505060405180910390fd5b600c600083815260200190815260200160002060020160049054906101000a900463ffffffff1663ffffffff16600c600084815260200190815260200160002060020160009054906101000a900463ffffffff1663ffffffff1610612708576040517f08c379a00000000000000000000000000000000000000000000000000000000081526004018080602001828103825260218152602001806144f76021913960400191505060405180910390fd5b600c600083815260200190815260200160002060010181908060018154018082558091505060019003906000526020600020016000909190919091509080519060200190612757929190614425565b50600c6000838152602001908152602001600020600201600081819054906101000a900463ffffffff168092919060010191906101000a81548163ffffffff021916908363ffffffff160217905550505050565b6000809054906101000a900473ffffffffffffffffffffffffffffffffffffffff1673ffffffffffffffffffffffffffffffffffffffff163373ffffffffffffffffffffffffffffffffffffffff161461286d576040517f08c379a00000000000000000000000000000000000000000000000000000000081526004018080602001828103825260168152602001807f736f7272792c20796f7520617265206e6f742063656f0000000000000000000081525060200191505060405180910390fd5b600081905080601060006101000a81548173ffffffffffffffffffffffffffffffffffffffff021916908373ffffffffffffffffffffffffffffffffffffffff1602179055505050565b60606128c282612fc8565b612917576040517f08c379a000000000000000000000000000000000000000000000000000000000815260040180806020018281038252602f815260200180614701602f913960400191505060405180910390fd5b6060600a60008481526020019081526020016000208054600181600116156101000203166002900480601f0160208091040260200160405190810160405280929190818152602001828054600181600116156101000203166002900480156129c05780601f10612995576101008083540402835291602001916129c0565b820191906000526020600020905b8154815290600101906020018083116129a357829003601f168201915b505050505090506000600b80546001816001161561010002031660029004905014156129ef5780915050612b9b565b600081511115612ac857600b816040516020018083805460018160011615610100020316600290048015612a5a5780601f10612a38576101008083540402835291820191612a5a565b820191906000526020600020905b815481529060010190602001808311612a46575b505082805190602001908083835b60208310612a8b5780518252602082019150602081019050602083039250612a68565b6001836020036101000a03801982511681845116808217855250505050505090500192505050604051602081830303815290604052915050612b9b565b600b612ad384613639565b6040516020018083805460018160011615610100020316600290048015612b315780601f10612b0f576101008083540402835291820191612b31565b820191906000526020600020905b815481529060010190602001808311612b1d575b505082805190602001908083835b60208310612b625780518252602082019150602081019050602083039250612b3f565b6001836020036101000a038019825116818451168082178552505050505050905001925050506040516020818303038152906040529150505b919050565b601060009054906101000a900473ffffffffffffffffffffffffffffffffffffffff1681565b6060600c60008481526020019081526020016000206001018281548110612be957fe5b906000526020600020018054600181600116156101000203166002900480601f016020809104026020016040519081016040528092919081815260200182805460018160011615610100020316600290048015612c875780601f10612c5c57610100808354040283529160200191612c87565b820191906000526020600020905b815481529060010190602001808311612c6a57829003601f168201915b5050505050905092915050565b600160009054906101000a900473ffffffffffffffffffffffffffffffffffffffff1673ffffffffffffffffffffffffffffffffffffffff163373ffffffffffffffffffffffffffffffffffffffff161480612d3c57506000809054906101000a900473ffffffffffffffffffffffffffffffffffffffff1673ffffffffffffffffffffffffffffffffffffffff163373ffffffffffffffffffffffffffffffffffffffff16145b612dae576040517f08c379a000000000000000000000000000000000000000000000000000000000815260040180806020018281038252601d8152602001807f736f7272792c20796f7520617265206e6f742063656f206f7220636f6f00000081525060200191505060405180910390fd5b601154341015612e09576040517f08c379a00000000000000000000000000000000000000000000000000000000081526004018080602001828103825260438152602001806145906043913960600191505060405180910390fd5b6000612e1d8383612e18612fe5565b611df8565b9050612e4b601060009054906101000a900473ffffffffffffffffffffffffffffffffffffffff16826112d2565b601060009054906101000a900473ffffffffffffffffffffffffffffffffffffffff1673ffffffffffffffffffffffffffffffffffffffff1663995cd65382671bc16d674ec80000612e9b612fe5565b6040518463ffffffff1660e01b8152600401808481526020018381526020018273ffffffffffffffffffffffffffffffffffffffff1673ffffffffffffffffffffffffffffffffffffffff1681526020019350505050600060405180830381600087803b158015612f0b57600080fd5b505af1158015612f1f573d6000803e3d6000fd5b50505050505050565b60115481565b6000600760008473ffffffffffffffffffffffffffffffffffffffff1673ffffffffffffffffffffffffffffffffffffffff16815260200190815260200160002060008373ffffffffffffffffffffffffffffffffffffffff1673ffffffffffffffffffffffffffffffffffffffff16815260200190815260200160002060009054906101000a900460ff16905092915050565b600d5481565b6000612fde82600461378090919063ffffffff16565b9050919050565b600033905090565b816006600083815260200190815260200160002060006101000a81548173ffffffffffffffffffffffffffffffffffffffff021916908373ffffffffffffffffffffffffffffffffffffffff160217905550808273ffffffffffffffffffffffffffffffffffffffff1661306083611a7d565b73ffffffffffffffffffffffffffffffffffffffff167f8c5be1e5ebec7d5bd14f71427d1e84f3dd0314c0f7b2291e5b200ac8c7c3b92560405160405180910390a45050565b60006130b48260000161379a565b9050919050565b60006130c682612fc8565b61311b576040517f08c379a000000000000000000000000000000000000000000000000000000000815260040180806020018281038252602c8152602001806145d3602c913960400191505060405180910390fd5b600061312683611a7d565b90508073ffffffffffffffffffffffffffffffffffffffff168473ffffffffffffffffffffffffffffffffffffffff16148061319557508373ffffffffffffffffffffffffffffffffffffffff1661317d84611237565b73ffffffffffffffffffffffffffffffffffffffff16145b806131a657506131a58185612f2e565b5b91505092915050565b8273ffffffffffffffffffffffffffffffffffffffff166131cf82611a7d565b73ffffffffffffffffffffffffffffffffffffffff161461323b576040517f08c379a00000000000000000000000000000000000000000000000000000000081526004018080602001828103825260298152602001806146d86029913960400191505060405180910390fd5b600073ffffffffffffffffffffffffffffffffffffffff168273ffffffffffffffffffffffffffffffffffffffff1614156132c1576040517f08c379a000000000000000000000000000000000000000000000000000000000815260040180806020018281038252602481526020018061456c6024913960400191505060405180910390fd5b6132cc8383836137ab565b6132d7600082612fed565b61332881600360008673ffffffffffffffffffffffffffffffffffffffff1673ffffffffffffffffffffffffffffffffffffffff1681526020019081526020016000206137b090919063ffffffff16565b5061337a81600360008573ffffffffffffffffffffffffffffffffffffffff1673ffffffffffffffffffffffffffffffffffffffff1681526020019081526020016000206137ca90919063ffffffff16565b50613391818360046137e49092919063ffffffff16565b50808273ffffffffffffffffffffffffffffffffffffffff168473ffffffffffffffffffffffffffffffffffffffff167fddf252ad1be2c89b69c2b068fc378daa952ba7f163c4a11628f55a4df523b3ef60405160405180910390a4505050565b60006134018360000183613819565b60001c905092915050565b600061341782611a7d565b9050613425816000846137ab565b613430600083612fed565b6000600a60008481526020019081526020016000208054600181600116156101000203166002900490501461347f57600a6000838152602001908152602001600020600061347e91906143bc565b5b6134d082600360008473ffffffffffffffffffffffffffffffffffffffff1673ffffffffffffffffffffffffffffffffffffffff1681526020019081526020016000206137b090919063ffffffff16565b506134e582600461389c90919063ffffffff16565b5081600073ffffffffffffffffffffffffffffffffffffffff168273ffffffffffffffffffffffffffffffffffffffff167fddf252ad1be2c89b69c2b068fc378daa952ba7f163c4a11628f55a4df523b3ef60405160405180910390a45050565b60008060008061355986600001866138b6565b915091508160001c8160001c8090509350935050509250929050565b6000613588846000018460001b8461394f565b60001c90509392505050565b60006135a282600001613a45565b9050919050565b6135c3828260405180602001604052806000815250613a56565b5050565b6135d28484846131af565b6135de84848484613ac7565b613633576040517f08c379a000000000000000000000000000000000000000000000000000000000815260040180806020018281038252603281526020018061453a6032913960400191505060405180910390fd5b50505050565b60606000821415613681576040518060400160405280600181526020017f3000000000000000000000000000000000000000000000000000000000000000815250905061377b565b600082905060005b600082146136ab578080600101915050600a82816136a357fe5b049150613689565b60608167ffffffffffffffff811180156136c457600080fd5b506040519080825280601f01601f1916602001820160405280156136f75781602001600182028036833780820191505090505b50905060006001830390508593505b6000841461377357600a848161371857fe5b0660300160f81b8282806001900393508151811061373257fe5b60200101907effffffffffffffffffffffffffffffffffffffffffffffffffffffffffffff1916908160001a905350600a848161376b57fe5b049350613706565b819450505050505b919050565b6000613792836000018360001b613dea565b905092915050565b600081600001805490509050919050565b505050565b60006137c2836000018360001b613e0d565b905092915050565b60006137dc836000018360001b613ef5565b905092915050565b6000613810846000018460001b8473ffffffffffffffffffffffffffffffffffffffff1660001b613f65565b90509392505050565b60008183600001805490501161387a576040517f08c379a00000000000000000000000000000000000000000000000000000000081526004018080602001828103825260228152602001806145186022913960400191505060405180910390fd5b82600001828154811061388957fe5b9060005260206000200154905092915050565b60006138ae836000018360001b614041565b905092915050565b60008082846000018054905011613918576040517f08c379a000000000000000000000000000000000000000000000000000000000815260040180806020018281038252602281526020018061468a6022913960400191505060405180910390fd5b600084600001848154811061392957fe5b906000526020600020906002020190508060000154816001015492509250509250929050565b60008084600101600085815260200190815260200160002054905060008114158390613a16576040517f08c379a00000000000000000000000000000000000000000000000000000000081526004018080602001828103825283818151815260200191508051906020019080838360005b838110156139db5780820151818401526020810190506139c0565b50505050905090810190601f168015613a085780820380516001836020036101000a031916815260200191505b509250505060405180910390fd5b50846000016001820381548110613a2957fe5b9060005260206000209060020201600101549150509392505050565b600081600001805490509050919050565b613a60838361415a565b613a6d6000848484613ac7565b613ac2576040517f08c379a000000000000000000000000000000000000000000000000000000000815260040180806020018281038252603281526020018061453a6032913960400191505060405180910390fd5b505050565b6000613ae88473ffffffffffffffffffffffffffffffffffffffff1661434e565b613af55760019050613de2565b600060608573ffffffffffffffffffffffffffffffffffffffff1663150b7a0260e01b613b20612fe5565b898888604051602401808573ffffffffffffffffffffffffffffffffffffffff1673ffffffffffffffffffffffffffffffffffffffff1681526020018473ffffffffffffffffffffffffffffffffffffffff1673ffffffffffffffffffffffffffffffffffffffff16815260200183815260200180602001828103825283818151815260200191508051906020019080838360005b83811015613bd0578082015181840152602081019050613bb5565b50505050905090810190601f168015613bfd5780820380516001836020036101000a031916815260200191505b5095505050505050604051602081830303815290604052907bffffffffffffffffffffffffffffffffffffffffffffffffffffffff19166020820180517bffffffffffffffffffffffffffffffffffffffffffffffffffffffff83818316178352505050506040518082805190602001908083835b60208310613c955780518252602082019150602081019050602083039250613c72565b6001836020036101000a0380198251168184511680821785525050505050509050019150506000604051808303816000865af19150503d8060008114613cf7576040519150601f19603f3d011682016040523d82523d6000602084013e613cfc565b606091505b509150915081613d6a57600081511115613d195780518082602001fd5b6040517f08c379a000000000000000000000000000000000000000000000000000000000815260040180806020018281038252603281526020018061453a6032913960400191505060405180910390fd5b6000818060200190516020811015613d8157600080fd5b8101908080519060200190929190505050905063150b7a0260e01b7bffffffffffffffffffffffffffffffffffffffffffffffffffffffff1916817bffffffffffffffffffffffffffffffffffffffffffffffffffffffff19161493505050505b949350505050565b600080836001016000848152602001908152602001600020541415905092915050565b60008083600101600084815260200190815260200160002054905060008114613ee95760006001820390506000600186600001805490500390506000866000018281548110613e5857fe5b9060005260206000200154905080876000018481548110613e7557fe5b9060005260206000200181905550600183018760010160008381526020019081526020016000208190555086600001805480613ead57fe5b60019003818190600052602060002001600090559055866001016000878152602001908152602001600020600090556001945050505050613eef565b60009150505b92915050565b6000613f018383614399565b613f5a578260000182908060018154018082558091505060019003906000526020600020016000909190919091505582600001805490508360010160008481526020019081526020016000208190555060019050613f5f565b600090505b92915050565b600080846001016000858152602001908152602001600020549050600081141561400c5784600001604051806040016040528086815260200185815250908060018154018082558091505060019003906000526020600020906002020160009091909190915060008201518160000155602082015181600101555050846000018054905085600101600086815260200190815260200160002081905550600191505061403a565b8285600001600183038154811061401f57fe5b90600052602060002090600202016001018190555060009150505b9392505050565b6000808360010160008481526020019081526020016000205490506000811461414e576000600182039050600060018660000180549050039050600086600001828154811061408c57fe5b90600052602060002090600202019050808760000184815481106140ac57fe5b90600052602060002090600202016000820154816000015560018201548160010155905050600183018760010160008360000154815260200190815260200160002081905550866000018054806140ff57fe5b6001900381819060005260206000209060020201600080820160009055600182016000905550509055866001016000878152602001908152602001600020600090556001945050505050614154565b60009150505b92915050565b600073ffffffffffffffffffffffffffffffffffffffff168273ffffffffffffffffffffffffffffffffffffffff1614156141fd576040517f08c379a00000000000000000000000000000000000000000000000000000000081526004018080602001828103825260208152602001807f4552433732313a206d696e7420746f20746865207a65726f206164647265737381525060200191505060405180910390fd5b61420681612fc8565b15614279576040517f08c379a000000000000000000000000000000000000000000000000000000000815260040180806020018281038252601c8152602001807f4552433732313a20746f6b656e20616c7265616479206d696e7465640000000081525060200191505060405180910390fd5b614285600083836137ab565b6142d681600360008573ffffffffffffffffffffffffffffffffffffffff1673ffffffffffffffffffffffffffffffffffffffff1681526020019081526020016000206137ca90919063ffffffff16565b506142ed818360046137e49092919063ffffffff16565b50808273ffffffffffffffffffffffffffffffffffffffff16600073ffffffffffffffffffffffffffffffffffffffff167fddf252ad1be2c89b69c2b068fc378daa952ba7f163c4a11628f55a4df523b3ef60405160405180910390a45050565b60008060007fc5d2460186f7233c927e7db2dcc703c0e500b653ca82273b7bfad8045d85a47060001b9050833f915080821415801561439057506000801b8214155b92505050919050565b600080836001016000848152602001908152602001600020541415905092915050565b50805460018160011615610100020316600290046000825580601f106143e25750614401565b601f01602090049060005260206000209081019061440091906144a5565b5b50565b508054600082559060005260206000209081019061442291906144ca565b50565b828054600181600116156101000203166002900490600052602060002090601f016020900481019282601f1061446657805160ff1916838001178555614494565b82800160010185558215614494579182015b82811115614493578251825591602001919060010190614478565b5b5090506144a191906144a5565b5090565b6144c791905b808211156144c35760008160009055506001016144ab565b5090565b90565b6144f391905b808211156144ef57600081816144e691906143bc565b506001016144d0565b5090565b9056fe796f7520617265206e6f7420746865206f776e6572206f7220617070726f766572456e756d657261626c655365743a20696e646578206f7574206f6620626f756e64734552433732313a207472616e7366657220746f206e6f6e20455243373231526563656976657220696d706c656d656e7465724552433732313a207472616e7366657220746f20746865207a65726f206164647265737348692c2063656f2f636f6f2c20796f75206d757374206769766520312066696e6e657920746f20737461727420746865206372656174696f6e206f6620746865204c4c4552433732313a206f70657261746f7220717565727920666f72206e6f6e6578697374656e7420746f6b656e4552433732313a20617070726f76652063616c6c6572206973206e6f74206f776e6572206e6f7220617070726f76656420666f7220616c6c4552433732313a2062616c616e636520717565727920666f7220746865207a65726f20616464726573734552433732313a206f776e657220717565727920666f72206e6f6e6578697374656e7420746f6b656e456e756d657261626c654d61703a20696e646578206f7574206f6620626f756e64734552433732313a20617070726f76656420717565727920666f72206e6f6e6578697374656e7420746f6b656e4552433732313a207472616e73666572206f6620746f6b656e2074686174206973206e6f74206f776e4552433732314d657461646174613a2055524920717565727920666f72206e6f6e6578697374656e7420746f6b656e4552433732313a20617070726f76616c20746f2063757272656e74206f776e65724552433732313a207472616e736665722063616c6c6572206973206e6f74206f776e6572206e6f7220617070726f766564a264697066735822122073fb4f66c4d801cecc86fd5d58664133471da9376651a16e0aab1208f0f299cf64736f6c63430006080033",
  "immutableReferences": {},
  "source": "pragma solidity ^0.6.0;\r\n\r\nimport \"./LoveLockAccessControl.sol\";\r\nimport \"@openzeppelin/contracts/token/ERC721/ERC721.sol\";\r\n\r\ncontract LoveLockBase is LoveLockAccessControl, ERC721 {\r\n    /*** DEFINE THE STRUCT OF LOVELOCK ***/\r\n    constructor() ERC721(\"Love Lock\", \"LL\") public {\r\n        ceoAddress = msg.sender;\r\n        _setBaseURI(\"https://sstshenshutao.github.io/\");\r\n        // the defaultCreationPrice\r\n        defaultPrice = 1 finney;\r\n    }\r\n    struct LoveLock {\r\n        string title;\r\n        string[] notes;\r\n        uint32 currentLength;\r\n        uint32 notesLimit;\r\n        uint32 styleId;\r\n        int128 slotPos; //-1 for not hung\r\n    }\r\n\r\n    //    struct Couple {\r\n    //        address me;\r\n    //        address lover;\r\n    //    }\r\n\r\n    /*** STORAGE ***/\r\n\r\n    // save all of the LLs\r\n    mapping(uint256 => LoveLock) public loveLocks;\r\n    uint256 public numLoveLocks; // An integer storing the total number of LLs, use for create the LLs(together with mapping)\r\n    //     the mapper that maintain the usedSlot   (slot:true/false)\r\n    mapping(int128 => bool) public usedSlot;\r\n    //     the mapper that maintain the   (slot:tokenID), for quick retrieval\r\n    mapping(int128 => uint256) slotToToken;\r\n    // LLs => address(owner)\r\n    // replaced by ownerOf:   mapping(uint256 => address) public loveLockIndexToOwner;\r\n    //the count of LLs this address has.\r\n    // replaced by balanceOf:   mapping(address => uint256) ownershipTokenCount;\r\n    // the Lock can be transferred from one of the couple.\r\n    //    mapping(uint256 => Couple) public lockIndexToApproved;\r\n    /*** modifier ***/\r\n\r\n    /*** FUNCTIONS ***/\r\n    // todo: expose the public functions based on the internal functions\r\n    // todo: the convenient methods(form LoveLock.sol need to integrate here)\r\n    /*** those functions have no requirement, need to be implemented in the layer -- finished, they are public and safe***/\r\n    function deleteLock(uint256 tokenId) public {\r\n        require(_isApprovedOrOwner(_msgSender(), tokenId), \"you are not the owner or approver\");\r\n        _burn(tokenId);\r\n        delete loveLocks[tokenId];\r\n    }\r\n    //  add note to a love lock\r\n    function addNote(uint256 tokenId, string memory note) public {\r\n        require(_isApprovedOrOwner(_msgSender(), tokenId), \"you are not the owner or approver\");\r\n        require(loveLocks[tokenId].currentLength < loveLocks[tokenId].notesLimit, \"you are not the owner or approver\");\r\n        loveLocks[tokenId].notes.push(note);\r\n        loveLocks[tokenId].currentLength++;\r\n    }\r\n    //  getNote of the ll\r\n    function getNote(uint tokenId, uint index) public view returns (string memory) {\r\n        return loveLocks[tokenId].notes[index];\r\n    }\r\n    //  hang LL, -1 for pull down\r\n    function hangLL(uint tokenId, int128 slotId) public {\r\n        require(_isApprovedOrOwner(_msgSender(), tokenId), \"you are not the owner or approver\");\r\n        // this slot must not be taken by other users\r\n        require(!usedSlot[slotId], \"this is already taken by others\");\r\n        // remove the previous used slot, if exists\r\n        require(slotId >= - 1, \"slotID must >= -1\");\r\n        int128 slotIndex = loveLocks[tokenId].slotPos;\r\n        if (slotIndex > - 1) {\r\n            usedSlot[slotIndex] = false;\r\n        }\r\n        // add a new slot\r\n        if (slotId != - 1) {\r\n            usedSlot[slotId] = true;\r\n            loveLocks[tokenId].slotPos = slotId;\r\n            slotToToken[slotId] = tokenId;\r\n        }\r\n    }\r\n    // must use getMethod usedSlot first, and then getLockOnSlot(slotID)\r\n    function getLockOnSlot(int128 slotId) public view returns (uint) {\r\n        require(usedSlot[slotId], \"this slot is not used\");\r\n        return slotToToken[slotId];\r\n    }\r\n    /*** sale method***/\r\n    // ------------------sale storage --------------\r\n    // the smart contract of selling the LLs\r\n    SaleLoveLock public saleContract;\r\n    // the defaultCreationPrice\r\n    uint256 public defaultPrice;\r\n\r\n    function setSaleContractAddress(address _address) public onlyCEO {\r\n        SaleLoveLock newSaleContract = SaleLoveLock(_address);\r\n        // Set the new contract address\r\n        saleContract = newSaleContract;\r\n    }\r\n    // the smart contract creates LLs for sell\r\n    function createLLtoSell(uint32 styleId, uint32 notesLimit) payable public onlyCLevel {\r\n        require(msg.value >= defaultPrice, \"Hi, ceo/coo, you must give 1 finney to start the creation of the LL\");\r\n        // save the LoveLock temporally in CLevel account\r\n        uint newTokenID = createLL(styleId, notesLimit, _msgSender());\r\n        // give the approval to the saleContract, so that the saleContract can transfer it\r\n        approve(address(saleContract), newTokenID);\r\n        // let saleContract sell the tokens\r\n        saleContract.createSale(newTokenID, 2 ether, _msgSender());\r\n    }\r\n\r\n    // create love lock, return the new ID of token LL, use for generate ll, or directly give ll to one user.\r\n    function createLL(uint32 styleId, uint32 notesLimit, address owner) public onlyCLevel returns (uint){\r\n        // to ensure our data structures are always valid.\r\n        require(styleId == uint256(uint32(styleId)));\r\n        require(notesLimit == uint256(uint32(notesLimit)));\r\n        //create process:\r\n        //create token\r\n        uint256 newLoveLockID = numLoveLocks;\r\n        require(newLoveLockID == uint256(uint32(newLoveLockID)));\r\n        //here !! call transfer from address(0) to _owner, which means creation of token\r\n        _safeMint(owner, newLoveLockID);\r\n        //create LL\r\n        LoveLock storage _loveLock = loveLocks[numLoveLocks];\r\n        _loveLock.notesLimit = notesLimit;\r\n        _loveLock.styleId = styleId;\r\n        _loveLock.slotPos = 0 - 1;\r\n        numLoveLocks++;\r\n        // emit our Create event to show we mint a LoveLock(different with token transfer event above!!!)\r\n        emit Create(owner, newLoveLockID);\r\n        return newLoveLockID;\r\n    }\r\n\r\n    /*** EVENTS ***/\r\n    event Create(address owner, uint256 tokenId);\r\n}\r\n\r\ncontract SaleLoveLock is LoveLockAccessControl {\r\n    constructor() public {\r\n        ceoAddress = msg.sender;\r\n    }\r\n    uint256[] public toSellTokens;\r\n    mapping(uint256 => SaleLock) tokenToSaleLocks;\r\n\r\n    struct SaleLock {\r\n        address owner;\r\n        uint price;\r\n    }\r\n\r\n    ERC721 public nonFungibleContract;\r\n\r\n    function setNonFungibleContract(address _nftAddress) public onlyCEO {\r\n        ERC721 candidateContract = ERC721(_nftAddress);\r\n        nonFungibleContract = candidateContract;\r\n    }\r\n\r\n    // user can buy Locks from the 'toSellTokens'\r\n    function buyLock(uint256 tokenId) payable public {\r\n        require(tokenToSaleLocks[tokenId].owner != 0x0000000000000000000000000000000000000000, \"the token is not there\");\r\n        // the price  offered by the user must be greater than {{lockPrice}}\r\n        require(msg.value >= tokenToSaleLocks[tokenId].price, \"you don't pay enough price to buy the lock\");\r\n        // deal! call the function transfer in the nonFungibleContract, since I have the approval, this won't be failed\r\n        nonFungibleContract.safeTransferFrom(tokenToSaleLocks[tokenId].owner, msg.sender, tokenId);\r\n    }\r\n    // user or the other contract must do the approval of this contract firstly\r\n    function createSale(uint tokenId, uint price, address owner) public {\r\n        require(nonFungibleContract.getApproved(tokenId) == address(this), \"you didn't approve your lock to the contract\");\r\n        tokenToSaleLocks[tokenId].owner = owner;\r\n        tokenToSaleLocks[tokenId].price = price;\r\n        toSellTokens.push(tokenId);\r\n    }\r\n    // how many locks to sell\r\n    function getToSellLength() public view returns (uint){\r\n        return toSellTokens.length;\r\n    }\r\n}",
  "sourcePath": "D:\\blockchain\\blockChianSeminar\\solidity\\contracts\\LoveLockBase.sol",
  "compiler": {
    "name": "solc",
    "version": "0.6.8+commit.0bbfe453.Emscripten.clang"
  },
  "schemaVersion": "3.1.0",
  "updatedAt": "2020-05-17T21:55:27.606Z",
  "networkType": "ethereum",
  "devdoc": {
    "methods": {
      "approve(address,uint256)": {
        "details": "Approves another address to transfer the given token ID The zero address indicates there is no approved address. There can only be one approved address per token at a given time. Can only be called by the token owner or an approved operator.",
        "params": {
          "to": "address to be approved for the given token ID",
          "tokenId": "uint256 ID of the token to be approved"
        }
      },
      "balanceOf(address)": {
        "details": "Gets the balance of the specified address.",
        "params": {
          "owner": "address to query the balance of"
        },
        "returns": {
          "_0": "uint256 representing the amount owned by the passed address"
        }
      },
      "baseURI()": {
        "details": "Returns the base URI set via {_setBaseURI}. This will be automatically added as a prefix in {tokenURI} to each token's URI, or to the token ID if no specific URI is set for that token ID."
      },
      "getApproved(uint256)": {
        "details": "Gets the approved address for a token ID, or zero if no address set Reverts if the token ID does not exist.",
        "params": {
          "tokenId": "uint256 ID of the token to query the approval of"
        },
        "returns": {
          "_0": "address currently approved for the given token ID"
        }
      },
      "isApprovedForAll(address,address)": {
        "details": "Tells whether an operator is approved by a given owner.",
        "params": {
          "operator": "operator address which you want to query the approval of",
          "owner": "owner address which you want to query the approval of"
        },
        "returns": {
          "_0": "bool whether the given operator is approved by the given owner"
        }
      },
      "name()": {
        "details": "Gets the token name.",
        "returns": {
          "_0": "string representing the token name"
        }
      },
      "ownerOf(uint256)": {
        "details": "Gets the owner of the specified token ID.",
        "params": {
          "tokenId": "uint256 ID of the token to query the owner of"
        },
        "returns": {
          "_0": "address currently marked as the owner of the given token ID"
        }
      },
      "safeTransferFrom(address,address,uint256)": {
        "details": "Safely transfers the ownership of a given token ID to another address If the target address is a contract, it must implement {IERC721Receiver-onERC721Received}, which is called upon a safe transfer, and return the magic value `bytes4(keccak256(\"onERC721Received(address,address,uint256,bytes)\"))`; otherwise, the transfer is reverted. Requires the msg.sender to be the owner, approved, or operator",
        "params": {
          "from": "current owner of the token",
          "to": "address to receive the ownership of the given token ID",
          "tokenId": "uint256 ID of the token to be transferred"
        }
      },
      "safeTransferFrom(address,address,uint256,bytes)": {
        "details": "Safely transfers the ownership of a given token ID to another address If the target address is a contract, it must implement {IERC721Receiver-onERC721Received}, which is called upon a safe transfer, and return the magic value `bytes4(keccak256(\"onERC721Received(address,address,uint256,bytes)\"))`; otherwise, the transfer is reverted. Requires the _msgSender() to be the owner, approved, or operator",
        "params": {
          "_data": "bytes data to send along with a safe transfer check",
          "from": "current owner of the token",
          "to": "address to receive the ownership of the given token ID",
          "tokenId": "uint256 ID of the token to be transferred"
        }
      },
      "setApprovalForAll(address,bool)": {
        "details": "Sets or unsets the approval of a given operator An operator is allowed to transfer all tokens of the sender on their behalf.",
        "params": {
          "approved": "representing the status of the approval to be set",
          "operator": "operator address to set the approval"
        }
      },
      "supportsInterface(bytes4)": {
        "details": "See {IERC165-supportsInterface}.     * Time complexity O(1), guaranteed to always use less than 30 000 gas."
      },
      "symbol()": {
        "details": "Gets the token symbol.",
        "returns": {
          "_0": "string representing the token symbol"
        }
      },
      "tokenByIndex(uint256)": {
        "details": "Gets the token ID at a given index of all the tokens in this contract Reverts if the index is greater or equal to the total number of tokens.",
        "params": {
          "index": "uint256 representing the index to be accessed of the tokens list"
        },
        "returns": {
          "_0": "uint256 token ID at the given index of the tokens list"
        }
      },
      "tokenOfOwnerByIndex(address,uint256)": {
        "details": "Gets the token ID at a given index of the tokens list of the requested owner.",
        "params": {
          "index": "uint256 representing the index to be accessed of the requested tokens list",
          "owner": "address owning the tokens list to be accessed"
        },
        "returns": {
          "_0": "uint256 token ID at the given index of the tokens list owned by the requested address"
        }
      },
      "tokenURI(uint256)": {
        "details": "Returns the URI for a given token ID. May return an empty string.     * If a base URI is set (via {_setBaseURI}), it is added as a prefix to the token's own URI (via {_setTokenURI}).     * If there is a base URI but no token URI, the token's ID will be used as its URI when appending it to the base URI. This pattern for autogenerated token URIs can lead to large gas savings.     * .Examples |=== |`_setBaseURI()` |`_setTokenURI()` |`tokenURI()` | \"\" | \"\" | \"\" | \"\" | \"token.uri/123\" | \"token.uri/123\" | \"token.uri/\" | \"123\" | \"token.uri/123\" | \"token.uri/\" | \"\" | \"token.uri/<tokenId>\" |===     * Requirements:     * - `tokenId` must exist."
      },
      "totalSupply()": {
        "details": "Gets the total amount of tokens stored by the contract.",
        "returns": {
          "_0": "uint256 representing the total amount of tokens"
        }
      },
      "transferFrom(address,address,uint256)": {
        "details": "Transfers the ownership of a given token ID to another address. Usage of this method is discouraged, use {safeTransferFrom} whenever possible. Requires the msg.sender to be the owner, approved, or operator.",
        "params": {
          "from": "current owner of the token",
          "to": "address to receive the ownership of the given token ID",
          "tokenId": "uint256 ID of the token to be transferred"
        }
      }
    }
  },
  "userdoc": {
    "methods": {
      "constructor": "* DEFINE THE STRUCT OF LOVELOCK **",
      "deleteLock(uint256)": {
        "notice": "* those functions have no requirement, need to be implemented in the layer -- finished, they are public and safe**"
      }
    }
  }
}