{
  "contractName": "LoveLockBase",
  "abi": [
    {
      "inputs": [],
      "stateMutability": "nonpayable",
      "type": "constructor"
    },
    {
      "anonymous": false,
      "inputs": [
        {
          "indexed": true,
          "internalType": "address",
          "name": "owner",
          "type": "address"
        },
        {
          "indexed": true,
          "internalType": "address",
          "name": "approved",
          "type": "address"
        },
        {
          "indexed": true,
          "internalType": "uint256",
          "name": "tokenId",
          "type": "uint256"
        }
      ],
      "name": "Approval",
      "type": "event"
    },
    {
      "anonymous": false,
      "inputs": [
        {
          "indexed": true,
          "internalType": "address",
          "name": "owner",
          "type": "address"
        },
        {
          "indexed": true,
          "internalType": "address",
          "name": "operator",
          "type": "address"
        },
        {
          "indexed": false,
          "internalType": "bool",
          "name": "approved",
          "type": "bool"
        }
      ],
      "name": "ApprovalForAll",
      "type": "event"
    },
    {
      "anonymous": false,
      "inputs": [
        {
          "indexed": false,
          "internalType": "address",
          "name": "owner",
          "type": "address"
        },
        {
          "indexed": false,
          "internalType": "uint256",
          "name": "tokenId",
          "type": "uint256"
        }
      ],
      "name": "Create",
      "type": "event"
    },
    {
      "anonymous": false,
      "inputs": [
        {
          "indexed": true,
          "internalType": "address",
          "name": "from",
          "type": "address"
        },
        {
          "indexed": true,
          "internalType": "address",
          "name": "to",
          "type": "address"
        },
        {
          "indexed": true,
          "internalType": "uint256",
          "name": "tokenId",
          "type": "uint256"
        }
      ],
      "name": "Transfer",
      "type": "event"
    },
    {
      "inputs": [
        {
          "internalType": "address",
          "name": "to",
          "type": "address"
        },
        {
          "internalType": "uint256",
          "name": "tokenId",
          "type": "uint256"
        }
      ],
      "name": "approve",
      "outputs": [],
      "stateMutability": "nonpayable",
      "type": "function"
    },
    {
      "inputs": [
        {
          "internalType": "address",
          "name": "owner",
          "type": "address"
        }
      ],
      "name": "balanceOf",
      "outputs": [
        {
          "internalType": "uint256",
          "name": "",
          "type": "uint256"
        }
      ],
      "stateMutability": "view",
      "type": "function",
      "constant": true
    },
    {
      "inputs": [],
      "name": "baseURI",
      "outputs": [
        {
          "internalType": "string",
          "name": "",
          "type": "string"
        }
      ],
      "stateMutability": "view",
      "type": "function",
      "constant": true
    },
    {
      "inputs": [],
      "name": "ceoAddress",
      "outputs": [
        {
          "internalType": "address",
          "name": "",
          "type": "address"
        }
      ],
      "stateMutability": "view",
      "type": "function",
      "constant": true
    },
    {
      "inputs": [],
      "name": "cooAddress",
      "outputs": [
        {
          "internalType": "address",
          "name": "",
          "type": "address"
        }
      ],
      "stateMutability": "view",
      "type": "function",
      "constant": true
    },
    {
      "inputs": [],
      "name": "defaultPrice",
      "outputs": [
        {
          "internalType": "uint256",
          "name": "",
          "type": "uint256"
        }
      ],
      "stateMutability": "view",
      "type": "function",
      "constant": true
    },
    {
      "inputs": [
        {
          "internalType": "uint256",
          "name": "tokenId",
          "type": "uint256"
        }
      ],
      "name": "getApproved",
      "outputs": [
        {
          "internalType": "address",
          "name": "",
          "type": "address"
        }
      ],
      "stateMutability": "view",
      "type": "function",
      "constant": true
    },
    {
      "inputs": [
        {
          "internalType": "address",
          "name": "owner",
          "type": "address"
        },
        {
          "internalType": "address",
          "name": "operator",
          "type": "address"
        }
      ],
      "name": "isApprovedForAll",
      "outputs": [
        {
          "internalType": "bool",
          "name": "",
          "type": "bool"
        }
      ],
      "stateMutability": "view",
      "type": "function",
      "constant": true
    },
    {
      "inputs": [
        {
          "internalType": "uint256",
          "name": "",
          "type": "uint256"
        }
      ],
      "name": "loveLocks",
      "outputs": [
        {
          "internalType": "string",
          "name": "title",
          "type": "string"
        },
        {
          "internalType": "uint32",
          "name": "currentLength",
          "type": "uint32"
        },
        {
          "internalType": "uint32",
          "name": "notesLimit",
          "type": "uint32"
        },
        {
          "internalType": "uint32",
          "name": "styleId",
          "type": "uint32"
        },
        {
          "internalType": "uint256",
          "name": "slotPos",
          "type": "uint256"
        }
      ],
      "stateMutability": "view",
      "type": "function",
      "constant": true
    },
    {
      "inputs": [],
      "name": "name",
      "outputs": [
        {
          "internalType": "string",
          "name": "",
          "type": "string"
        }
      ],
      "stateMutability": "view",
      "type": "function",
      "constant": true
    },
    {
      "inputs": [],
      "name": "numLoveLocks",
      "outputs": [
        {
          "internalType": "uint256",
          "name": "",
          "type": "uint256"
        }
      ],
      "stateMutability": "view",
      "type": "function",
      "constant": true
    },
    {
      "inputs": [
        {
          "internalType": "uint256",
          "name": "tokenId",
          "type": "uint256"
        }
      ],
      "name": "ownerOf",
      "outputs": [
        {
          "internalType": "address",
          "name": "",
          "type": "address"
        }
      ],
      "stateMutability": "view",
      "type": "function",
      "constant": true
    },
    {
      "inputs": [
        {
          "internalType": "address",
          "name": "from",
          "type": "address"
        },
        {
          "internalType": "address",
          "name": "to",
          "type": "address"
        },
        {
          "internalType": "uint256",
          "name": "tokenId",
          "type": "uint256"
        }
      ],
      "name": "safeTransferFrom",
      "outputs": [],
      "stateMutability": "nonpayable",
      "type": "function"
    },
    {
      "inputs": [
        {
          "internalType": "address",
          "name": "from",
          "type": "address"
        },
        {
          "internalType": "address",
          "name": "to",
          "type": "address"
        },
        {
          "internalType": "uint256",
          "name": "tokenId",
          "type": "uint256"
        },
        {
          "internalType": "bytes",
          "name": "_data",
          "type": "bytes"
        }
      ],
      "name": "safeTransferFrom",
      "outputs": [],
      "stateMutability": "nonpayable",
      "type": "function"
    },
    {
      "inputs": [],
      "name": "saleContract",
      "outputs": [
        {
          "internalType": "contract SaleLoveLock",
          "name": "",
          "type": "address"
        }
      ],
      "stateMutability": "view",
      "type": "function",
      "constant": true
    },
    {
      "inputs": [
        {
          "internalType": "address",
          "name": "operator",
          "type": "address"
        },
        {
          "internalType": "bool",
          "name": "approved",
          "type": "bool"
        }
      ],
      "name": "setApprovalForAll",
      "outputs": [],
      "stateMutability": "nonpayable",
      "type": "function"
    },
    {
      "inputs": [
        {
          "internalType": "address",
          "name": "_newCEO",
          "type": "address"
        }
      ],
      "name": "setCEO",
      "outputs": [],
      "stateMutability": "nonpayable",
      "type": "function"
    },
    {
      "inputs": [
        {
          "internalType": "address",
          "name": "_newCOO",
          "type": "address"
        }
      ],
      "name": "setCOO",
      "outputs": [],
      "stateMutability": "nonpayable",
      "type": "function"
    },
    {
      "inputs": [
        {
          "internalType": "bytes4",
          "name": "interfaceId",
          "type": "bytes4"
        }
      ],
      "name": "supportsInterface",
      "outputs": [
        {
          "internalType": "bool",
          "name": "",
          "type": "bool"
        }
      ],
      "stateMutability": "view",
      "type": "function",
      "constant": true
    },
    {
      "inputs": [],
      "name": "symbol",
      "outputs": [
        {
          "internalType": "string",
          "name": "",
          "type": "string"
        }
      ],
      "stateMutability": "view",
      "type": "function",
      "constant": true
    },
    {
      "inputs": [
        {
          "internalType": "uint256",
          "name": "index",
          "type": "uint256"
        }
      ],
      "name": "tokenByIndex",
      "outputs": [
        {
          "internalType": "uint256",
          "name": "",
          "type": "uint256"
        }
      ],
      "stateMutability": "view",
      "type": "function",
      "constant": true
    },
    {
      "inputs": [
        {
          "internalType": "address",
          "name": "owner",
          "type": "address"
        },
        {
          "internalType": "uint256",
          "name": "index",
          "type": "uint256"
        }
      ],
      "name": "tokenOfOwnerByIndex",
      "outputs": [
        {
          "internalType": "uint256",
          "name": "",
          "type": "uint256"
        }
      ],
      "stateMutability": "view",
      "type": "function",
      "constant": true
    },
    {
      "inputs": [
        {
          "internalType": "uint256",
          "name": "tokenId",
          "type": "uint256"
        }
      ],
      "name": "tokenURI",
      "outputs": [
        {
          "internalType": "string",
          "name": "",
          "type": "string"
        }
      ],
      "stateMutability": "view",
      "type": "function",
      "constant": true
    },
    {
      "inputs": [],
      "name": "totalSupply",
      "outputs": [
        {
          "internalType": "uint256",
          "name": "",
          "type": "uint256"
        }
      ],
      "stateMutability": "view",
      "type": "function",
      "constant": true
    },
    {
      "inputs": [
        {
          "internalType": "address",
          "name": "from",
          "type": "address"
        },
        {
          "internalType": "address",
          "name": "to",
          "type": "address"
        },
        {
          "internalType": "uint256",
          "name": "tokenId",
          "type": "uint256"
        }
      ],
      "name": "transferFrom",
      "outputs": [],
      "stateMutability": "nonpayable",
      "type": "function"
    },
    {
      "inputs": [],
      "name": "getContractAddress",
      "outputs": [
        {
          "internalType": "address",
          "name": "",
          "type": "address"
        }
      ],
      "stateMutability": "view",
      "type": "function",
      "constant": true
    },
    {
      "inputs": [
        {
          "internalType": "uint256",
          "name": "tokenId",
          "type": "uint256"
        }
      ],
      "name": "deleteLock",
      "outputs": [],
      "stateMutability": "nonpayable",
      "type": "function"
    },
    {
      "inputs": [
        {
          "internalType": "uint256",
          "name": "tokenId",
          "type": "uint256"
        },
        {
          "internalType": "string",
          "name": "note",
          "type": "string"
        }
      ],
      "name": "addNote",
      "outputs": [],
      "stateMutability": "nonpayable",
      "type": "function"
    },
    {
      "inputs": [
        {
          "internalType": "uint256",
          "name": "tokenId",
          "type": "uint256"
        },
        {
          "internalType": "uint256",
          "name": "index",
          "type": "uint256"
        }
      ],
      "name": "getNote",
      "outputs": [
        {
          "internalType": "string",
          "name": "",
          "type": "string"
        }
      ],
      "stateMutability": "view",
      "type": "function",
      "constant": true
    },
    {
      "inputs": [
        {
          "internalType": "uint256",
          "name": "tokenId",
          "type": "uint256"
        },
        {
          "internalType": "uint256",
          "name": "slotId",
          "type": "uint256"
        }
      ],
      "name": "hangLL",
      "outputs": [],
      "stateMutability": "nonpayable",
      "type": "function"
    },
    {
      "inputs": [],
      "name": "getUsedSlotLength",
      "outputs": [
        {
          "internalType": "uint256",
          "name": "",
          "type": "uint256"
        }
      ],
      "stateMutability": "view",
      "type": "function",
      "constant": true
    },
    {
      "inputs": [
        {
          "internalType": "uint256",
          "name": "nth",
          "type": "uint256"
        }
      ],
      "name": "getUsedSlot",
      "outputs": [
        {
          "internalType": "uint256",
          "name": "",
          "type": "uint256"
        }
      ],
      "stateMutability": "view",
      "type": "function",
      "constant": true
    },
    {
      "inputs": [
        {
          "internalType": "uint256",
          "name": "slotId",
          "type": "uint256"
        }
      ],
      "name": "getLockOnSlot",
      "outputs": [
        {
          "internalType": "uint256",
          "name": "",
          "type": "uint256"
        }
      ],
      "stateMutability": "view",
      "type": "function",
      "constant": true
    },
    {
      "inputs": [
        {
          "internalType": "address",
          "name": "_address",
          "type": "address"
        }
      ],
      "name": "setSaleContractAddress",
      "outputs": [],
      "stateMutability": "nonpayable",
      "type": "function"
    },
    {
      "inputs": [
        {
          "internalType": "uint32",
          "name": "styleId",
          "type": "uint32"
        },
        {
          "internalType": "uint32",
          "name": "notesLimit",
          "type": "uint32"
        }
      ],
      "name": "createLLtoSell",
      "outputs": [],
      "stateMutability": "payable",
      "type": "function",
      "payable": true
    },
    {
      "inputs": [
        {
          "internalType": "uint32",
          "name": "styleId",
          "type": "uint32"
        },
        {
          "internalType": "uint32",
          "name": "notesLimit",
          "type": "uint32"
        },
        {
          "internalType": "address",
          "name": "owner",
          "type": "address"
        }
      ],
      "name": "createLL",
      "outputs": [
        {
          "internalType": "uint256",
          "name": "",
          "type": "uint256"
        }
      ],
      "stateMutability": "nonpayable",
      "type": "function"
    },
    {
      "inputs": [
        {
          "internalType": "uint256",
          "name": "amountRequested",
          "type": "uint256"
        }
      ],
      "name": "ceoPullMoney",
      "outputs": [],
      "stateMutability": "nonpayable",
      "type": "function"
    },
    {
      "inputs": [],
      "name": "getContractBalance",
      "outputs": [
        {
          "internalType": "uint256",
          "name": "",
          "type": "uint256"
        }
      ],
      "stateMutability": "view",
      "type": "function",
      "constant": true
    }
  ],
  "bytecode": "0x60806040523480156200001157600080fd5b506040518060400160405280600981526020017f4c6f7665204c6f636b00000000000000000000000000000000000000000000008152506040518060400160405280600281526020017f4c4c000000000000000000000000000000000000000000000000000000000000815250620000966301ffc9a760e01b620001ac60201b60201c565b8160089080519060200190620000ae929190620002d2565b508060099080519060200190620000c7929190620002d2565b50620000e06380ac58cd60e01b620001ac60201b60201c565b620000f8635b5e139f60e01b620001ac60201b60201c565b6200011063780e9d6360e01b620001ac60201b60201c565b5050336000806101000a81548173ffffffffffffffffffffffffffffffffffffffff021916908373ffffffffffffffffffffffffffffffffffffffff160217905550620001986040518060400160405280602081526020017f68747470733a2f2f7373747368656e73687574616f2e6769746875622e696f2f815250620002b660201b60201c565b66038d7ea4c6800060128190555062000381565b63ffffffff60e01b817bffffffffffffffffffffffffffffffffffffffffffffffffffffffff1916141562000249576040517f08c379a000000000000000000000000000000000000000000000000000000000815260040180806020018281038252601c8152602001807f4552433136353a20696e76616c696420696e746572666163652069640000000081525060200191505060405180910390fd5b600160026000837bffffffffffffffffffffffffffffffffffffffffffffffffffffffff19167bffffffffffffffffffffffffffffffffffffffffffffffffffffffff1916815260200190815260200160002060006101000a81548160ff02191690831515021790555050565b80600b9080519060200190620002ce929190620002d2565b5050565b828054600181600116156101000203166002900490600052602060002090601f016020900481019282601f106200031557805160ff191683800117855562000346565b8280016001018555821562000346579182015b828111156200034557825182559160200191906001019062000328565b5b50905062000355919062000359565b5090565b6200037e91905b808211156200037a57600081600090555060010162000360565b5090565b90565b61496580620003916000396000f3fe6080604052600436106102255760003560e01c80636fb9b12e11610123578063bc4da879116100ab578063ddc2be0f1161006f578063ddc2be0f146110bc578063e69e04b314611100578063e985e9c51461112b578063ec4cbb20146111b4578063f23e9a02146111df57610225565b8063bc4da87914610dd0578063c82a808a14610ea2578063c87b56dd14610ef3578063daf6ca3014610fa7578063db491e8014610ffe57610225565b806395d89b41116100f257806395d89b4114610af55780639d51d88a14610b85578063a22cb46514610c0a578063b047fb5014610c67578063b88d4fde14610cbe57610225565b80636fb9b12e146109d15780636fc6c81914610a1657806370a0823114610a415780637940e03314610aa657610225565b80632f745c59116101b1578063595b394611610175578063595b39461461076c5780636352211e146107a7578063641f2fb2146108225780636c0360eb146109165780636f9fb98a146109a657610225565b80632f745c59146105a157806332a2c5d01461061057806333790ba31461066757806342842e0e146106a25780634f6ccce71461071d57610225565b80630a0f8168116101f85780630a0f81681461040257806318160ddd1461045957806323b872dd1461048457806327d7874c146104ff5780632ba73c151461055057610225565b806301ffc9a71461022a57806306fdde031461029c578063081812fc1461032c578063095ea7b3146103a7575b600080fd5b34801561023657600080fd5b506102826004803603602081101561024d57600080fd5b8101908080357bffffffffffffffffffffffffffffffffffffffffffffffffffffffff1916906020019092919050505061122e565b604051808215151515815260200191505060405180910390f35b3480156102a857600080fd5b506102b1611296565b6040518080602001828103825283818151815260200191508051906020019080838360005b838110156102f15780820151818401526020810190506102d6565b50505050905090810190601f16801561031e5780820380516001836020036101000a031916815260200191505b509250505060405180910390f35b34801561033857600080fd5b506103656004803603602081101561034f57600080fd5b8101908080359060200190929190505050611338565b604051808273ffffffffffffffffffffffffffffffffffffffff1673ffffffffffffffffffffffffffffffffffffffff16815260200191505060405180910390f35b3480156103b357600080fd5b50610400600480360360408110156103ca57600080fd5b81019080803573ffffffffffffffffffffffffffffffffffffffff169060200190929190803590602001909291905050506113d3565b005b34801561040e57600080fd5b50610417611517565b604051808273ffffffffffffffffffffffffffffffffffffffff1673ffffffffffffffffffffffffffffffffffffffff16815260200191505060405180910390f35b34801561046557600080fd5b5061046e61153c565b6040518082815260200191505060405180910390f35b34801561049057600080fd5b506104fd600480360360608110156104a757600080fd5b81019080803573ffffffffffffffffffffffffffffffffffffffff169060200190929190803573ffffffffffffffffffffffffffffffffffffffff1690602001909291908035906020019092919050505061154d565b005b34801561050b57600080fd5b5061054e6004803603602081101561052257600080fd5b81019080803573ffffffffffffffffffffffffffffffffffffffff1690602001909291905050506115c3565b005b34801561055c57600080fd5b5061059f6004803603602081101561057357600080fd5b81019080803573ffffffffffffffffffffffffffffffffffffffff16906020019092919050505061176b565b005b3480156105ad57600080fd5b506105fa600480360360408110156105c457600080fd5b81019080803573ffffffffffffffffffffffffffffffffffffffff16906020019092919080359060200190929190505050611914565b6040518082815260200191505060405180910390f35b34801561061c57600080fd5b5061062561196f565b604051808273ffffffffffffffffffffffffffffffffffffffff1673ffffffffffffffffffffffffffffffffffffffff16815260200191505060405180910390f35b34801561067357600080fd5b506106a06004803603602081101561068a57600080fd5b8101908080359060200190929190505050611977565b005b3480156106ae57600080fd5b5061071b600480360360608110156106c557600080fd5b81019080803573ffffffffffffffffffffffffffffffffffffffff169060200190929190803573ffffffffffffffffffffffffffffffffffffffff16906020019092919080359060200190929190505050611a6c565b005b34801561072957600080fd5b506107566004803603602081101561074057600080fd5b8101908080359060200190929190505050611a8c565b6040518082815260200191505060405180910390f35b34801561077857600080fd5b506107a56004803603602081101561078f57600080fd5b8101908080359060200190929190505050611aaf565b005b3480156107b357600080fd5b506107e0600480360360208110156107ca57600080fd5b8101908080359060200190929190505050611bbb565b604051808273ffffffffffffffffffffffffffffffffffffffff1673ffffffffffffffffffffffffffffffffffffffff16815260200191505060405180910390f35b34801561082e57600080fd5b5061085b6004803603602081101561084557600080fd5b8101908080359060200190929190505050611bf2565b60405180806020018663ffffffff1663ffffffff1681526020018563ffffffff1663ffffffff1681526020018463ffffffff1663ffffffff168152602001838152602001828103825287818151815260200191508051906020019080838360005b838110156108d75780820151818401526020810190506108bc565b50505050905090810190601f1680156109045780820380516001836020036101000a031916815260200191505b50965050505050505060405180910390f35b34801561092257600080fd5b5061092b611cf0565b6040518080602001828103825283818151815260200191508051906020019080838360005b8381101561096b578082015181840152602081019050610950565b50505050905090810190601f1680156109985780820380516001836020036101000a031916815260200191505b509250505060405180910390f35b3480156109b257600080fd5b506109bb611d92565b6040518082815260200191505060405180910390f35b3480156109dd57600080fd5b50610a14600480360360408110156109f457600080fd5b810190808035906020019092919080359060200190929190505050611e5c565b005b348015610a2257600080fd5b50610a2b612066565b6040518082815260200191505060405180910390f35b348015610a4d57600080fd5b50610a9060048036036020811015610a6457600080fd5b81019080803573ffffffffffffffffffffffffffffffffffffffff169060200190929190505050612077565b6040518082815260200191505060405180910390f35b348015610ab257600080fd5b50610adf60048036036020811015610ac957600080fd5b810190808035906020019092919050505061214c565b6040518082815260200191505060405180910390f35b348015610b0157600080fd5b50610b0a612169565b6040518080602001828103825283818151815260200191508051906020019080838360005b83811015610b4a578082015181840152602081019050610b2f565b50505050905090810190601f168015610b775780820380516001836020036101000a031916815260200191505b509250505060405180910390f35b348015610b9157600080fd5b50610bf460048036036060811015610ba857600080fd5b81019080803563ffffffff169060200190929190803563ffffffff169060200190929190803573ffffffffffffffffffffffffffffffffffffffff16906020019092919050505061220b565b6040518082815260200191505060405180910390f35b348015610c1657600080fd5b50610c6560048036036040811015610c2d57600080fd5b81019080803573ffffffffffffffffffffffffffffffffffffffff169060200190929190803515159060200190929190505050612462565b005b348015610c7357600080fd5b50610c7c61261a565b604051808273ffffffffffffffffffffffffffffffffffffffff1673ffffffffffffffffffffffffffffffffffffffff16815260200191505060405180910390f35b348015610cca57600080fd5b50610dce60048036036080811015610ce157600080fd5b81019080803573ffffffffffffffffffffffffffffffffffffffff169060200190929190803573ffffffffffffffffffffffffffffffffffffffff1690602001909291908035906020019092919080359060200190640100000000811115610d4857600080fd5b820183602082011115610d5a57600080fd5b80359060200191846001830284011164010000000083111715610d7c57600080fd5b91908080601f016020809104026020016040519081016040528093929190818152602001838380828437600081840152601f19601f820116905080830192505050505050509192919290505050612640565b005b348015610ddc57600080fd5b50610ea060048036036040811015610df357600080fd5b810190808035906020019092919080359060200190640100000000811115610e1a57600080fd5b820183602082011115610e2c57600080fd5b80359060200191846001830284011164010000000083111715610e4e57600080fd5b91908080601f016020809104026020016040519081016040528093929190818152602001838380828437600081840152601f19601f8201169050808301925050505050505091929192905050506126b8565b005b348015610eae57600080fd5b50610ef160048036036020811015610ec557600080fd5b81019080803573ffffffffffffffffffffffffffffffffffffffff169060200190929190505050612871565b005b348015610eff57600080fd5b50610f2c60048036036020811015610f1657600080fd5b810190808035906020019092919050505061297d565b6040518080602001828103825283818151815260200191508051906020019080838360005b83811015610f6c578082015181840152602081019050610f51565b50505050905090810190601f168015610f995780820380516001836020036101000a031916815260200191505b509250505060405180910390f35b348015610fb357600080fd5b50610fbc612c66565b604051808273ffffffffffffffffffffffffffffffffffffffff1673ffffffffffffffffffffffffffffffffffffffff16815260200191505060405180910390f35b34801561100a57600080fd5b506110416004803603604081101561102157600080fd5b810190808035906020019092919080359060200190929190505050612c8c565b6040518080602001828103825283818151815260200191508051906020019080838360005b83811015611081578082015181840152602081019050611066565b50505050905090810190601f1680156110ae5780820380516001836020036101000a031916815260200191505b509250505060405180910390f35b6110fe600480360360408110156110d257600080fd5b81019080803563ffffffff169060200190929190803563ffffffff169060200190929190505050612d5a565b005b34801561110c57600080fd5b50611115612fee565b6040518082815260200191505060405180910390f35b34801561113757600080fd5b5061119a6004803603604081101561114e57600080fd5b81019080803573ffffffffffffffffffffffffffffffffffffffff169060200190929190803573ffffffffffffffffffffffffffffffffffffffff169060200190929190505050612ff4565b604051808215151515815260200191505060405180910390f35b3480156111c057600080fd5b506111c9613088565b6040518082815260200191505060405180910390f35b3480156111eb57600080fd5b506112186004803603602081101561120257600080fd5b810190808035906020019092919050505061308e565b6040518082815260200191505060405180910390f35b600060026000837bffffffffffffffffffffffffffffffffffffffffffffffffffffffff19167bffffffffffffffffffffffffffffffffffffffffffffffffffffffff1916815260200190815260200160002060009054906101000a900460ff169050919050565b606060088054600181600116156101000203166002900480601f01602080910402602001604051908101604052809291908181526020018280546001816001161561010002031660029004801561132e5780601f106113035761010080835404028352916020019161132e565b820191906000526020600020905b81548152906001019060200180831161131157829003601f168201915b5050505050905090565b600061134382613131565b611398576040517f08c379a000000000000000000000000000000000000000000000000000000000815260040180806020018281038252602c81526020018061485a602c913960400191505060405180910390fd5b6006600083815260200190815260200160002060009054906101000a900473ffffffffffffffffffffffffffffffffffffffff169050919050565b60006113de82611bbb565b90508073ffffffffffffffffffffffffffffffffffffffff168373ffffffffffffffffffffffffffffffffffffffff161415611465576040517f08c379a00000000000000000000000000000000000000000000000000000000081526004018080602001828103825260218152602001806148de6021913960400191505060405180910390fd5b8073ffffffffffffffffffffffffffffffffffffffff1661148461314e565b73ffffffffffffffffffffffffffffffffffffffff1614806114b357506114b2816114ad61314e565b612ff4565b5b611508576040517f08c379a00000000000000000000000000000000000000000000000000000000081526004018080602001828103825260388152602001806147ad6038913960400191505060405180910390fd5b6115128383613156565b505050565b6000809054906101000a900473ffffffffffffffffffffffffffffffffffffffff1681565b6000611548600461320f565b905090565b61155e61155861314e565b82613224565b6115b3576040517f08c379a00000000000000000000000000000000000000000000000000000000081526004018080602001828103825260318152602001806148ff6031913960400191505060405180910390fd5b6115be838383613318565b505050565b6000809054906101000a900473ffffffffffffffffffffffffffffffffffffffff1673ffffffffffffffffffffffffffffffffffffffff163373ffffffffffffffffffffffffffffffffffffffff1614611685576040517f08c379a00000000000000000000000000000000000000000000000000000000081526004018080602001828103825260168152602001807f736f7272792c20796f7520617265206e6f742063656f0000000000000000000081525060200191505060405180910390fd5b600073ffffffffffffffffffffffffffffffffffffffff168173ffffffffffffffffffffffffffffffffffffffff161415611728576040517f08c379a00000000000000000000000000000000000000000000000000000000081526004018080602001828103825260168152602001807f736f7272792c20796f7520617265206e6f742063656f0000000000000000000081525060200191505060405180910390fd5b806000806101000a81548173ffffffffffffffffffffffffffffffffffffffff021916908373ffffffffffffffffffffffffffffffffffffffff16021790555050565b6000809054906101000a900473ffffffffffffffffffffffffffffffffffffffff1673ffffffffffffffffffffffffffffffffffffffff163373ffffffffffffffffffffffffffffffffffffffff161461182d576040517f08c379a00000000000000000000000000000000000000000000000000000000081526004018080602001828103825260168152602001807f736f7272792c20796f7520617265206e6f742063656f0000000000000000000081525060200191505060405180910390fd5b600073ffffffffffffffffffffffffffffffffffffffff168173ffffffffffffffffffffffffffffffffffffffff1614156118d0576040517f08c379a00000000000000000000000000000000000000000000000000000000081526004018080602001828103825260168152602001807f736f7272792c20796f7520617265206e6f742063656f0000000000000000000081525060200191505060405180910390fd5b80600160006101000a81548173ffffffffffffffffffffffffffffffffffffffff021916908373ffffffffffffffffffffffffffffffffffffffff16021790555050565b600061196782600360008673ffffffffffffffffffffffffffffffffffffffff1673ffffffffffffffffffffffffffffffffffffffff16815260200190815260200160002061355b90919063ffffffff16565b905092915050565b600030905090565b61198861198261314e565b82613224565b6119dd576040517f08c379a000000000000000000000000000000000000000000000000000000000815260040180806020018281038252602181526020018061467a6021913960400191505060405180910390fd5b6119e681613575565b600c600082815260200190815260200160002060008082016000611a0a919061453f565b600182016000611a1a9190614587565b6002820160006101000a81549063ffffffff02191690556002820160046101000a81549063ffffffff02191690556002820160086101000a81549063ffffffff02191690556003820160009055505050565b611a8783838360405180602001604052806000815250612640565b505050565b600080611aa38360046136af90919063ffffffff16565b50905080915050919050565b6000809054906101000a900473ffffffffffffffffffffffffffffffffffffffff1673ffffffffffffffffffffffffffffffffffffffff163373ffffffffffffffffffffffffffffffffffffffff1614611b71576040517f08c379a00000000000000000000000000000000000000000000000000000000081526004018080602001828103825260168152602001807f736f7272792c20796f7520617265206e6f742063656f0000000000000000000081525060200191505060405180910390fd5b3373ffffffffffffffffffffffffffffffffffffffff166108fc829081150290604051600060405180830381858888f19350505050158015611bb7573d6000803e3d6000fd5b5050565b6000611beb8260405180606001604052806029815260200161480f6029913960046136de9092919063ffffffff16565b9050919050565b600c602052806000526040600020600091509050806000018054600181600116156101000203166002900480601f016020809104026020016040519081016040528092919081815260200182805460018160011615610100020316600290048015611c9e5780601f10611c7357610100808354040283529160200191611c9e565b820191906000526020600020905b815481529060010190602001808311611c8157829003601f168201915b5050505050908060020160009054906101000a900463ffffffff16908060020160049054906101000a900463ffffffff16908060020160089054906101000a900463ffffffff16908060030154905085565b6060600b8054600181600116156101000203166002900480601f016020809104026020016040519081016040528092919081815260200182805460018160011615610100020316600290048015611d885780601f10611d5d57610100808354040283529160200191611d88565b820191906000526020600020905b815481529060010190602001808311611d6b57829003601f168201915b5050505050905090565b60008060009054906101000a900473ffffffffffffffffffffffffffffffffffffffff1673ffffffffffffffffffffffffffffffffffffffff163373ffffffffffffffffffffffffffffffffffffffff1614611e56576040517f08c379a00000000000000000000000000000000000000000000000000000000081526004018080602001828103825260168152602001807f736f7272792c20796f7520617265206e6f742063656f0000000000000000000081525060200191505060405180910390fd5b47905090565b611e6d611e6761314e565b83613224565b611ec2576040517f08c379a000000000000000000000000000000000000000000000000000000000815260040180806020018281038252602181526020018061467a6021913960400191505060405180910390fd5b611ed681600e6136fd90919063ffffffff16565b15611f49576040517f08c379a000000000000000000000000000000000000000000000000000000000815260040180806020018281038252601f8152602001807f7468697320697320616c72656164792074616b656e206279206f74686572730081525060200191505060405180910390fd5b6000811015611fa3576040517f08c379a000000000000000000000000000000000000000000000000000000000815260040180806020018281038252602b8152602001806146bd602b913960400191505060405180910390fd5b6000600c6000848152602001908152602001600020600301549050600081111561201057611fdb81600e61371790919063ffffffff16565b5060106000828152602001908152602001600020600090556000600c6000858152602001908152602001600020600301819055505b600082146120615761202c82600e61373190919063ffffffff16565b5081600c6000858152602001908152602001600020600301819055508260106000848152602001908152602001600020819055505b505050565b6000612072600e61374b565b905090565b60008073ffffffffffffffffffffffffffffffffffffffff168273ffffffffffffffffffffffffffffffffffffffff1614156120fe576040517f08c379a000000000000000000000000000000000000000000000000000000000815260040180806020018281038252602a8152602001806147e5602a913960400191505060405180910390fd5b612145600360008473ffffffffffffffffffffffffffffffffffffffff1673ffffffffffffffffffffffffffffffffffffffff16815260200190815260200160002061374b565b9050919050565b600061216282600e61355b90919063ffffffff16565b9050919050565b606060098054600181600116156101000203166002900480601f0160208091040260200160405190810160405280929190818152602001828054600181600116156101000203166002900480156122015780601f106121d657610100808354040283529160200191612201565b820191906000526020600020905b8154815290600101906020018083116121e457829003601f168201915b5050505050905090565b6000600160009054906101000a900473ffffffffffffffffffffffffffffffffffffffff1673ffffffffffffffffffffffffffffffffffffffff163373ffffffffffffffffffffffffffffffffffffffff1614806122b557506000809054906101000a900473ffffffffffffffffffffffffffffffffffffffff1673ffffffffffffffffffffffffffffffffffffffff163373ffffffffffffffffffffffffffffffffffffffff16145b612327576040517f08c379a000000000000000000000000000000000000000000000000000000000815260040180806020018281038252601d8152602001807f736f7272792c20796f7520617265206e6f742063656f206f7220636f6f00000081525060200191505060405180910390fd5b8363ffffffff168463ffffffff161461233f57600080fd5b8263ffffffff168363ffffffff161461235757600080fd5b6000600d5490508063ffffffff16811461237057600080fd5b61237a8382613760565b6000600c6000600d5481526020019081526020016000209050848160020160046101000a81548163ffffffff021916908363ffffffff160217905550858160020160086101000a81548163ffffffff021916908363ffffffff160217905550600d600081548092919060010191905055507fcc9018de05b5f497ee7618d8830568d8ac2d45d0671b73d8f71c67e824122ec78483604051808373ffffffffffffffffffffffffffffffffffffffff1673ffffffffffffffffffffffffffffffffffffffff1681526020018281526020019250505060405180910390a181925050509392505050565b61246a61314e565b73ffffffffffffffffffffffffffffffffffffffff168273ffffffffffffffffffffffffffffffffffffffff16141561250b576040517f08c379a00000000000000000000000000000000000000000000000000000000081526004018080602001828103825260198152602001807f4552433732313a20617070726f766520746f2063616c6c65720000000000000081525060200191505060405180910390fd5b806007600061251861314e565b73ffffffffffffffffffffffffffffffffffffffff1673ffffffffffffffffffffffffffffffffffffffff16815260200190815260200160002060008473ffffffffffffffffffffffffffffffffffffffff1673ffffffffffffffffffffffffffffffffffffffff16815260200190815260200160002060006101000a81548160ff0219169083151502179055508173ffffffffffffffffffffffffffffffffffffffff166125c561314e565b73ffffffffffffffffffffffffffffffffffffffff167f17307eab39ab6107e8899845ad3d59bd9653f200f220920489ca2b5937696c3183604051808215151515815260200191505060405180910390a35050565b600160009054906101000a900473ffffffffffffffffffffffffffffffffffffffff1681565b61265161264b61314e565b83613224565b6126a6576040517f08c379a00000000000000000000000000000000000000000000000000000000081526004018080602001828103825260318152602001806148ff6031913960400191505060405180910390fd5b6126b28484848461377e565b50505050565b6126c96126c361314e565b83613224565b61271e576040517f08c379a000000000000000000000000000000000000000000000000000000000815260040180806020018281038252602181526020018061467a6021913960400191505060405180910390fd5b600c600083815260200190815260200160002060020160049054906101000a900463ffffffff1663ffffffff16600c600084815260200190815260200160002060020160009054906101000a900463ffffffff1663ffffffff16106127ce576040517f08c379a000000000000000000000000000000000000000000000000000000000815260040180806020018281038252602181526020018061467a6021913960400191505060405180910390fd5b600c60008381526020019081526020016000206001018190806001815401808255809150506001900390600052602060002001600090919091909150908051906020019061281d9291906145a8565b50600c6000838152602001908152602001600020600201600081819054906101000a900463ffffffff168092919060010191906101000a81548163ffffffff021916908363ffffffff160217905550505050565b6000809054906101000a900473ffffffffffffffffffffffffffffffffffffffff1673ffffffffffffffffffffffffffffffffffffffff163373ffffffffffffffffffffffffffffffffffffffff1614612933576040517f08c379a00000000000000000000000000000000000000000000000000000000081526004018080602001828103825260168152602001807f736f7272792c20796f7520617265206e6f742063656f0000000000000000000081525060200191505060405180910390fd5b600081905080601160006101000a81548173ffffffffffffffffffffffffffffffffffffffff021916908373ffffffffffffffffffffffffffffffffffffffff1602179055505050565b606061298882613131565b6129dd576040517f08c379a000000000000000000000000000000000000000000000000000000000815260040180806020018281038252602f8152602001806148af602f913960400191505060405180910390fd5b6060600a60008481526020019081526020016000208054600181600116156101000203166002900480601f016020809104026020016040519081016040528092919081815260200182805460018160011615610100020316600290048015612a865780601f10612a5b57610100808354040283529160200191612a86565b820191906000526020600020905b815481529060010190602001808311612a6957829003601f168201915b505050505090506000600b8054600181600116156101000203166002900490501415612ab55780915050612c61565b600081511115612b8e57600b816040516020018083805460018160011615610100020316600290048015612b205780601f10612afe576101008083540402835291820191612b20565b820191906000526020600020905b815481529060010190602001808311612b0c575b505082805190602001908083835b60208310612b515780518252602082019150602081019050602083039250612b2e565b6001836020036101000a03801982511681845116808217855250505050505090500192505050604051602081830303815290604052915050612c61565b600b612b99846137f0565b6040516020018083805460018160011615610100020316600290048015612bf75780601f10612bd5576101008083540402835291820191612bf7565b820191906000526020600020905b815481529060010190602001808311612be3575b505082805190602001908083835b60208310612c285780518252602082019150602081019050602083039250612c05565b6001836020036101000a038019825116818451168082178552505050505050905001925050506040516020818303038152906040529150505b919050565b601160009054906101000a900473ffffffffffffffffffffffffffffffffffffffff1681565b6060600c60008481526020019081526020016000206001018281548110612caf57fe5b906000526020600020018054600181600116156101000203166002900480601f016020809104026020016040519081016040528092919081815260200182805460018160011615610100020316600290048015612d4d5780601f10612d2257610100808354040283529160200191612d4d565b820191906000526020600020905b815481529060010190602001808311612d3057829003601f168201915b5050505050905092915050565b600160009054906101000a900473ffffffffffffffffffffffffffffffffffffffff1673ffffffffffffffffffffffffffffffffffffffff163373ffffffffffffffffffffffffffffffffffffffff161480612e0257506000809054906101000a900473ffffffffffffffffffffffffffffffffffffffff1673ffffffffffffffffffffffffffffffffffffffff163373ffffffffffffffffffffffffffffffffffffffff16145b612e74576040517f08c379a000000000000000000000000000000000000000000000000000000000815260040180806020018281038252601d8152602001807f736f7272792c20796f7520617265206e6f742063656f206f7220636f6f00000081525060200191505060405180910390fd5b601254341015612ecf576040517f08c379a000000000000000000000000000000000000000000000000000000000815260040180806020018281038252604381526020018061473e6043913960600191505060405180910390fd5b6000612ee38383612ede61314e565b61220b565b9050612f11601160009054906101000a900473ffffffffffffffffffffffffffffffffffffffff16826113d3565b601160009054906101000a900473ffffffffffffffffffffffffffffffffffffffff1673ffffffffffffffffffffffffffffffffffffffff1663995cd65382671bc16d674ec80000612f6161314e565b6040518463ffffffff1660e01b8152600401808481526020018381526020018273ffffffffffffffffffffffffffffffffffffffff1673ffffffffffffffffffffffffffffffffffffffff1681526020019350505050600060405180830381600087803b158015612fd157600080fd5b505af1158015612fe5573d6000803e3d6000fd5b50505050505050565b60125481565b6000600760008473ffffffffffffffffffffffffffffffffffffffff1673ffffffffffffffffffffffffffffffffffffffff16815260200190815260200160002060008373ffffffffffffffffffffffffffffffffffffffff1673ffffffffffffffffffffffffffffffffffffffff16815260200190815260200160002060009054906101000a900460ff16905092915050565b600d5481565b60006130a482600e6136fd90919063ffffffff16565b613116576040517f08c379a00000000000000000000000000000000000000000000000000000000081526004018080602001828103825260158152602001807f7468697320736c6f74206973206e6f742075736564000000000000000000000081525060200191505060405180910390fd5b60106000838152602001908152602001600020549050919050565b600061314782600461393790919063ffffffff16565b9050919050565b600033905090565b816006600083815260200190815260200160002060006101000a81548173ffffffffffffffffffffffffffffffffffffffff021916908373ffffffffffffffffffffffffffffffffffffffff160217905550808273ffffffffffffffffffffffffffffffffffffffff166131c983611bbb565b73ffffffffffffffffffffffffffffffffffffffff167f8c5be1e5ebec7d5bd14f71427d1e84f3dd0314c0f7b2291e5b200ac8c7c3b92560405160405180910390a45050565b600061321d82600001613951565b9050919050565b600061322f82613131565b613284576040517f08c379a000000000000000000000000000000000000000000000000000000000815260040180806020018281038252602c815260200180614781602c913960400191505060405180910390fd5b600061328f83611bbb565b90508073ffffffffffffffffffffffffffffffffffffffff168473ffffffffffffffffffffffffffffffffffffffff1614806132fe57508373ffffffffffffffffffffffffffffffffffffffff166132e684611338565b73ffffffffffffffffffffffffffffffffffffffff16145b8061330f575061330e8185612ff4565b5b91505092915050565b8273ffffffffffffffffffffffffffffffffffffffff1661333882611bbb565b73ffffffffffffffffffffffffffffffffffffffff16146133a4576040517f08c379a00000000000000000000000000000000000000000000000000000000081526004018080602001828103825260298152602001806148866029913960400191505060405180910390fd5b600073ffffffffffffffffffffffffffffffffffffffff168273ffffffffffffffffffffffffffffffffffffffff16141561342a576040517f08c379a000000000000000000000000000000000000000000000000000000000815260040180806020018281038252602481526020018061471a6024913960400191505060405180910390fd5b613435838383613962565b613440600082613156565b61349181600360008673ffffffffffffffffffffffffffffffffffffffff1673ffffffffffffffffffffffffffffffffffffffff16815260200190815260200160002061371790919063ffffffff16565b506134e381600360008573ffffffffffffffffffffffffffffffffffffffff1673ffffffffffffffffffffffffffffffffffffffff16815260200190815260200160002061373190919063ffffffff16565b506134fa818360046139679092919063ffffffff16565b50808273ffffffffffffffffffffffffffffffffffffffff168473ffffffffffffffffffffffffffffffffffffffff167fddf252ad1be2c89b69c2b068fc378daa952ba7f163c4a11628f55a4df523b3ef60405160405180910390a4505050565b600061356a836000018361399c565b60001c905092915050565b600061358082611bbb565b905061358e81600084613962565b613599600083613156565b6000600a6000848152602001908152602001600020805460018160011615610100020316600290049050146135e857600a600083815260200190815260200160002060006135e7919061453f565b5b61363982600360008473ffffffffffffffffffffffffffffffffffffffff1673ffffffffffffffffffffffffffffffffffffffff16815260200190815260200160002061371790919063ffffffff16565b5061364e826004613a1f90919063ffffffff16565b5081600073ffffffffffffffffffffffffffffffffffffffff168273ffffffffffffffffffffffffffffffffffffffff167fddf252ad1be2c89b69c2b068fc378daa952ba7f163c4a11628f55a4df523b3ef60405160405180910390a45050565b6000806000806136c28660000186613a39565b915091508160001c8160001c8090509350935050509250929050565b60006136f1846000018460001b84613ad2565b60001c90509392505050565b600061370f836000018360001b613bc8565b905092915050565b6000613729836000018360001b613beb565b905092915050565b6000613743836000018360001b613cd3565b905092915050565b600061375982600001613d43565b9050919050565b61377a828260405180602001604052806000815250613d54565b5050565b613789848484613318565b61379584848484613dc5565b6137ea576040517f08c379a00000000000000000000000000000000000000000000000000000000081526004018080602001828103825260328152602001806146e86032913960400191505060405180910390fd5b50505050565b60606000821415613838576040518060400160405280600181526020017f30000000000000000000000000000000000000000000000000000000000000008152509050613932565b600082905060005b60008214613862578080600101915050600a828161385a57fe5b049150613840565b60608167ffffffffffffffff8111801561387b57600080fd5b506040519080825280601f01601f1916602001820160405280156138ae5781602001600182028036833780820191505090505b50905060006001830390508593505b6000841461392a57600a84816138cf57fe5b0660300160f81b828280600190039350815181106138e957fe5b60200101907effffffffffffffffffffffffffffffffffffffffffffffffffffffffffffff1916908160001a905350600a848161392257fe5b0493506138bd565b819450505050505b919050565b6000613949836000018360001b6140e8565b905092915050565b600081600001805490509050919050565b505050565b6000613993846000018460001b8473ffffffffffffffffffffffffffffffffffffffff1660001b61410b565b90509392505050565b6000818360000180549050116139fd576040517f08c379a000000000000000000000000000000000000000000000000000000000815260040180806020018281038252602281526020018061469b6022913960400191505060405180910390fd5b826000018281548110613a0c57fe5b9060005260206000200154905092915050565b6000613a31836000018360001b6141e7565b905092915050565b60008082846000018054905011613a9b576040517f08c379a00000000000000000000000000000000000000000000000000000000081526004018080602001828103825260228152602001806148386022913960400191505060405180910390fd5b6000846000018481548110613aac57fe5b906000526020600020906002020190508060000154816001015492509250509250929050565b60008084600101600085815260200190815260200160002054905060008114158390613b99576040517f08c379a00000000000000000000000000000000000000000000000000000000081526004018080602001828103825283818151815260200191508051906020019080838360005b83811015613b5e578082015181840152602081019050613b43565b50505050905090810190601f168015613b8b5780820380516001836020036101000a031916815260200191505b509250505060405180910390fd5b50846000016001820381548110613bac57fe5b9060005260206000209060020201600101549150509392505050565b600080836001016000848152602001908152602001600020541415905092915050565b60008083600101600084815260200190815260200160002054905060008114613cc75760006001820390506000600186600001805490500390506000866000018281548110613c3657fe5b9060005260206000200154905080876000018481548110613c5357fe5b9060005260206000200181905550600183018760010160008381526020019081526020016000208190555086600001805480613c8b57fe5b60019003818190600052602060002001600090559055866001016000878152602001908152602001600020600090556001945050505050613ccd565b60009150505b92915050565b6000613cdf8383613bc8565b613d38578260000182908060018154018082558091505060019003906000526020600020016000909190919091505582600001805490508360010160008481526020019081526020016000208190555060019050613d3d565b600090505b92915050565b600081600001805490509050919050565b613d5e8383614300565b613d6b6000848484613dc5565b613dc0576040517f08c379a00000000000000000000000000000000000000000000000000000000081526004018080602001828103825260328152602001806146e86032913960400191505060405180910390fd5b505050565b6000613de68473ffffffffffffffffffffffffffffffffffffffff166144f4565b613df357600190506140e0565b600060608573ffffffffffffffffffffffffffffffffffffffff1663150b7a0260e01b613e1e61314e565b898888604051602401808573ffffffffffffffffffffffffffffffffffffffff1673ffffffffffffffffffffffffffffffffffffffff1681526020018473ffffffffffffffffffffffffffffffffffffffff1673ffffffffffffffffffffffffffffffffffffffff16815260200183815260200180602001828103825283818151815260200191508051906020019080838360005b83811015613ece578082015181840152602081019050613eb3565b50505050905090810190601f168015613efb5780820380516001836020036101000a031916815260200191505b5095505050505050604051602081830303815290604052907bffffffffffffffffffffffffffffffffffffffffffffffffffffffff19166020820180517bffffffffffffffffffffffffffffffffffffffffffffffffffffffff83818316178352505050506040518082805190602001908083835b60208310613f935780518252602082019150602081019050602083039250613f70565b6001836020036101000a0380198251168184511680821785525050505050509050019150506000604051808303816000865af19150503d8060008114613ff5576040519150601f19603f3d011682016040523d82523d6000602084013e613ffa565b606091505b509150915081614068576000815111156140175780518082602001fd5b6040517f08c379a00000000000000000000000000000000000000000000000000000000081526004018080602001828103825260328152602001806146e86032913960400191505060405180910390fd5b600081806020019051602081101561407f57600080fd5b8101908080519060200190929190505050905063150b7a0260e01b7bffffffffffffffffffffffffffffffffffffffffffffffffffffffff1916817bffffffffffffffffffffffffffffffffffffffffffffffffffffffff19161493505050505b949350505050565b600080836001016000848152602001908152602001600020541415905092915050565b60008084600101600085815260200190815260200160002054905060008114156141b2578460000160405180604001604052808681526020018581525090806001815401808255809150506001900390600052602060002090600202016000909190919091506000820151816000015560208201518160010155505084600001805490508560010160008681526020019081526020016000208190555060019150506141e0565b828560000160018303815481106141c557fe5b90600052602060002090600202016001018190555060009150505b9392505050565b600080836001016000848152602001908152602001600020549050600081146142f4576000600182039050600060018660000180549050039050600086600001828154811061423257fe5b906000526020600020906002020190508087600001848154811061425257fe5b90600052602060002090600202016000820154816000015560018201548160010155905050600183018760010160008360000154815260200190815260200160002081905550866000018054806142a557fe5b60019003818190600052602060002090600202016000808201600090556001820160009055505090558660010160008781526020019081526020016000206000905560019450505050506142fa565b60009150505b92915050565b600073ffffffffffffffffffffffffffffffffffffffff168273ffffffffffffffffffffffffffffffffffffffff1614156143a3576040517f08c379a00000000000000000000000000000000000000000000000000000000081526004018080602001828103825260208152602001807f4552433732313a206d696e7420746f20746865207a65726f206164647265737381525060200191505060405180910390fd5b6143ac81613131565b1561441f576040517f08c379a000000000000000000000000000000000000000000000000000000000815260040180806020018281038252601c8152602001807f4552433732313a20746f6b656e20616c7265616479206d696e7465640000000081525060200191505060405180910390fd5b61442b60008383613962565b61447c81600360008573ffffffffffffffffffffffffffffffffffffffff1673ffffffffffffffffffffffffffffffffffffffff16815260200190815260200160002061373190919063ffffffff16565b50614493818360046139679092919063ffffffff16565b50808273ffffffffffffffffffffffffffffffffffffffff16600073ffffffffffffffffffffffffffffffffffffffff167fddf252ad1be2c89b69c2b068fc378daa952ba7f163c4a11628f55a4df523b3ef60405160405180910390a45050565b60008060007fc5d2460186f7233c927e7db2dcc703c0e500b653ca82273b7bfad8045d85a47060001b9050833f915080821415801561453657506000801b8214155b92505050919050565b50805460018160011615610100020316600290046000825580601f106145655750614584565b601f0160209004906000526020600020908101906145839190614628565b5b50565b50805460008255906000526020600020908101906145a5919061464d565b50565b828054600181600116156101000203166002900490600052602060002090601f016020900481019282601f106145e957805160ff1916838001178555614617565b82800160010185558215614617579182015b828111156146165782518255916020019190600101906145fb565b5b5090506146249190614628565b5090565b61464a91905b8082111561464657600081600090555060010161462e565b5090565b90565b61467691905b808211156146725760008181614669919061453f565b50600101614653565b5090565b9056fe796f7520617265206e6f7420746865206f776e6572206f7220617070726f766572456e756d657261626c655365743a20696e646578206f7574206f6620626f756e6473736c6f744944206d757374203e3d20302c206e6f726d616c20736c6f74207374617274732066726f6d20314552433732313a207472616e7366657220746f206e6f6e20455243373231526563656976657220696d706c656d656e7465724552433732313a207472616e7366657220746f20746865207a65726f206164647265737348692c2063656f2f636f6f2c20796f75206d757374206769766520312066696e6e657920746f20737461727420746865206372656174696f6e206f6620746865204c4c4552433732313a206f70657261746f7220717565727920666f72206e6f6e6578697374656e7420746f6b656e4552433732313a20617070726f76652063616c6c6572206973206e6f74206f776e6572206e6f7220617070726f76656420666f7220616c6c4552433732313a2062616c616e636520717565727920666f7220746865207a65726f20616464726573734552433732313a206f776e657220717565727920666f72206e6f6e6578697374656e7420746f6b656e456e756d657261626c654d61703a20696e646578206f7574206f6620626f756e64734552433732313a20617070726f76656420717565727920666f72206e6f6e6578697374656e7420746f6b656e4552433732313a207472616e73666572206f6620746f6b656e2074686174206973206e6f74206f776e4552433732314d657461646174613a2055524920717565727920666f72206e6f6e6578697374656e7420746f6b656e4552433732313a20617070726f76616c20746f2063757272656e74206f776e65724552433732313a207472616e736665722063616c6c6572206973206e6f74206f776e6572206e6f7220617070726f766564a2646970667358221220f8c5bb3db4e778512c74e2c8b40bb75f2b995aaad05fb8977991fa47eaff2d8664736f6c63430006080033",
  "immutableReferences": {},
  "source": "pragma solidity ^0.6.0;\r\n\r\nimport \"./LoveLockAccessControl.sol\";\r\nimport \"@openzeppelin/contracts/token/ERC721/ERC721.sol\";\r\nimport \"@openzeppelin/contracts/utils/EnumerableSet.sol\";\r\nimport \"./SaleLoveLock.sol\";\r\n\r\ncontract LoveLockBase is LoveLockAccessControl, ERC721 {\r\n    using EnumerableSet for EnumerableSet.UintSet;\r\n    /*** DEFINE THE STRUCT OF LOVELOCK ***/\r\n    constructor() ERC721(\"Love Lock\", \"LL\") public {\r\n        ceoAddress = msg.sender;\r\n        _setBaseURI(\"https://sstshenshutao.github.io/\");\r\n        // the defaultCreationPrice\r\n        defaultPrice = 1 finney;\r\n    }\r\n    struct LoveLock {\r\n        string title;\r\n        string[] notes;\r\n        uint32 currentLength;\r\n        uint32 notesLimit;\r\n        uint32 styleId;\r\n        uint256 slotPos; //0 for not hung, slot index start from 1\r\n    }\r\n\r\n    //    struct Couple {\r\n    //        address me;\r\n    //        address lover;\r\n    //    }\r\n\r\n    /*** STORAGE ***/\r\n\r\n    // save all of the LLs\r\n    mapping(uint256 => LoveLock) public loveLocks;\r\n    uint256 public numLoveLocks; // An integer storing the total number of LLs, use for create the LLs(together with mapping)\r\n    //     the mapper that maintain the usedSlot   (slot:true/false)\r\n    //    mapping(int128 => bool) public usedSlot;\r\n    // slot index start from 1 , eg: [1,3,5,7,....]\r\n    EnumerableSet.UintSet usedSlot;\r\n    //     the mapper that maintain the   (slot:tokenID), for quick retrieval\r\n    mapping(uint256 => uint256) slotToToken;\r\n    // LLs => address(owner)\r\n    // replaced by ownerOf:   mapping(uint256 => address) public loveLockIndexToOwner;\r\n    //the count of LLs this address has.\r\n    // replaced by balanceOf:   mapping(address => uint256) ownershipTokenCount;\r\n    // the Lock can be transferred from one of the couple.\r\n    //    mapping(uint256 => Couple) public lockIndexToApproved;\r\n    /*** modifier ***/\r\n\r\n    /*** FUNCTIONS ***/\r\n    // todo: expose the public functions based on the internal functions\r\n    // todo: the convenient methods(form LoveLock.sol need to integrate here)\r\n    /*** those functions have no requirement, need to be implemented in the layer -- finished, they are public and safe***/\r\n    function getContractAddress() public view returns (address) {\r\n        return address(this);\r\n    }\r\n\r\n    function deleteLock(uint256 tokenId) public {\r\n        require(_isApprovedOrOwner(_msgSender(), tokenId), \"you are not the owner or approver\");\r\n        _burn(tokenId);\r\n        delete loveLocks[tokenId];\r\n    }\r\n    //  add note to a love lock\r\n    function addNote(uint256 tokenId, string memory note) public {\r\n        require(_isApprovedOrOwner(_msgSender(), tokenId), \"you are not the owner or approver\");\r\n        require(loveLocks[tokenId].currentLength < loveLocks[tokenId].notesLimit, \"you are not the owner or approver\");\r\n        loveLocks[tokenId].notes.push(note);\r\n        loveLocks[tokenId].currentLength++;\r\n    }\r\n    //  getNote of the ll\r\n    function getNote(uint tokenId, uint index) public view returns (string memory) {\r\n        return loveLocks[tokenId].notes[index];\r\n    }\r\n    //  hang LL, 0 for pull down\r\n    function hangLL(uint tokenId, uint256 slotId) public {\r\n        require(_isApprovedOrOwner(_msgSender(), tokenId), \"you are not the owner or approver\");\r\n        // this slot must not be taken by other users\r\n        require(!usedSlot.contains(slotId), \"this is already taken by others\");\r\n        // remove the previous used slot, if exists\r\n        require(slotId >= 0, \"slotID must >= 0, normal slot starts from 1\");\r\n        uint256 previousSlot = loveLocks[tokenId].slotPos;\r\n        // if the previousSlot exists\r\n        if (previousSlot > 0) {\r\n            usedSlot.remove(previousSlot);\r\n            delete slotToToken[previousSlot];\r\n            loveLocks[tokenId].slotPos = 0;\r\n        }\r\n        // add a new slot\r\n        if (slotId != 0) {\r\n            usedSlot.add(slotId);\r\n            loveLocks[tokenId].slotPos = slotId;\r\n            slotToToken[slotId] = tokenId;\r\n        }\r\n    }\r\n\r\n    function getUsedSlotLength() public view returns (uint) {\r\n        return usedSlot.length();\r\n    }\r\n    // return the n-th used slot\r\n    function getUsedSlot(uint nth) public view returns (uint) {\r\n        return usedSlot.at(nth);\r\n    }\r\n    // get the lock on a specific slot\r\n    function getLockOnSlot(uint slotId) public view returns (uint) {\r\n        require(usedSlot.contains(slotId), \"this slot is not used\");\r\n        return slotToToken[slotId];\r\n    }\r\n    /*** sale method***/\r\n    // ------------------sale storage --------------\r\n    // the smart contract of selling the LLs\r\n    SaleLoveLock public saleContract;\r\n    // the defaultCreationPrice\r\n    uint256 public defaultPrice;\r\n\r\n    function setSaleContractAddress(address _address) public onlyCEO {\r\n        SaleLoveLock newSaleContract = SaleLoveLock(_address);\r\n        // Set the new contract address\r\n        saleContract = newSaleContract;\r\n    }\r\n    // the smart contract creates LLs for sell\r\n    function createLLtoSell(uint32 styleId, uint32 notesLimit) payable public onlyCLevel {\r\n        require(msg.value >= defaultPrice, \"Hi, ceo/coo, you must give 1 finney to start the creation of the LL\");\r\n        // save the LoveLock temporally in CLevel account\r\n        uint newTokenID = createLL(styleId, notesLimit, _msgSender());\r\n        // give the approval to the saleContract, so that the saleContract can transfer it\r\n        approve(address(saleContract), newTokenID);\r\n        // let saleContract sell the tokens\r\n        saleContract.createSale(newTokenID, 2 ether, _msgSender());\r\n    }\r\n\r\n    // create love lock, return the new ID of token LL, use for generate ll, or directly give ll to one user.\r\n    function createLL(uint32 styleId, uint32 notesLimit, address owner) public onlyCLevel returns (uint){\r\n        // to ensure our data structures are always valid.\r\n        require(styleId == uint256(uint32(styleId)));\r\n        require(notesLimit == uint256(uint32(notesLimit)));\r\n        //create process:\r\n        //create token\r\n        uint256 newLoveLockID = numLoveLocks;\r\n        require(newLoveLockID == uint256(uint32(newLoveLockID)));\r\n        //here !! call transfer from address(0) to _owner, which means creation of token\r\n        _safeMint(owner, newLoveLockID);\r\n        //create LL\r\n        LoveLock storage _loveLock = loveLocks[numLoveLocks];\r\n        _loveLock.notesLimit = notesLimit;\r\n        _loveLock.styleId = styleId;\r\n        numLoveLocks++;\r\n        // emit our Create event to show we mint a LoveLock(different with token transfer event above!!!)\r\n        emit Create(owner, newLoveLockID);\r\n        return newLoveLockID;\r\n    }\r\n    //get the money out\r\n    function ceoPullMoney(uint amountRequested) public onlyCEO {\r\n        msg.sender.transfer(amountRequested);\r\n    }\r\n    function getContractBalance() public onlyCEO view returns (uint){\r\n        return address(this).balance;\r\n    }\r\n    /*** EVENTS ***/\r\n    event Create(address owner, uint256 tokenId);\r\n}\r\n",
  "sourcePath": "D:\\blockchain\\blockChianSeminar\\solidity\\contracts\\LoveLockBase.sol",
  "compiler": {
    "name": "solc",
    "version": "0.6.8+commit.0bbfe453.Emscripten.clang"
  },
  "schemaVersion": "3.1.0",
  "updatedAt": "2020-05-19T13:18:20.644Z",
  "networkType": "ethereum",
  "devdoc": {
    "methods": {
      "approve(address,uint256)": {
        "details": "Approves another address to transfer the given token ID The zero address indicates there is no approved address. There can only be one approved address per token at a given time. Can only be called by the token owner or an approved operator.",
        "params": {
          "to": "address to be approved for the given token ID",
          "tokenId": "uint256 ID of the token to be approved"
        }
      },
      "balanceOf(address)": {
        "details": "Gets the balance of the specified address.",
        "params": {
          "owner": "address to query the balance of"
        },
        "returns": {
          "_0": "uint256 representing the amount owned by the passed address"
        }
      },
      "baseURI()": {
        "details": "Returns the base URI set via {_setBaseURI}. This will be automatically added as a prefix in {tokenURI} to each token's URI, or to the token ID if no specific URI is set for that token ID."
      },
      "getApproved(uint256)": {
        "details": "Gets the approved address for a token ID, or zero if no address set Reverts if the token ID does not exist.",
        "params": {
          "tokenId": "uint256 ID of the token to query the approval of"
        },
        "returns": {
          "_0": "address currently approved for the given token ID"
        }
      },
      "isApprovedForAll(address,address)": {
        "details": "Tells whether an operator is approved by a given owner.",
        "params": {
          "operator": "operator address which you want to query the approval of",
          "owner": "owner address which you want to query the approval of"
        },
        "returns": {
          "_0": "bool whether the given operator is approved by the given owner"
        }
      },
      "name()": {
        "details": "Gets the token name.",
        "returns": {
          "_0": "string representing the token name"
        }
      },
      "ownerOf(uint256)": {
        "details": "Gets the owner of the specified token ID.",
        "params": {
          "tokenId": "uint256 ID of the token to query the owner of"
        },
        "returns": {
          "_0": "address currently marked as the owner of the given token ID"
        }
      },
      "safeTransferFrom(address,address,uint256)": {
        "details": "Safely transfers the ownership of a given token ID to another address If the target address is a contract, it must implement {IERC721Receiver-onERC721Received}, which is called upon a safe transfer, and return the magic value `bytes4(keccak256(\"onERC721Received(address,address,uint256,bytes)\"))`; otherwise, the transfer is reverted. Requires the msg.sender to be the owner, approved, or operator",
        "params": {
          "from": "current owner of the token",
          "to": "address to receive the ownership of the given token ID",
          "tokenId": "uint256 ID of the token to be transferred"
        }
      },
      "safeTransferFrom(address,address,uint256,bytes)": {
        "details": "Safely transfers the ownership of a given token ID to another address If the target address is a contract, it must implement {IERC721Receiver-onERC721Received}, which is called upon a safe transfer, and return the magic value `bytes4(keccak256(\"onERC721Received(address,address,uint256,bytes)\"))`; otherwise, the transfer is reverted. Requires the _msgSender() to be the owner, approved, or operator",
        "params": {
          "_data": "bytes data to send along with a safe transfer check",
          "from": "current owner of the token",
          "to": "address to receive the ownership of the given token ID",
          "tokenId": "uint256 ID of the token to be transferred"
        }
      },
      "setApprovalForAll(address,bool)": {
        "details": "Sets or unsets the approval of a given operator An operator is allowed to transfer all tokens of the sender on their behalf.",
        "params": {
          "approved": "representing the status of the approval to be set",
          "operator": "operator address to set the approval"
        }
      },
      "supportsInterface(bytes4)": {
        "details": "See {IERC165-supportsInterface}.     * Time complexity O(1), guaranteed to always use less than 30 000 gas."
      },
      "symbol()": {
        "details": "Gets the token symbol.",
        "returns": {
          "_0": "string representing the token symbol"
        }
      },
      "tokenByIndex(uint256)": {
        "details": "Gets the token ID at a given index of all the tokens in this contract Reverts if the index is greater or equal to the total number of tokens.",
        "params": {
          "index": "uint256 representing the index to be accessed of the tokens list"
        },
        "returns": {
          "_0": "uint256 token ID at the given index of the tokens list"
        }
      },
      "tokenOfOwnerByIndex(address,uint256)": {
        "details": "Gets the token ID at a given index of the tokens list of the requested owner.",
        "params": {
          "index": "uint256 representing the index to be accessed of the requested tokens list",
          "owner": "address owning the tokens list to be accessed"
        },
        "returns": {
          "_0": "uint256 token ID at the given index of the tokens list owned by the requested address"
        }
      },
      "tokenURI(uint256)": {
        "details": "Returns the URI for a given token ID. May return an empty string.     * If a base URI is set (via {_setBaseURI}), it is added as a prefix to the token's own URI (via {_setTokenURI}).     * If there is a base URI but no token URI, the token's ID will be used as its URI when appending it to the base URI. This pattern for autogenerated token URIs can lead to large gas savings.     * .Examples |=== |`_setBaseURI()` |`_setTokenURI()` |`tokenURI()` | \"\" | \"\" | \"\" | \"\" | \"token.uri/123\" | \"token.uri/123\" | \"token.uri/\" | \"123\" | \"token.uri/123\" | \"token.uri/\" | \"\" | \"token.uri/<tokenId>\" |===     * Requirements:     * - `tokenId` must exist."
      },
      "totalSupply()": {
        "details": "Gets the total amount of tokens stored by the contract.",
        "returns": {
          "_0": "uint256 representing the total amount of tokens"
        }
      },
      "transferFrom(address,address,uint256)": {
        "details": "Transfers the ownership of a given token ID to another address. Usage of this method is discouraged, use {safeTransferFrom} whenever possible. Requires the msg.sender to be the owner, approved, or operator.",
        "params": {
          "from": "current owner of the token",
          "to": "address to receive the ownership of the given token ID",
          "tokenId": "uint256 ID of the token to be transferred"
        }
      }
    }
  },
  "userdoc": {
    "methods": {
      "constructor": "* DEFINE THE STRUCT OF LOVELOCK **",
      "getContractAddress()": {
        "notice": "* those functions have no requirement, need to be implemented in the layer -- finished, they are public and safe**"
      }
    }
  }
}