{
  "contractName": "LoveLock",
  "abi": [
    {
      "inputs": [],
      "payable": false,
      "stateMutability": "nonpayable",
      "type": "constructor"
    },
    {
      "anonymous": false,
      "inputs": [
        {
          "indexed": true,
          "internalType": "address",
          "name": "_from",
          "type": "address"
        },
        {
          "indexed": true,
          "internalType": "address",
          "name": "_to",
          "type": "address"
        },
        {
          "indexed": true,
          "internalType": "uint256",
          "name": "_tokenId",
          "type": "uint256"
        }
      ],
      "name": "Transfer",
      "type": "event"
    },
    {
      "constant": true,
      "inputs": [],
      "name": "beneficiary",
      "outputs": [
        {
          "internalType": "address payable",
          "name": "",
          "type": "address"
        }
      ],
      "payable": false,
      "stateMutability": "view",
      "type": "function"
    },
    {
      "constant": true,
      "inputs": [
        {
          "internalType": "uint256",
          "name": "",
          "type": "uint256"
        }
      ],
      "name": "hangMapping",
      "outputs": [
        {
          "internalType": "uint256",
          "name": "",
          "type": "uint256"
        }
      ],
      "payable": false,
      "stateMutability": "view",
      "type": "function"
    },
    {
      "constant": true,
      "inputs": [
        {
          "internalType": "uint256",
          "name": "",
          "type": "uint256"
        }
      ],
      "name": "lockIDs",
      "outputs": [
        {
          "internalType": "uint256",
          "name": "",
          "type": "uint256"
        }
      ],
      "payable": false,
      "stateMutability": "view",
      "type": "function"
    },
    {
      "constant": true,
      "inputs": [
        {
          "internalType": "uint256",
          "name": "",
          "type": "uint256"
        }
      ],
      "name": "tokenMapping",
      "outputs": [
        {
          "internalType": "address",
          "name": "ownerAddr",
          "type": "address"
        },
        {
          "internalType": "string",
          "name": "title",
          "type": "string"
        }
      ],
      "payable": false,
      "stateMutability": "view",
      "type": "function"
    },
    {
      "constant": false,
      "inputs": [
        {
          "internalType": "uint256",
          "name": "lockID",
          "type": "uint256"
        }
      ],
      "name": "buyLock",
      "outputs": [],
      "payable": true,
      "stateMutability": "payable",
      "type": "function"
    },
    {
      "constant": false,
      "inputs": [
        {
          "internalType": "uint256",
          "name": "slotId",
          "type": "uint256"
        },
        {
          "internalType": "uint256",
          "name": "lockID",
          "type": "uint256"
        }
      ],
      "name": "hangLock",
      "outputs": [],
      "payable": true,
      "stateMutability": "payable",
      "type": "function"
    },
    {
      "constant": true,
      "inputs": [],
      "name": "getBeneficiary",
      "outputs": [
        {
          "internalType": "address payable",
          "name": "",
          "type": "address"
        }
      ],
      "payable": false,
      "stateMutability": "view",
      "type": "function"
    },
    {
      "constant": true,
      "inputs": [],
      "name": "getUsedLocks",
      "outputs": [
        {
          "internalType": "uint256[]",
          "name": "",
          "type": "uint256[]"
        }
      ],
      "payable": false,
      "stateMutability": "view",
      "type": "function"
    },
    {
      "constant": true,
      "inputs": [],
      "name": "getUsedSlots",
      "outputs": [
        {
          "internalType": "uint256[]",
          "name": "",
          "type": "uint256[]"
        }
      ],
      "payable": false,
      "stateMutability": "view",
      "type": "function"
    },
    {
      "constant": false,
      "inputs": [
        {
          "internalType": "uint256",
          "name": "lockID",
          "type": "uint256"
        },
        {
          "internalType": "string",
          "name": "note",
          "type": "string"
        }
      ],
      "name": "addNote",
      "outputs": [],
      "payable": false,
      "stateMutability": "nonpayable",
      "type": "function"
    },
    {
      "constant": true,
      "inputs": [
        {
          "internalType": "uint256",
          "name": "lockID",
          "type": "uint256"
        }
      ],
      "name": "getNotesLen",
      "outputs": [
        {
          "internalType": "uint256",
          "name": "",
          "type": "uint256"
        }
      ],
      "payable": false,
      "stateMutability": "view",
      "type": "function"
    },
    {
      "constant": true,
      "inputs": [
        {
          "internalType": "uint256",
          "name": "lockID",
          "type": "uint256"
        },
        {
          "internalType": "uint256",
          "name": "index",
          "type": "uint256"
        }
      ],
      "name": "getNote",
      "outputs": [
        {
          "internalType": "string",
          "name": "",
          "type": "string"
        }
      ],
      "payable": false,
      "stateMutability": "view",
      "type": "function"
    },
    {
      "constant": false,
      "inputs": [
        {
          "internalType": "uint256",
          "name": "lockID",
          "type": "uint256"
        },
        {
          "internalType": "uint256",
          "name": "index",
          "type": "uint256"
        },
        {
          "internalType": "string",
          "name": "note",
          "type": "string"
        }
      ],
      "name": "modifyNote",
      "outputs": [],
      "payable": false,
      "stateMutability": "nonpayable",
      "type": "function"
    },
    {
      "constant": false,
      "inputs": [
        {
          "internalType": "uint256",
          "name": "lockID",
          "type": "uint256"
        },
        {
          "internalType": "string",
          "name": "title",
          "type": "string"
        }
      ],
      "name": "addTitle",
      "outputs": [],
      "payable": false,
      "stateMutability": "nonpayable",
      "type": "function"
    },
    {
      "constant": true,
      "inputs": [
        {
          "internalType": "uint256",
          "name": "lockID",
          "type": "uint256"
        }
      ],
      "name": "getTitle",
      "outputs": [
        {
          "internalType": "string",
          "name": "",
          "type": "string"
        }
      ],
      "payable": false,
      "stateMutability": "view",
      "type": "function"
    }
  ],
  "bytecode": "0x608060405234801561001057600080fd5b503361018460006101000a81548173ffffffffffffffffffffffffffffffffffffffff021916908373ffffffffffffffffffffffffffffffffffffffff16021790555061017e600481905550671bc16d674ec80000610183819055506112e88061007b6000396000f3fe6080604052600436106100e85760003560e01c8063929a79b11161008a578063c6bd5fda11610059578063c6bd5fda14610661578063c774e59c14610699578063ca15132614610705578063db491e80146107e1576100e8565b8063929a79b114610420578063a8aa4b87146104d4578063aa44f42b14610540578063bc4da8791461058f576100e8565b8063565a2e2c116100c6578063565a2e2c146102445780635e1c305a1461029b5780638c928d25146102ea5780638c9c7830146103d1576100e8565b80632a54e540146100ed57806338af3eed146101bf5780634de9ab1e14610216575b600080fd5b3480156100f957600080fd5b506101bd6004803603604081101561011057600080fd5b81019080803590602001909291908035906020019064010000000081111561013757600080fd5b82018360208201111561014957600080fd5b8035906020019184600183028401116401000000008311171561016b57600080fd5b91908080601f016020809104026020016040519081016040528093929190818152602001838380828437600081840152601f19601f82011690508083019250505050505050919291929050505061089f565b005b3480156101cb57600080fd5b506101d46108cd565b604051808273ffffffffffffffffffffffffffffffffffffffff1673ffffffffffffffffffffffffffffffffffffffff16815260200191505060405180910390f35b6102426004803603602081101561022c57600080fd5b81019080803590602001909291905050506108f4565b005b34801561025057600080fd5b50610259610b8d565b604051808273ffffffffffffffffffffffffffffffffffffffff1673ffffffffffffffffffffffffffffffffffffffff16815260200191505060405180910390f35b3480156102a757600080fd5b506102d4600480360360208110156102be57600080fd5b8101908080359060200190929190505050610bb8565b6040518082815260200191505060405180910390f35b3480156102f657600080fd5b506103236004803603602081101561030d57600080fd5b8101908080359060200190929190505050610bd1565b604051808373ffffffffffffffffffffffffffffffffffffffff1673ffffffffffffffffffffffffffffffffffffffff16815260200180602001828103825283818151815260200191508051906020019080838360005b8381101561039557808201518184015260208101905061037a565b50505050905090810190601f1680156103c25780820380516001836020036101000a031916815260200191505b50935050505060405180910390f35b3480156103dd57600080fd5b5061040a600480360360208110156103f457600080fd5b8101908080359060200190929190505050610cad565b6040518082815260200191505060405180910390f35b34801561042c57600080fd5b506104596004803603602081101561044357600080fd5b8101908080359060200190929190505050610cc5565b6040518080602001828103825283818151815260200191508051906020019080838360005b8381101561049957808201518184015260208101905061047e565b50505050905090810190601f1680156104c65780820380516001836020036101000a031916815260200191505b509250505060405180910390f35b3480156104e057600080fd5b506104e9610d7c565b6040518080602001828103825283818151815260200191508051906020019060200280838360005b8381101561052c578082015181840152602081019050610511565b505050509050019250505060405180910390f35b34801561054c57600080fd5b506105796004803603602081101561056357600080fd5b8101908080359060200190929190505050610dd4565b6040518082815260200191505060405180910390f35b34801561059b57600080fd5b5061065f600480360360408110156105b257600080fd5b8101908080359060200190929190803590602001906401000000008111156105d957600080fd5b8201836020820111156105eb57600080fd5b8035906020019184600183028401116401000000008311171561060d57600080fd5b91908080601f016020809104026020016040519081016040528093929190818152602001838380828437600081840152601f19601f820116905080830192505050505050509192919290505050610df6565b005b6106976004803603604081101561067757600080fd5b810190808035906020019092919080359060200190929190505050610e4c565b005b3480156106a557600080fd5b506106ae61107b565b6040518080602001828103825283818151815260200191508051906020019060200280838360005b838110156106f15780820151818401526020810190506106d6565b505050509050019250505060405180910390f35b34801561071157600080fd5b506107df6004803603606081101561072857600080fd5b8101908080359060200190929190803590602001909291908035906020019064010000000081111561075957600080fd5b82018360208201111561076b57600080fd5b8035906020019184600183028401116401000000008311171561078d57600080fd5b91908080601f016020809104026020016040519081016040528093929190818152602001838380828437600081840152601f19601f8201169050808301925050505050505091929192905050506110d3565b005b3480156107ed57600080fd5b506108246004803603604081101561080457600080fd5b810190808035906020019092919080359060200190929190505050611117565b6040518080602001828103825283818151815260200191508051906020019080838360005b83811015610864578082015181840152602081019050610849565b50505050905090810190601f1680156108915780820380516001836020036101000a031916815260200191505b509250505060405180910390f35b8060008084815260200190815260200160002060010190805190602001906108c89291906111e4565b505050565b61018460009054906101000a900473ffffffffffffffffffffffffffffffffffffffff1681565b61018354341015610950576040517f08c379a000000000000000000000000000000000000000000000000000000000815260040180806020018281038252602a81526020018061128a602a913960400191505060405180910390fd5b6001811015801561096657506001600454038111155b6109d8576040517f08c379a000000000000000000000000000000000000000000000000000000000815260040180806020018281038252601d8152602001807f6c6f636b4944206d757374206265747765656e203120616e642033383100000081525060200191505060405180910390fd5b600073ffffffffffffffffffffffffffffffffffffffff1660008083815260200190815260200160002060000160009054906101000a900473ffffffffffffffffffffffffffffffffffffffff1673ffffffffffffffffffffffffffffffffffffffff1614610aaf576040517f08c379a000000000000000000000000000000000000000000000000000000000815260040180806020018281038252601f8152602001807f746865206c6f636b2062656c6f6e677320746f20616e6f74686572206f6e650081525060200191505060405180910390fd5b3360008083815260200190815260200160002060000160006101000a81548173ffffffffffffffffffffffffffffffffffffffff021916908373ffffffffffffffffffffffffffffffffffffffff1602179055506001819080600181540180825580915050906001820390600052602060002001600090919290919091505550803373ffffffffffffffffffffffffffffffffffffffff163073ffffffffffffffffffffffffffffffffffffffff167fddf252ad1be2c89b69c2b068fc378daa952ba7f163c4a11628f55a4df523b3ef60405160405180910390a450565b600061018460009054906101000a900473ffffffffffffffffffffffffffffffffffffffff16905090565b60058161017e8110610bc657fe5b016000915090505481565b60006020528060005260406000206000915090508060000160009054906101000a900473ffffffffffffffffffffffffffffffffffffffff1690806001018054600181600116156101000203166002900480601f016020809104026020016040519081016040528092919081815260200182805460018160011615610100020316600290048015610ca35780601f10610c7857610100808354040283529160200191610ca3565b820191906000526020600020905b815481529060010190602001808311610c8657829003601f168201915b5050505050905082565b60026020528060005260406000206000915090505481565b60606000808381526020019081526020016000206001018054600181600116156101000203166002900480601f016020809104026020016040519081016040528092919081815260200182805460018160011615610100020316600290048015610d705780601f10610d4557610100808354040283529160200191610d70565b820191906000526020600020905b815481529060010190602001808311610d5357829003601f168201915b50505050509050919050565b60606003805480602002602001604051908101604052809291908181526020018280548015610dca57602002820191906000526020600020905b815481526020019060010190808311610db6575b5050505050905090565b6000806000838152602001908152602001600020600201805490509050919050565b600080838152602001908152602001600020600201819080600181540180825580915050906001820390600052602060002001600090919290919091509080519060200190610e469291906111e4565b50505050565b60018210158015610e6257506001600454038211155b610ed4576040517f08c379a000000000000000000000000000000000000000000000000000000000815260040180806020018281038252601d8152602001807f736c6f744964206d757374206265747765656e203120616e642033383100000081525060200191505060405180910390fd5b3373ffffffffffffffffffffffffffffffffffffffff1660008083815260200190815260200160002060000160009054906101000a900473ffffffffffffffffffffffffffffffffffffffff1673ffffffffffffffffffffffffffffffffffffffff1614610faa576040517f08c379a00000000000000000000000000000000000000000000000000000000081526004018080602001828103825260178152602001807f796f7520646f6e2774206f776e2074686973206c6f636b00000000000000000081525060200191505060405180910390fd5b6000600260008481526020019081526020016000205414611033576040517f08c379a000000000000000000000000000000000000000000000000000000000815260040180806020018281038252601f8152602001807f7468697320697320616c72656164792074616b656e206279206f74686572730081525060200191505060405180910390fd5b60038290806001815401808255809150509060018203906000526020600020016000909192909190915055508060026000848152602001908152602001600020819055505050565b606060018054806020026020016040519081016040528092919081815260200182805480156110c957602002820191906000526020600020905b8154815260200190600101908083116110b5575b5050505050905090565b8060008085815260200190815260200160002060020183815481106110f457fe5b9060005260206000200190805190602001906111119291906111e4565b50505050565b6060600080848152602001908152602001600020600201828154811061113957fe5b906000526020600020018054600181600116156101000203166002900480601f0160208091040260200160405190810160405280929190818152602001828054600181600116156101000203166002900480156111d75780601f106111ac576101008083540402835291602001916111d7565b820191906000526020600020905b8154815290600101906020018083116111ba57829003601f168201915b5050505050905092915050565b828054600181600116156101000203166002900490600052602060002090601f016020900481019282601f1061122557805160ff1916838001178555611253565b82800160010185558215611253579182015b82811115611252578251825591602001919060010190611237565b5b5090506112609190611264565b5090565b61128691905b8082111561128257600081600090555060010161126a565b5090565b9056fe796f7520646f6e27742070617920656e6f75676820707269636520746f2062757920746865206c6f636ba265627a7a72315820df70f66390b2b056ea57ced64c266cd57c0c37f915d95167030e191c24493cfb64736f6c63430005100032",
  "source": "pragma solidity ^0.5.0;\r\n\r\n// todo:  need to handle the role (make protection of who can use which methods.)\r\n// todo:  that should be done by using function modifier(like python's function decorator)\r\ncontract LoveLock /*is ERC721*/ {\r\n    //\r\n    struct Lock {\r\n        address ownerAddr;\r\n        string title;\r\n        string[] notes;\r\n    }\r\n    // the mapper that maintain the token Information   (tokenID:Lock)\r\n    mapping(uint256 => Lock) public tokenMapping;\r\n    // for retrieval\r\n    uint256[] usedToken;\r\n    // the mapper that maintain the hang places    (slot:tokenID)\r\n    mapping(uint256 => uint256) public hangMapping;\r\n    // for retrieval\r\n    uint256[] usedSlot;\r\n    //  we provide 381 tokens with 381 slots, firstly, the slot size is limited by the canvas(front-end)\r\n    // todo: later the tokens can be more than 381\r\n    uint256 total;\r\n    // id == 0  is special\r\n    uint256[382] public lockIDs;\r\n    uint256 lockPrice;\r\n    // this is the person who can get the revenue from the contract!!!\r\n    address payable public beneficiary;\r\n\r\n    constructor() public {\r\n        beneficiary = msg.sender;\r\n        total = 382;\r\n        lockPrice = 2 ether;\r\n        //init lockIDs\r\n    }\r\n    //todo: delete it (dummy data for test without implement all method in erc721)\r\n    event Transfer(address indexed _from, address indexed _to, uint256 indexed _tokenId);\r\n\r\n    function buyLock(uint lockID) public payable {\r\n        // the price  offered by the user must be greater than {{lockPrice}}\r\n        require(msg.value >= lockPrice, \"you don't pay enough price to buy the lock\");\r\n        // 0 is special\r\n        require(lockID >= 1 && lockID <= total - 1, \"lockID must between 1 and 381\");\r\n        // isUsed\r\n        require(tokenMapping[lockID].ownerAddr == 0x0000000000000000000000000000000000000000, \"the lock belongs to another one\");\r\n        // the lock is not belong to the msg.sender(user)\r\n        tokenMapping[lockID].ownerAddr = msg.sender;\r\n        // add to usedToken\r\n        usedToken.push(lockID);\r\n        // broadcast this happy thing, change the owner\r\n        emit Transfer(address(this), msg.sender, lockID);\r\n    }\r\n\r\n    function hangLock(uint slotId, uint lockID) public payable {\r\n        // the slotId in the picture must in range(0-380)\r\n        require(slotId >= 1 && slotId <= total - 1, \"slotId must between 1 and 381\");\r\n        // the user must have the lock\r\n        require(tokenMapping[lockID].ownerAddr == msg.sender, \"you don't own this lock\");\r\n        // this slot must not be taken by other users\r\n        require(hangMapping[slotId] == 0, \"this is already taken by others\");\r\n        usedSlot.push(slotId);\r\n        hangMapping[slotId] = lockID;\r\n    }\r\n\r\n    function getBeneficiary() public view returns (address payable) {\r\n        return beneficiary;\r\n    }\r\n    // for retrieval\r\n    function getUsedLocks() public view returns (uint[] memory) {\r\n        return usedToken;\r\n    }\r\n    // for retrieval\r\n    function getUsedSlots() public view returns (uint[] memory) {\r\n        return usedSlot;\r\n    }\r\n\r\n    function addNote(uint lockID, string memory note) public {\r\n        tokenMapping[lockID].notes.push(note);\r\n    }\r\n\r\n    function getNotesLen(uint lockID) public view returns (uint) {\r\n        return tokenMapping[lockID].notes.length;\r\n    }\r\n\r\n    function getNote(uint lockID, uint index) public view returns (string memory){\r\n        return tokenMapping[lockID].notes[index];\r\n    }\r\n\r\n    function modifyNote(uint lockID, uint index, string memory note) public {\r\n        tokenMapping[lockID].notes[index] = note;\r\n    }\r\n\r\n    function addTitle(uint lockID, string memory title) public {\r\n        tokenMapping[lockID].title = title;\r\n    }\r\n\r\n    function getTitle(uint lockID) public view returns (string memory) {\r\n        return tokenMapping[lockID].title;\r\n    }\r\n\r\n}\r\n\r\n/// @title ERC-721 Non-Fungible Token Standard\r\n/// @dev See https://github.com/ethereum/EIPs/blob/master/EIPS/eip-721.md\r\n///  Note: the ERC-165 identifier for this interface is 0x80ac58cd\r\n//interface ERC721 /* is ERC165 */ {\r\n//    /// @dev This emits when ownership of any NFT changes by any mechanism.\r\n//    ///  This event emits when NFTs are created (`from` == 0) and destroyed\r\n//    ///  (`to` == 0). Exception: during contract creation, any number of NFTs\r\n//    ///  may be created and assigned without emitting Transfer. At the time of\r\n//    ///  any transfer, the approved address for that NFT (if any) is reset to none.\r\n//    event Transfer(address indexed _from, address indexed _to, uint256 indexed _tokenId);\r\n//\r\n//    /// @dev This emits when the approved address for an NFT is changed or\r\n//    ///  reaffirmed. The zero address indicates there is no approved address.\r\n//    ///  When a Transfer event emits, this also indicates that the approved\r\n//    ///  address for that NFT (if any) is reset to none.\r\n//    event Approval(address indexed _owner, address indexed _approved, uint256 indexed _tokenId);\r\n//\r\n//    /// @dev This emits when an operator is enabled or disabled for an owner.\r\n//    ///  The operator can manage all NFTs of the owner.\r\n//    event ApprovalForAll(address indexed _owner, address indexed _operator, bool _approved);\r\n//\r\n//    /// @notice Count all NFTs assigned to an owner\r\n//    /// @dev NFTs assigned to the zero address are considered invalid, and this\r\n//    ///  function throws for queries about the zero address.\r\n//    /// @param _owner An address for whom to query the balance\r\n//    /// @return The number of NFTs owned by `_owner`, possibly zero\r\n//    function balanceOf(address _owner) external view returns (uint256);\r\n//\r\n//    /// @notice Find the owner of an NFT\r\n//    /// @dev NFTs assigned to zero address are considered invalid, and queries\r\n//    ///  about them do throw.\r\n//    /// @param _tokenId The identifier for an NFT\r\n//    /// @return The address of the owner of the NFT\r\n//    function ownerOf(uint256 _tokenId) external view returns (address);\r\n//\r\n//    /// @notice Transfers the ownership of an NFT from one address to another address\r\n//    /// @dev Throws unless `msg.sender` is the current owner, an authorized\r\n//    ///  operator, or the approved address for this NFT. Throws if `_from` is\r\n//    ///  not the current owner. Throws if `_to` is the zero address. Throws if\r\n//    ///  `_tokenId` is not a valid NFT. When transfer is complete, this function\r\n//    ///  checks if `_to` is a smart contract (code size > 0). If so, it calls\r\n//    ///  `onERC721Received` on `_to` and throws if the return value is not\r\n//    ///  `bytes4(keccak256(\"onERC721Received(address,address,uint256,bytes)\"))`.\r\n//    /// @param _from The current owner of the NFT\r\n//    /// @param _to The new owner\r\n//    /// @param _tokenId The NFT to transfer\r\n//    /// @param data Additional data with no specified format, sent in call to `_to`\r\n//    function safeTransferFrom(address _from, address _to, uint256 _tokenId, bytes data) external payable;\r\n//\r\n//    /// @notice Transfers the ownership of an NFT from one address to another address\r\n//    /// @dev This works identically to the other function with an extra data parameter,\r\n//    ///  except this function just sets data to \"\"\r\n//    /// @param _from The current owner of the NFT\r\n//    /// @param _to The new owner\r\n//    /// @param _tokenId The NFT to transfer\r\n//    function safeTransferFrom(address _from, address _to, uint256 _tokenId) external payable;\r\n//\r\n//    /// @notice Transfer ownership of an NFT -- THE CALLER IS RESPONSIBLE\r\n//    ///  TO CONFIRM THAT `_to` IS CAPABLE OF RECEIVING NFTS OR ELSE\r\n//    ///  THEY MAY BE PERMANENTLY LOST\r\n//    /// @dev Throws unless `msg.sender` is the current owner, an authorized\r\n//    ///  operator, or the approved address for this NFT. Throws if `_from` is\r\n//    ///  not the current owner. Throws if `_to` is the zero address. Throws if\r\n//    ///  `_tokenId` is not a valid NFT.\r\n//    /// @param _from The current owner of the NFT\r\n//    /// @param _to The new owner\r\n//    /// @param _tokenId The NFT to transfer\r\n//    function transferFrom(address _from, address _to, uint256 _tokenId) external payable;\r\n//\r\n//    /// @notice Set or reaffirm the approved address for an NFT\r\n//    /// @dev The zero address indicates there is no approved address.\r\n//    /// @dev Throws unless `msg.sender` is the current NFT owner, or an authorized\r\n//    ///  operator of the current owner.\r\n//    /// @param _approved The new approved NFT controller\r\n//    /// @param _tokenId The NFT to approve\r\n//    function approve(address _approved, uint256 _tokenId) external payable;\r\n//\r\n//    /// @notice Enable or disable approval for a third party (\"operator\") to manage\r\n//    ///  all of `msg.sender`'s assets.\r\n//    /// @dev Emits the ApprovalForAll event. The contract MUST allow\r\n//    ///  multiple operators per owner.\r\n//    /// @param _operator Address to add to the set of authorized operators.\r\n//    /// @param _approved True if the operator is approved, false to revoke approval\r\n//    function setApprovalForAll(address _operator, bool _approved) external;\r\n//\r\n//    /// @notice Get the approved address for a single NFT\r\n//    /// @dev Throws if `_tokenId` is not a valid NFT\r\n//    /// @param _tokenId The NFT to find the approved address for\r\n//    /// @return The approved address for this NFT, or the zero address if there is none\r\n//    function getApproved(uint256 _tokenId) external view returns (address);\r\n//\r\n//    /// @notice Query if an address is an authorized operator for another address\r\n//    /// @param _owner The address that owns the NFTs\r\n//    /// @param _operator The address that acts on behalf of the owner\r\n//    /// @return True if `_operator` is an approved operator for `_owner`, false otherwise\r\n//    function isApprovedForAll(address _owner, address _operator) external view returns (bool);\r\n//}",
  "sourcePath": "D:\\blockchain\\blockChianSeminar\\solidity\\contracts\\LoveLock.sol",
  "compiler": {
    "name": "solc",
    "version": "0.5.16+commit.9c3226ce.Emscripten.clang"
  },
  "schemaVersion": "3.1.0",
  "updatedAt": "2020-05-14T19:56:19.406Z",
  "networkType": "ethereum",
  "devdoc": {
    "methods": {}
  },
  "userdoc": {
    "methods": {}
  }
}