{
  "contractName": "LoveLock",
  "abi": [
    {
      "inputs": [],
      "payable": false,
      "stateMutability": "nonpayable",
      "type": "constructor"
    },
    {
      "constant": true,
      "inputs": [],
      "name": "beneficiary",
      "outputs": [
        {
          "internalType": "address payable",
          "name": "",
          "type": "address"
        }
      ],
      "payable": false,
      "stateMutability": "view",
      "type": "function"
    },
    {
      "constant": true,
      "inputs": [
        {
          "internalType": "uint256",
          "name": "",
          "type": "uint256"
        }
      ],
      "name": "locks",
      "outputs": [
        {
          "internalType": "address",
          "name": "",
          "type": "address"
        }
      ],
      "payable": false,
      "stateMutability": "view",
      "type": "function"
    },
    {
      "constant": false,
      "inputs": [
        {
          "internalType": "uint256",
          "name": "lockLocationId",
          "type": "uint256"
        }
      ],
      "name": "drawLock",
      "outputs": [
        {
          "internalType": "uint256",
          "name": "",
          "type": "uint256"
        }
      ],
      "payable": true,
      "stateMutability": "payable",
      "type": "function"
    },
    {
      "constant": true,
      "inputs": [],
      "name": "getBeneficiary",
      "outputs": [
        {
          "internalType": "address payable",
          "name": "",
          "type": "address"
        }
      ],
      "payable": false,
      "stateMutability": "view",
      "type": "function"
    },
    {
      "constant": true,
      "inputs": [],
      "name": "getLocks",
      "outputs": [
        {
          "internalType": "address[381]",
          "name": "",
          "type": "address[381]"
        }
      ],
      "payable": false,
      "stateMutability": "view",
      "type": "function"
    }
  ],
  "bytecode": "0x608060405234801561001057600080fd5b503361017d60006101000a81548173ffffffffffffffffffffffffffffffffffffffff021916908373ffffffffffffffffffffffffffffffffffffffff1602179055506104ca806100626000396000f3fe60806040526004361061004a5760003560e01c806338af3eed1461004f57806344b056ed146100a6578063565a2e2c146100fa578063eec2e93314610151578063f4dadc6114610193575b600080fd5b34801561005b57600080fd5b5061006461020e565b604051808273ffffffffffffffffffffffffffffffffffffffff1673ffffffffffffffffffffffffffffffffffffffff16815260200191505060405180910390f35b3480156100b257600080fd5b506100bb610235565b604051808261017d60200280838360005b838110156100e75780820151818401526020810190506100cc565b5050505090500191505060405180910390f35b34801561010657600080fd5b5061010f6102b8565b604051808273ffffffffffffffffffffffffffffffffffffffff1673ffffffffffffffffffffffffffffffffffffffff16815260200191505060405180910390f35b61017d6004803603602081101561016757600080fd5b81019080803590602001909291905050506102e3565b6040518082815260200191505060405180910390f35b34801561019f57600080fd5b506101cc600480360360208110156101b657600080fd5b810190808035906020019092919050505061043d565b604051808273ffffffffffffffffffffffffffffffffffffffff1673ffffffffffffffffffffffffffffffffffffffff16815260200191505060405180910390f35b61017d60009054906101000a900473ffffffffffffffffffffffffffffffffffffffff1681565b61023d610471565b600061017d80602002604051908101604052809291908261017d80156102ae576020028201915b8160009054906101000a900473ffffffffffffffffffffffffffffffffffffffff1673ffffffffffffffffffffffffffffffffffffffff1681526020019060010190808311610264575b5050505050905090565b600061017d60009054906101000a900473ffffffffffffffffffffffffffffffffffffffff16905090565b6000671bc16d674ec800003410156102fa57600080fd5b6000821015801561030d575061017c8211155b61031657600080fd5b600073ffffffffffffffffffffffffffffffffffffffff1660008361017d811061033c57fe5b0160009054906101000a900473ffffffffffffffffffffffffffffffffffffffff1673ffffffffffffffffffffffffffffffffffffffff16146103e7576040517f08c379a000000000000000000000000000000000000000000000000000000000815260040180806020018281038252601f8152602001807f7468697320697320616c72656164792074616b656e206279206f74686572730081525060200191505060405180910390fd5b3360008361017d81106103f657fe5b0160006101000a81548173ffffffffffffffffffffffffffffffffffffffff021916908373ffffffffffffffffffffffffffffffffffffffff160217905550819050919050565b60008161017d811061044b57fe5b016000915054906101000a900473ffffffffffffffffffffffffffffffffffffffff1681565b60405180612fa0016040528061017d9060208202803883398082019150509050509056fea265627a7a7231582011487b6aee12314b4b9f0c320d989f5a73810da14fe87bd342dd8c3d3757383164736f6c63430005100032",
  "source": "pragma solidity ^0.5.0;\r\n\r\ncontract LoveLock {\r\n    address[381] public locks;\r\n    address payable public beneficiary;\r\n\r\n    constructor() public {\r\n        beneficiary = msg.sender;\r\n    }\r\n\r\n    function drawLock(uint lockLocationId) public payable returns (uint) {\r\n        require(msg.value>=2 ether);\r\n        require(lockLocationId >= 0 && lockLocationId <= 380);\r\n        require(locks[lockLocationId] == 0x0000000000000000000000000000000000000000,\"this is already taken by others\");\r\n        locks[lockLocationId] = msg.sender;\r\n        return lockLocationId;\r\n    }\r\n\r\n    function getBeneficiary() public view returns (address payable) {\r\n        return beneficiary;\r\n    }\r\n\r\n    function getLocks() public view returns (address[381] memory) {\r\n        return locks;\r\n    }\r\n\r\n}",
  "sourcePath": "D:\\blockchain\\blockChianSeminar\\contracts\\LoveLock.sol",
  "compiler": {
    "name": "solc",
    "version": "0.5.16+commit.9c3226ce.Emscripten.clang"
  },
  "schemaVersion": "3.1.0",
  "updatedAt": "2020-05-12T11:33:56.378Z",
  "networkType": "ethereum",
  "devdoc": {
    "methods": {}
  },
  "userdoc": {
    "methods": {}
  }
}